{
  "address": "0xFca6A596085E3cAC2FedA078bDA34B52592B17Ca",
  "abi": [
    {
      "inputs": [
        {
          "internalType": "address",
          "name": "_governance",
          "type": "address"
        },
        {
          "internalType": "address",
          "name": "_axial",
          "type": "address"
        },
        {
          "internalType": "address",
          "name": "_saxial",
          "type": "address"
        },
        {
          "internalType": "address",
          "name": "_veaxial",
          "type": "address"
        }
      ],
      "stateMutability": "nonpayable",
      "type": "constructor"
    },
    {
      "inputs": [],
      "name": "Axial",
      "outputs": [
        {
          "internalType": "contract IERC20",
          "name": "",
          "type": "address"
        }
      ],
      "stateMutability": "view",
      "type": "function"
    },
    {
      "inputs": [],
      "name": "DISTRIBUTION_DEADLINE",
      "outputs": [
        {
          "internalType": "uint256",
          "name": "",
          "type": "uint256"
        }
      ],
      "stateMutability": "view",
      "type": "function"
    },
    {
      "inputs": [],
      "name": "MCAV2",
      "outputs": [
        {
          "internalType": "contract IMasterChef",
          "name": "",
          "type": "address"
        }
      ],
      "stateMutability": "view",
      "type": "function"
    },
    {
      "inputs": [],
      "name": "acceptGovernance",
      "outputs": [],
      "stateMutability": "nonpayable",
      "type": "function"
    },
    {
      "inputs": [
        {
          "internalType": "address",
          "name": "_deployer",
          "type": "address"
        }
      ],
      "name": "addDeployer",
      "outputs": [],
      "stateMutability": "nonpayable",
      "type": "function"
    },
    {
      "inputs": [
        {
          "internalType": "address",
          "name": "_token",
          "type": "address"
        }
      ],
      "name": "addGauge",
      "outputs": [],
      "stateMutability": "nonpayable",
      "type": "function"
    },
    {
      "inputs": [],
      "name": "axialDummyToken",
      "outputs": [
        {
          "internalType": "contract IERC20",
          "name": "",
          "type": "address"
        }
      ],
      "stateMutability": "view",
      "type": "function"
    },
    {
      "inputs": [],
      "name": "collect",
      "outputs": [],
      "stateMutability": "nonpayable",
      "type": "function"
    },
    {
      "inputs": [
        {
          "internalType": "address",
          "name": "",
          "type": "address"
        }
      ],
      "name": "deployers",
      "outputs": [
        {
          "internalType": "bool",
          "name": "",
          "type": "bool"
        }
      ],
      "stateMutability": "view",
      "type": "function"
    },
    {
      "inputs": [],
      "name": "depositDummyToken",
      "outputs": [],
      "stateMutability": "nonpayable",
      "type": "function"
    },
    {
      "inputs": [
        {
          "internalType": "address",
          "name": "_token",
          "type": "address"
        }
      ],
      "name": "deprecateGauge",
      "outputs": [],
      "stateMutability": "nonpayable",
      "type": "function"
    },
    {
      "inputs": [
        {
          "internalType": "address",
          "name": "",
          "type": "address"
        }
      ],
      "name": "deprecated",
      "outputs": [
        {
          "internalType": "address",
          "name": "",
          "type": "address"
        }
      ],
      "stateMutability": "view",
      "type": "function"
    },
    {
      "inputs": [
        {
          "internalType": "uint256",
          "name": "_start",
          "type": "uint256"
        },
        {
          "internalType": "uint256",
          "name": "_end",
          "type": "uint256"
        }
      ],
      "name": "distribute",
      "outputs": [],
      "stateMutability": "nonpayable",
      "type": "function"
    },
    {
      "inputs": [
        {
          "internalType": "address",
          "name": "",
          "type": "address"
        }
      ],
      "name": "gauges",
      "outputs": [
        {
          "internalType": "address",
          "name": "",
          "type": "address"
        }
      ],
      "stateMutability": "view",
      "type": "function"
    },
    {
      "inputs": [
        {
          "internalType": "address",
          "name": "_token",
          "type": "address"
        }
      ],
      "name": "getGauge",
      "outputs": [
        {
          "internalType": "address",
          "name": "",
          "type": "address"
        }
      ],
      "stateMutability": "view",
      "type": "function"
    },
    {
      "inputs": [],
      "name": "governance",
      "outputs": [
        {
          "internalType": "address",
          "name": "",
          "type": "address"
        }
      ],
      "stateMutability": "view",
      "type": "function"
    },
    {
      "inputs": [],
      "name": "length",
      "outputs": [
        {
          "internalType": "uint256",
          "name": "",
          "type": "uint256"
        }
      ],
      "stateMutability": "view",
      "type": "function"
    },
    {
      "inputs": [
        {
          "internalType": "address",
          "name": "_gauge",
          "type": "address"
        },
        {
          "internalType": "address",
          "name": "_token",
          "type": "address"
        }
      ],
      "name": "migrateGauge",
      "outputs": [],
      "stateMutability": "nonpayable",
      "type": "function"
    },
    {
      "inputs": [],
      "name": "pendingGovernance",
      "outputs": [
        {
          "internalType": "address",
          "name": "",
          "type": "address"
        }
      ],
      "stateMutability": "view",
      "type": "function"
    },
    {
      "inputs": [],
      "name": "pid",
      "outputs": [
        {
          "internalType": "uint256",
          "name": "",
          "type": "uint256"
        }
      ],
      "stateMutability": "view",
      "type": "function"
    },
    {
      "inputs": [
        {
          "internalType": "address",
          "name": "_owner",
          "type": "address"
        }
      ],
      "name": "poke",
      "outputs": [],
      "stateMutability": "nonpayable",
      "type": "function"
    },
    {
      "inputs": [],
      "name": "preDistribute",
      "outputs": [],
      "stateMutability": "nonpayable",
      "type": "function"
    },
    {
      "inputs": [
        {
          "internalType": "address",
          "name": "_deployer",
          "type": "address"
        }
      ],
      "name": "removeDeployer",
      "outputs": [],
      "stateMutability": "nonpayable",
      "type": "function"
    },
    {
      "inputs": [
        {
          "internalType": "address",
          "name": "_token",
          "type": "address"
        }
      ],
      "name": "renewGauge",
      "outputs": [],
      "stateMutability": "nonpayable",
      "type": "function"
    },
    {
      "inputs": [],
      "name": "reset",
      "outputs": [],
      "stateMutability": "nonpayable",
      "type": "function"
    },
    {
      "inputs": [],
      "name": "sAxial",
      "outputs": [
        {
          "internalType": "contract VestingStake",
          "name": "",
          "type": "address"
        }
      ],
      "stateMutability": "view",
      "type": "function"
    },
    {
      "inputs": [
        {
          "internalType": "address",
          "name": "_governance",
          "type": "address"
        }
      ],
      "name": "setGovernance",
      "outputs": [],
      "stateMutability": "nonpayable",
      "type": "function"
    },
    {
      "inputs": [
        {
          "internalType": "address",
          "name": "_masterChef",
          "type": "address"
        }
      ],
      "name": "setMasterChef",
      "outputs": [],
      "stateMutability": "nonpayable",
      "type": "function"
    },
    {
      "inputs": [
        {
          "internalType": "uint256",
          "name": "_pid",
          "type": "uint256"
        }
      ],
      "name": "setPID",
      "outputs": [],
      "stateMutability": "nonpayable",
      "type": "function"
    },
    {
      "inputs": [
        {
          "internalType": "address",
          "name": "",
          "type": "address"
        },
        {
          "internalType": "uint256",
          "name": "",
          "type": "uint256"
        }
      ],
      "name": "tokenVote",
      "outputs": [
        {
          "internalType": "address",
          "name": "",
          "type": "address"
        }
      ],
      "stateMutability": "view",
      "type": "function"
    },
    {
      "inputs": [],
      "name": "tokens",
      "outputs": [
        {
          "internalType": "address[]",
          "name": "",
          "type": "address[]"
        }
      ],
      "stateMutability": "view",
      "type": "function"
    },
    {
      "inputs": [],
      "name": "totalWeight",
      "outputs": [
        {
          "internalType": "uint256",
          "name": "",
          "type": "uint256"
        }
      ],
      "stateMutability": "view",
      "type": "function"
    },
    {
      "inputs": [
        {
          "internalType": "address",
          "name": "",
          "type": "address"
        }
      ],
      "name": "usedWeights",
      "outputs": [
        {
          "internalType": "uint256",
          "name": "",
          "type": "uint256"
        }
      ],
      "stateMutability": "view",
      "type": "function"
    },
    {
      "inputs": [],
      "name": "veAxial",
      "outputs": [
        {
          "internalType": "contract AccruingStake",
          "name": "",
          "type": "address"
        }
      ],
      "stateMutability": "view",
      "type": "function"
    },
    {
      "inputs": [
        {
          "internalType": "address[]",
          "name": "_tokenVote",
          "type": "address[]"
        },
        {
          "internalType": "uint256[]",
          "name": "_weights",
          "type": "uint256[]"
        }
      ],
      "name": "vote",
      "outputs": [],
      "stateMutability": "nonpayable",
      "type": "function"
    },
    {
      "inputs": [
        {
          "internalType": "address",
          "name": "",
          "type": "address"
        },
        {
          "internalType": "address",
          "name": "",
          "type": "address"
        }
      ],
      "name": "votes",
      "outputs": [
        {
          "internalType": "uint256",
          "name": "",
          "type": "uint256"
        }
      ],
      "stateMutability": "view",
      "type": "function"
    },
    {
      "inputs": [
        {
          "internalType": "address",
          "name": "",
          "type": "address"
        }
      ],
      "name": "weights",
      "outputs": [
        {
          "internalType": "uint256",
          "name": "",
          "type": "uint256"
        }
      ],
      "stateMutability": "view",
      "type": "function"
    }
  ],
  "transactionHash": "0xdda0536b52a04cf4f6e656d48299fa491fd4dec2a3c2c666d6d59d4b7f04a5b5",
  "args": [
    "0x44A4b9E2A69d86BA382a511f845CbF2E31286770",
    "0x0708F10F657b16ABE18954361E96a641b217648B",
    "0xb7819A8714fCa85239E4b881291819A79Aa703E4",
    "0xeD8583AD6e9A266f38866a1E8058436a4b742D57"
  ],
  "numDeployments": 7,
  "solcInputHash": "971b2cc79b829c5301fa267e7f20987c",
  "bytecode": "0x61010060405260006003553480156200001757600080fd5b506040516200539b3803806200539b8339810160408190526200003a91620000d9565b600080546001600160a01b0319166001600160a01b038681169190911790915583811660a052828116608052811660e0526040516200007990620000ae565b604051809103906000f08015801562000096573d6000803e3d6000fd5b506001600160a01b031660c052506200013692505050565b610b77806200482483390190565b80516001600160a01b0381168114620000d457600080fd5b919050565b60008060008060808587031215620000f057600080fd5b620000fb85620000bc565b93506200010b60208601620000bc565b92506200011b60408601620000bc565b91506200012b60608601620000bc565b905092959194509250565b60805160a05160c05160e05161467c620001a8600039600081816106100152610f6301526000818161058801528181611139015281816111d4015261121101526000818161029501528181610a0b01528181610a420152610ce201526000818161051401526116ec015261467c6000f3fe60806040523480156200001157600080fd5b5060043610620002545760003560e01c8063a7cac8461162000149578063d826f88f11620000c7578063f2a1a8ed1162000086578063f2a1a8ed14620005b4578063f315df8614620005cb578063f39c38a014620005e2578063f40485a214620005f6578063fcd5189b146200060a57600080fd5b8063d826f88f1462000564578063e07a3c98146200056e578063e52253811462000578578063ed4355b81462000582578063f106845414620005aa57600080fd5b8063b1c6f0e91162000114578063b1c6f0e9146200049c578063b9a09fd514620004cb578063bdcf150814620004f7578063ca3e3c03146200050e578063cad1b906146200053657600080fd5b8063a7cac8461462000441578063ab033ea91462000464578063ae495365146200047b578063b1a997ac146200048557600080fd5b80637625391a11620001d75780638d06051911620001a25780638d06051914620003d957806396c82e5714620003f05780639d63848a14620003fa5780639da882ac1462000413578063a2d9f4dc146200042a57600080fd5b80637625391a146200038a5780637b66665314620003a15780638283639114620003b8578063880f403914620003c257600080fd5b8063266f803a1162000224578063266f803a14620002e55780635aa6e67514620003115780636848c2bd14620003255780636a2385e8146200033c5780636f816a20146200037357600080fd5b80622f8de4146200025957806303e9f23b146200028f5780631f7b6d3214620002d0578063238efcbc14620002d9575b600080fd5b6200027c6200026a36600462001ec0565b600f6020526000908152604090205481565b6040519081526020015b60405180910390f35b620002b77f000000000000000000000000000000000000000000000000000000000000000081565b6040516001600160a01b03909116815260200162000286565b6008546200027c565b620002e362000632565b005b620002b7620002f636600462001ec0565b600a602052600090815260409020546001600160a01b031681565b600054620002b7906001600160a01b031681565b620002e36200033636600462001ec0565b620006b6565b620003626200034d36600462001ec0565b60106020526000908152604090205460ff1681565b604051901515815260200162000286565b620002e36200038436600462001f2d565b62000783565b620002e36200039b36600462001fa0565b6200084a565b620002e3620003b236600462001fc3565b62000ae6565b620002e362000bb9565b620002e3620003d336600462001ec0565b62000d71565b620002e3620003ea36600462001ffb565b62000dc2565b6200027c60045481565b6200040462000e83565b60405162000286919062002015565b620002e36200042436600462001ec0565b62000ee7565b620002e36200043b36600462001ec0565b62001037565b6200027c6200045236600462001ec0565b600b6020526000908152604090205481565b620002e36200047536600462001ec0565b6200108b565b620002e3620010da565b620002e36200049636600462001ec0565b620012af565b620002b7620004ad36600462001ec0565b6001600160a01b039081166000908152600960205260409020541690565b620002b7620004dc36600462001ec0565b6009602052600090815260409020546001600160a01b031681565b620002e36200050836600462001ec0565b6200141d565b620002b77f000000000000000000000000000000000000000000000000000000000000000081565b6200027c6200054736600462001fc3565b600d60209081526000928352604080842090915290825290205481565b620002e362001525565b6200027c61546081565b620002e362001532565b620002b77f000000000000000000000000000000000000000000000000000000000000000081565b6200027c60035481565b620002b7620005c536600462002064565b62001636565b620002e3620005dc36600462001ec0565b6200166f565b600154620002b7906001600160a01b031681565b600254620002b7906001600160a01b031681565b620002b77f000000000000000000000000000000000000000000000000000000000000000081565b6001546001600160a01b03163314620006925760405162461bcd60e51b815260206004820152601d60248201527f616363657074476f7665726e616e63653a202170656e64696e67476f7600000060448201526064015b60405180910390fd5b600154600080546001600160a01b0319166001600160a01b03909216919091179055565b6000546001600160a01b03163314620006e35760405162461bcd60e51b8152600401620006899062002091565b6001600160a01b03818116600090815260096020526040902054166200073d5760405162461bcd60e51b815260206004820152600e60248201526d191bd95cc81b9bdd08195e1a5cdd60921b604482015260640162000689565b6001600160a01b0390811660009081526009602081815260408084208054600a8452919094208054919095166001600160a01b0319918216179094555280549091169055565b828114620007d45760405162461bcd60e51b815260206004820181905260248201527f7765696768742f746f6b656e766f7465206c656e677468206d69736d61746368604482015260640162000689565b620008443385858080602002602001604051908101604052809392919081815260200183836020028082843760009201919091525050604080516020808902828101820190935288825290935088925087918291850190849080828437600092019190915250620016bd92505050565b50505050565b3360009081526010602052604090205460ff16806200087357506000546001600160a01b031633145b620008925760405162461bcd60e51b8152600401620006899062002091565b808210620008d05760405162461bcd60e51b815260206004820152600a6024820152691898590817dcdd185c9d60b21b604482015260640162000689565b6008548111156200090f5760405162461bcd60e51b81526020600482015260086024820152671898590817d95b9960c21b604482015260640162000689565b42615460600754620009229190620020d4565b1015620009615760405162461bcd60e51b815260206004820152600c60248201526b1b1bd8dac8195e1c1a5c995960a21b604482015260640162000689565b60006006541180156200097657506000600554115b1562000ae257815b8181101562000ae0576000600882815481106200099f576200099f620020ef565b60009182526020808320909101546001600160a01b0390811680845260098352604080852054600454600c9095529085205460065492965092169392620009f4929091620009ed9162001946565b906200195b565b9050801562000ac75762000a346001600160a01b037f00000000000000000000000000000000000000000000000000000000000000001683600062001969565b62000a6a6001600160a01b037f000000000000000000000000000000000000000000000000000000000000000016838362001969565b604051633c6b16ab60e01b8152600481018290526001600160a01b03831690633c6b16ab90602401600060405180830381600087803b15801562000aad57600080fd5b505af115801562000ac2573d6000803e3d6000fd5b505050505b505050808062000ad79062002105565b9150506200097e565b505b5050565b6000546001600160a01b0316331462000b135760405162461bcd60e51b8152600401620006899062002091565b6001600160a01b03818116600090815260096020526040902054161562000b4e5760405162461bcd60e51b8152600401620006899062002123565b6001600160a01b0390811660008181526009602052604081208054939094166001600160a01b0319938416179093556008805460018101825593527ff3f7a9fe364faab93b216da50a3214154f22a0a2b415b23a84c8169e8b636ee390920180549091169091179055565b3360009081526010602052604090205460ff168062000be257506000546001600160a01b031633145b62000c015760405162461bcd60e51b8152600401620006899062002091565b60045460055560005b60085481101562000cc257600b60006008838154811062000c2f5762000c2f620020ef565b9060005260206000200160009054906101000a90046001600160a01b03166001600160a01b03166001600160a01b0316815260200190815260200160002054600c60006008848154811062000c885762000c88620020ef565b60009182526020808320909101546001600160a01b031683528201929092526040019020558062000cb98162002105565b91505062000c0a565b5062000ccd62001532565b6040516370a0823160e01b81523060048201527f00000000000000000000000000000000000000000000000000000000000000006001600160a01b0316906370a082319060240160206040518083038186803b15801562000d2d57600080fd5b505afa15801562000d42573d6000803e3d6000fd5b505050506040513d601f19601f8201168201806040525081019062000d68919062002143565b60065542600755565b6000546001600160a01b0316331462000d9e5760405162461bcd60e51b815260040162000689906200215d565b6001600160a01b03166000908152601060205260409020805460ff19166001179055565b6000546001600160a01b0316331462000def5760405162461bcd60e51b815260040162000689906200215d565b6003541562000e415760405162461bcd60e51b815260206004820152601860248201527f7069642068617320616c7265616479206265656e207365740000000000000000604482015260640162000689565b8062000e7e5760405162461bcd60e51b815260206004820152600b60248201526a1a5b9d985b1a59081c1a5960aa1b604482015260640162000689565b600355565b6060600880548060200260200160405190810160405280929190818152602001828054801562000edd57602002820191906000526020600020905b81546001600160a01b0316815260019091019060200180831162000ebe575b5050505050905090565b6000546001600160a01b0316331462000f145760405162461bcd60e51b8152600401620006899062002091565b6001600160a01b03818116600090815260096020526040902054161562000f4f5760405162461bcd60e51b8152600401620006899062002123565b60005460405182916001600160a01b0316907f00000000000000000000000000000000000000000000000000000000000000009062000f8e9062001e60565b6001600160a01b03938416815291831660208301529091166040820152606001604051809103906000f08015801562000fcb573d6000803e3d6000fd5b506001600160a01b0391821660008181526009602052604081208054939094166001600160a01b0319938416179093556008805460018101825593527ff3f7a9fe364faab93b216da50a3214154f22a0a2b415b23a84c8169e8b636ee390920180549091169091179055565b6000546001600160a01b03163314620010645760405162461bcd60e51b815260040162000689906200215d565b600280546001600160a01b0319166001600160a01b03929092169190911790556000600355565b6000546001600160a01b03163314620010b85760405162461bcd60e51b815260040162000689906200215d565b600180546001600160a01b0319166001600160a01b0392909216919091179055565b600354620011215760405162461bcd60e51b81526020600482015260136024820152721c1a59081b9bdd081a5b9a5d1a585b1a5e9959606a1b604482015260640162000689565b6040516370a0823160e01b81523060048201526000907f00000000000000000000000000000000000000000000000000000000000000006001600160a01b0316906370a082319060240160206040518083038186803b1580156200118457600080fd5b505afa15801562001199573d6000803e3d6000fd5b505050506040513d601f19601f82011682018060405250810190620011bf919062002143565b600254909150620011ff906001600160a01b037f000000000000000000000000000000000000000000000000000000000000000081169116600062001969565b6002546200123b906001600160a01b037f0000000000000000000000000000000000000000000000000000000000000000811691168362001969565b600254600354604051631c57762b60e31b81526001600160a01b039092169163e2bbb1589162001278918590600401918252602082015260400190565b600060405180830381600087803b1580156200129357600080fd5b505af1158015620012a8573d6000803e3d6000fd5b5050505050565b6001600160a01b0381166000908152600e60209081526040808320805482518185028101850190935280835291929091908301828280156200131b57602002820191906000526020600020905b81546001600160a01b03168152600190910190602001808311620012fc575b5050505050905060008151905060008167ffffffffffffffff81111562001346576200134662002194565b60405190808252806020026020018201604052801562001370578160200160208202803683370190505b50905060005b828110156200140f576001600160a01b0385166000908152600d602052604081208551909190869084908110620013b157620013b1620020ef565b60200260200101516001600160a01b03166001600160a01b0316815260200190815260200160002054828281518110620013ef57620013ef620020ef565b602090810291909101015280620014068162002105565b91505062001376565b5062000844848483620016bd565b6000546001600160a01b031633146200144a5760405162461bcd60e51b8152600401620006899062002091565b6001600160a01b038181166000908152600960205260409020541615620014855760405162461bcd60e51b8152600401620006899062002123565b6001600160a01b038181166000908152600a602052604090205416620014df5760405162461bcd60e51b815260206004820152600e60248201526d1b9bdd0819195c1c9958d85d195960921b604482015260640162000689565b6001600160a01b039081166000908152600a60208181526040808420805460098452919094208054919095166001600160a01b0319918216179094555280549091169055565b620015303362001ab8565b565b6002546003546040516393f1a40b60e01b815260048101919091523060248201526000916001600160a01b0316906393f1a40b90604401604080518083038186803b1580156200158157600080fd5b505afa15801562001596573d6000803e3d6000fd5b505050506040513d601f19601f82011682018060405250810190620015bc9190620021aa565b50600254600354604051630441a3e760e41b81526004810191909152602481018390529192506001600160a01b03169063441a3e7090604401600060405180830381600087803b1580156200161057600080fd5b505af115801562001625573d6000803e3d6000fd5b5050505062001633620010da565b50565b600e60205281600052604060002081815481106200165357600080fd5b6000918252602090912001546001600160a01b03169150829050565b6000546001600160a01b031633146200169c5760405162461bcd60e51b815260040162000689906200215d565b6001600160a01b03166000908152601060205260409020805460ff19169055565b620016c88362001ab8565b8151604051631776451f60e21b81526001600160a01b0385811660048301526000917f000000000000000000000000000000000000000000000000000000000000000090911690635dd9147c9060240160206040518083038186803b1580156200173157600080fd5b505afa15801562001746573d6000803e3d6000fd5b505050506040513d601f19601f820116820180604052508101906200176c919062002143565b905060008060005b84811015620017c557620017ae868281518110620017965762001796620020ef565b60200260200101518462001bd990919063ffffffff16565b925080620017bc8162002105565b91505062001774565b5060005b8481101562001921576000878281518110620017e957620017e9620020ef565b6020908102919091018101516001600160a01b038082166000908152600990935260408320548a5192945016919062001851908790620009ed908a908d90899081106200183a576200183a620020ef565b60200260200101516200194690919063ffffffff16565b90506001600160a01b0382161562001908576200186f858262001bd9565b60045490955062001881908262001bd9565b6004556001600160a01b0383166000908152600b6020526040902054620018a9908262001bd9565b6001600160a01b038085166000818152600b6020908152604080832095909555928f16808252600e845284822080546001810182559083528483200180546001600160a01b031916841790558152600d83528381209181529152208190555b5050508080620019189062002105565b915050620017c9565b506001600160a01b039096166000908152600f60205260409020959095555050505050565b6000620019548284620021cf565b9392505050565b6000620019548284620021f1565b801580620019f75750604051636eb1769f60e11b81523060048201526001600160a01b03838116602483015284169063dd62ed3e9060440160206040518083038186803b158015620019ba57600080fd5b505afa158015620019cf573d6000803e3d6000fd5b505050506040513d601f19601f82011682018060405250810190620019f5919062002143565b155b62001a645760405162461bcd60e51b815260206004820152603660248201527f5361666545524332303a20617070726f76652066726f6d206e6f6e2d7a65726f60448201527520746f206e6f6e2d7a65726f20616c6c6f77616e636560501b606482015260840162000689565b604080516001600160a01b038416602482015260448082018490528251808303909101815260649091019091526020810180516001600160e01b031663095ea7b360e01b17905262000ae090849062001be7565b6001600160a01b0381166000908152600e60205260408120805490915b8181101562001bb557600083828154811062001af55762001af5620020ef565b60009182526020808320909101546001600160a01b038881168452600d8352604080852091909216808552925290912054909150801562001b9d5760045462001b3f908262001cc0565b6004556001600160a01b0382166000908152600b602052604090205462001b67908262001cc0565b6001600160a01b038084166000818152600b6020908152604080832095909555928a168152600d83528381209181529152908120555b5050808062001bac9062002105565b91505062001ad5565b506001600160a01b0383166000908152600e6020526040812062000ae09162001e6e565b6000620019548284620020d4565b600062001c3e826040518060400160405280602081526020017f5361666545524332303a206c6f772d6c6576656c2063616c6c206661696c6564815250856001600160a01b031662001cce9092919063ffffffff16565b80519091501562000ae0578080602001905181019062001c5f919062002214565b62000ae05760405162461bcd60e51b815260206004820152602a60248201527f5361666545524332303a204552433230206f7065726174696f6e20646964206e6044820152691bdd081cdd58d8d9595960b21b606482015260840162000689565b600062001954828462002238565b606062001cdf848460008562001ce7565b949350505050565b60608247101562001d4a5760405162461bcd60e51b815260206004820152602660248201527f416464726573733a20696e73756666696369656e742062616c616e636520666f6044820152651c8818d85b1b60d21b606482015260840162000689565b6001600160a01b0385163b62001da35760405162461bcd60e51b815260206004820152601d60248201527f416464726573733a2063616c6c20746f206e6f6e2d636f6e7472616374000000604482015260640162000689565b600080866001600160a01b0316858760405162001dc1919062002281565b60006040518083038185875af1925050503d806000811462001e00576040519150601f19603f3d011682016040523d82523d6000602084013e62001e05565b606091505b509150915062001e1782828662001e22565b979650505050505050565b6060831562001e3357508162001954565b82511562001e445782518084602001fd5b8160405162461bcd60e51b81526004016200068991906200229f565b61237280620022d583390190565b50805460008255906000526020600020908101906200163391905b8082111562001e9f576000815560010162001e89565b5090565b80356001600160a01b038116811462001ebb57600080fd5b919050565b60006020828403121562001ed357600080fd5b620019548262001ea3565b60008083601f84011262001ef157600080fd5b50813567ffffffffffffffff81111562001f0a57600080fd5b6020830191508360208260051b850101111562001f2657600080fd5b9250929050565b6000806000806040858703121562001f4457600080fd5b843567ffffffffffffffff8082111562001f5d57600080fd5b62001f6b8883890162001ede565b9096509450602087013591508082111562001f8557600080fd5b5062001f948782880162001ede565b95989497509550505050565b6000806040838503121562001fb457600080fd5b50508035926020909101359150565b6000806040838503121562001fd757600080fd5b62001fe28362001ea3565b915062001ff26020840162001ea3565b90509250929050565b6000602082840312156200200e57600080fd5b5035919050565b6020808252825182820181905260009190848201906040850190845b81811015620020585783516001600160a01b03168352928401929184019160010162002031565b50909695505050505050565b600080604083850312156200207857600080fd5b620020838362001ea3565b946020939093013593505050565b6020808252601390820152723ab730baba3437b934bd32b21039b2b73232b960691b604082015260600190565b634e487b7160e01b600052601160045260246000fd5b60008219821115620020ea57620020ea620020be565b500190565b634e487b7160e01b600052603260045260246000fd5b60006000198214156200211c576200211c620020be565b5060010190565b60208082526006908201526565786973747360d01b604082015260600190565b6000602082840312156200215657600080fd5b5051919050565b6020808252601f908201527f756e617574686f72697a65642073656e6465722028676f7665726e616e636500604082015260600190565b634e487b7160e01b600052604160045260246000fd5b60008060408385031215620021be57600080fd5b505080516020909101519092909150565b6000816000190483118215151615620021ec57620021ec620020be565b500290565b6000826200220f57634e487b7160e01b600052601260045260246000fd5b500490565b6000602082840312156200222757600080fd5b815180151581146200195457600080fd5b6000828210156200224d576200224d620020be565b500390565b60005b838110156200226f57818101518382015260200162002255565b83811115620008445750506000910152565b600082516200229581846020870162002252565b9190910192915050565b6020815260008251806020840152620022c081604085016020870162002252565b601f01601f1916919091016040019291505056fe60c06040523480156200001157600080fd5b5060405162002372380380620023728339810160408190526200003491620000e5565b600160028190556001600160a01b0393841660a052600480546001600160a01b0319908116331790915560008054948616948216949094178455919093166080526003805493840181559091527fc2575a0e9e593c00f959f8c92f12db2869c3395a3b0502d05e2516446f71f85b909101805490911673cf8419a615c57511807236751c0af38db4ba33511790556200012f565b80516001600160a01b0381168114620000e057600080fd5b919050565b600080600060608486031215620000fb57600080fd5b6200010684620000c8565b92506200011660208501620000c8565b91506200012660408501620000c8565b90509250925092565b60805160a0516121fa620001786000396000818161053801528181611578015281816118ab0152611b12015260008181610485015281816113d2015261145401526121fa6000f3fe608060405234801561001057600080fd5b50600436106102535760003560e01c806370fbc10a11610146578063b6b55f25116100c3578063e35c1e2711610087578063e35c1e2714610582578063e70b9e271461058c578063e9fad8ee146105b7578063f1229777146105bf578063f39c38a0146105d2578063f4901772146105e557600080fd5b8063b6b55f251461050d578063ca1c9b7514610520578063cbdf382c14610533578063da09d19d1461055a578063de5f62681461057a57600080fd5b80638ebdcfc61161010a5780638ebdcfc6146104805780639ce43f90146104a7578063a500fa4b146104c7578063ab033ea9146104e7578063b67c6024146104fa57600080fd5b806370fbc10a14610424578063789ef0e0146104375780637bb7bed11461044a578063853828b61461045d5780638b473ce81461046557600080fd5b80633c6b16ab116101d45780635aa6e675116101985780635aa6e6751461039757806362b009d9146103aa578063638634ee146103bd5780637035ab98146103d057806370a08231146103fb57600080fd5b80633c6b16ab146103415780633c6f778c146103545780633d3b26031461035c5780633d5ba7c61461037c57806345b35f561461038f57600080fd5b806323cb23901161021b57806323cb2390146102a75780632ce9aead146102ba5780632e1a7d4d146102da578063348701dc146102ed57806336efd16f1461032e57600080fd5b806318160ddd146102585780631c1f78eb1461026f5780631c4b774b14610277578063211dc32d1461028c578063238efcbc1461029f575b600080fd5b600c545b6040519081526020015b60405180910390f35b61025c6105f8565b61028a610285366004611e9b565b61064a565b005b61025c61029a366004611ed0565b6108d0565b61028a610968565b61028a6102b5366004611ed0565b6109e6565b61025c6102c8366004611f03565b60076020526000908152604090205481565b61028a6102e8366004611e9b565b610b29565b6103166102fb366004611f03565b6010602052600090815260409020546001600160a01b031681565b6040516001600160a01b039091168152602001610266565b61028a61033c366004611f1e565b610b35565b61028a61034f366004611e9b565b610b87565b60035461025c565b61025c61036a366004611f03565b60086020526000908152604090205481565b61028a61038a366004611f03565b610eb2565b61028a610f22565b600054610316906001600160a01b031681565b61028a6103b8366004611f03565b610f48565b61025c6103cb366004611f03565b610f94565b61025c6103de366004611ed0565b600a60209081526000928352604080842090915290825290205481565b61025c610409366004611f03565b6001600160a01b03166000908152600e602052604090205490565b61028a610432366004611f41565b610fbe565b61025c610445366004611f03565b6112ab565b610316610458366004611e9b565b6112f8565b61028a611322565b61031673cf8419a615c57511807236751c0af38db4ba335181565b6103167f000000000000000000000000000000000000000000000000000000000000000081565b61025c6104b5366004611f03565b60096020526000908152604090205481565b61025c6104d5366004611f03565b600f6020526000908152604090205481565b61028a6104f5366004611f03565b61133d565b61025c610508366004611f03565b611389565b61028a61051b366004611e9b565b611555565b600454610316906001600160a01b031681565b6103167f000000000000000000000000000000000000000000000000000000000000000081565b61025c610568366004611f03565b60066020526000908152604090205481565b61028a61155f565b61025c62093a8081565b61025c61059a366004611ed0565b600b60209081526000928352604080842090915290825290205481565b61028a611600565b61025c6105cd366004611f03565b611621565b600154610316906001600160a01b031681565b61028a6105f3366004611f74565b6116d9565b600080600360008154811061060f5761060f611fe9565b60009182526020808320909101546001600160a01b031680835260089091526040909120549091506106449062093a8061171a565b91505090565b6002805414156106755760405162461bcd60e51b815260040161066c90611fff565b60405180910390fd5b600280556003543390829081106106c45760405162461bcd60e51b8152602060048201526013602482015272092dcecc2d8d2c840e8ded6cadc40d2dcc8caf606b1b604482015260640161066c565b6000600382815481106106d9576106d9611fe9565b6000918252602090912001546001600160a01b031690506106f981611621565b6001600160a01b03821660009081526009602052604090205561071b81610f94565b6001600160a01b038083166000908152600760205260409020919091558316156107935761074983826108d0565b6001600160a01b038085166000818152600b60209081526040808320948716808452948252808320959095556009815284822054928252600a815284822093825292909252919020555b6000600385815481106107a8576107a8611fe9565b6000918252602090912001546001600160a01b031690508061080c5760405162461bcd60e51b815260206004820152601b60248201527f52657761726420746f6b656e20646f6573206e6f742065786973740000000000604482015260640161066c565b336000908152600b602090815260408083206001600160a01b038516845290915290205480156108ab5761084a6001600160a01b0383163383611726565b336000818152600b602090815260408083206001600160a01b038716808552908352818420939093558051858152918201929092527f8e0d3fa908fd7ee819155b3ce71e292b601bbeb0cd00d7758b9d226a523cb827910160405180910390a25b50506001600160a01b038316156108c5576108c583610eb2565b505060016002555050565b6001600160a01b038083166000818152600b6020908152604080832094861680845294825280832054938352600a825280832094835293905291822054670de0b6b3a76400009061092085611621565b61092a919061204c565b6001600160a01b0386166000908152600f602052604090205461094d9190612063565b6109579190612082565b61096191906120a4565b9392505050565b6001546001600160a01b031633146109c25760405162461bcd60e51b815260206004820152601d60248201527f616363657074476f7665726e616e63653a202170656e64696e67476f76000000604482015260640161066c565b600154600080546001600160a01b0319166001600160a01b03909216919091179055565b6000546001600160a01b03163314610a105760405162461bcd60e51b815260040161066c906120bc565b816001600160a01b0381163b610a605760405162461bcd60e51b815260206004820152601560248201527411d85d59d94e881b9bdd08184818dbdb9d1c9858dd605a1b604482015260640161066c565b6001600160a01b038381166000908152601060205260409020541615610abf5760405162461bcd60e51b8152602060048201526014602482015273546f6b656e20616c726561647920696e2075736560601b604482015260640161066c565b506001600160a01b0391821660008181526010602052604081208054949093166001600160a01b0319948516179092556003805460018101825592527fc2575a0e9e593c00f959f8c92f12db2869c3395a3b0502d05e2516446f71f85b9091018054909216179055565b610b3281611789565b50565b6001600160a01b038116301415610b795760405162461bcd60e51b8152602060048201526008602482015267085858d8dbdd5b9d60c21b604482015260640161066c565b610b8382826119af565b5050565b6004546001600160a01b03163314610be15760405162461bcd60e51b815260206004820181905260248201527f47617567653a206e6f7420646973747269627574696f6e20636f6e7472616374604482015260640161066c565b6000805b600354811015610ccf57600060038281548110610c0457610c04611fe9565b6000918252602090912001546001600160a01b03169050610c2481611621565b6001600160a01b038216600090815260096020526040902055610c4681610f94565b6001600160a01b03808316600090815260076020526040902091909155831615610cbe57610c7483826108d0565b6001600160a01b038085166000818152600b60209081526040808320948716808452948252808320959095556009815284822054928252600a815284822093825292909252919020555b50610cc8816120f3565b9050610be5565b5060006003600081548110610ce657610ce6611fe9565b6000918252602090912001546004546001600160a01b039182169250610d10918391163086611be6565b610d1d8362093a80611c1e565b6001600160a01b0382166000818152600860205260408082209390935591516370a0823160e01b81523060048201526370a082319060240160206040518083038186803b158015610d6d57600080fd5b505afa158015610d81573d6000803e3d6000fd5b505050506040513d601f19601f82011682018060405250810190610da5919061210e565b9050610db48162093a80611c1e565b6001600160a01b0383166000908152600860205260409020541115610e1b5760405162461bcd60e51b815260206004820152601860248201527f50726f76696465642072657761726420746f6f20686967680000000000000000604482015260640161066c565b6001600160a01b03821660009081526007602052604090204290819055610e459062093a80611c2a565b6001600160a01b038316600081815260066020908152604091829020939093558051878152928301919091527ffb5edb6eb340a01f6a67189edc978df97841c43752c212fc85995ea230017635910160405180910390a150506001600160a01b03811615610b8357610b83815b6001600160a01b0381166000908152600f6020526040812054600d805491929091610ede90849061204c565b90915550610eed905081611389565b6001600160a01b0382166000908152600f60205260408120829055600d8054909190610f1a9084906120a4565b909155505050565b60005b600354811015610b3257610f388161064a565b610f41816120f3565b9050610f25565b6000546001600160a01b03163314610f725760405162461bcd60e51b815260040161066c906120bc565b600480546001600160a01b0319166001600160a01b0392909216919091179055565b6001600160a01b038116600090815260066020526040812054610fb8904290611c36565b92915050565b6000805b6003548110156110ac57600060038281548110610fe157610fe1611fe9565b6000918252602090912001546001600160a01b0316905061100181611621565b6001600160a01b03821660009081526009602052604090205561102381610f94565b6001600160a01b0380831660009081526007602052604090209190915583161561109b5761105183826108d0565b6001600160a01b038085166000818152600b60209081526040808320948716808452948252808320959095556009815284822054928252600a815284822093825292909252919020555b506110a5816120f3565b9050610fc2565b506001600160a01b038481166000908152601060205260409020541633146111165760405162461bcd60e51b815260206004820152601a60248201527f596f7520646f206e6f742068617665207468652072696768742e000000000000604482015260640161066c565b816111635760405162461bcd60e51b815260206004820152601b60248201527f43616e6e6f742073657420726577617264207261746520746f20300000000000604482015260640161066c565b6111786001600160a01b038516333086611be6565b6040516370a0823160e01b81523060048201526000906001600160a01b038616906370a082319060240160206040518083038186803b1580156111ba57600080fd5b505afa1580156111ce573d6000803e3d6000fd5b505050506040513d601f19601f820116820180604052508101906111f2919061210e565b905060006112008483612082565b6001600160a01b0387166000908152600760205260409020429081905590915061122a9082611c2a565b6001600160a01b03871660008181526006602090815260408083209490945560088152908390208790558251888152908101919091527ffb5edb6eb340a01f6a67189edc978df97841c43752c212fc85995ea230017635910160405180910390a150506001600160a01b038116156112a5576112a581610eb2565b50505050565b6000600c54600014156112c057506000919050565b600c546001600160a01b0383166000908152600e60205260409020546112ee90670de0b6b3a7640000612063565b610fb89190612082565b6003818154811061130857600080fd5b6000918252602090912001546001600160a01b0316905081565b336000908152600e602052604090205461133b90611789565b565b6000546001600160a01b031633146113675760405162461bcd60e51b815260040161066c906120bc565b600180546001600160a01b0319166001600160a01b0392909216919091179055565b6001600160a01b0381166000908152600e6020526040812054806113b05750600092915050565b604051639869e13760e01b81526001600160a01b0384811660048301526000917f000000000000000000000000000000000000000000000000000000000000000090911690639869e1379060240160206040518083038186803b15801561141657600080fd5b505afa15801561142a573d6000803e3d6000fd5b505050506040513d601f19601f8201168201806040525081019061144e919061210e565b905060007f00000000000000000000000000000000000000000000000000000000000000006001600160a01b031663e7812b7f6040518163ffffffff1660e01b815260040160206040518083038186803b1580156114ab57600080fd5b505afa1580156114bf573d6000803e3d6000fd5b505050506040513d601f19601f820116820180604052508101906114e3919061210e565b9050600081600c546114f591906120a4565b9050806115085750600095945050505050565b6001600160a01b0386166000908152600e602052604081205461152c9085906120a4565b61153e90670de0b6b3a7640000612063565b905061154a8282612082565b979650505050505050565b610b3281336119af565b6040516370a0823160e01b815233600482015261133b907f00000000000000000000000000000000000000000000000000000000000000006001600160a01b0316906370a082319060240160206040518083038186803b1580156115c257600080fd5b505afa1580156115d6573d6000803e3d6000fd5b505050506040513d601f19601f820116820180604052508101906115fa919061210e565b336119af565b336000908152600e602052604090205461161990611789565b61133b610f22565b6000600c54600014806116345750600d54155b1561165557506001600160a01b031660009081526009602052604090205490565b600d546001600160a01b03831660009081526008602090815260408083205460079092529091205461168685610f94565b611690919061204c565b61169a9190612063565b6116ac90670de0b6b3a7640000612063565b6116b69190612082565b6001600160a01b038316600090815260096020526040902054610fb891906120a4565b60005b81811015611715576117058383838181106116f9576116f9611fe9565b9050602002013561064a565b61170e816120f3565b90506116dc565b505050565b60006109618284612063565b6040516001600160a01b03831660248201526044810182905261171590849063a9059cbb60e01b906064015b60408051601f198184030181529190526020810180516001600160e01b03166001600160e01b031990931692909217909152611c4c565b6002805414156117ab5760405162461bcd60e51b815260040161066c90611fff565b600280553360005b60035481101561189d576000600382815481106117d2576117d2611fe9565b6000918252602090912001546001600160a01b031690506117f281611621565b6001600160a01b03821660009081526009602052604090205561181481610f94565b6001600160a01b0380831660009081526007602052604090209190915583161561188c5761184283826108d0565b6001600160a01b038085166000818152600b60209081526040808320948716808452948252808320959095556009815284822054928252600a815284822093825292909252919020555b50611896816120f3565b90506117b3565b506118d26001600160a01b037f0000000000000000000000000000000000000000000000000000000000000000163384611726565b600082116119165760405162461bcd60e51b8152602060048201526011602482015270043616e6e6f74207769746864726177203607c1b604482015260640161066c565b600c546119239083611d1e565b600c55336000908152600e60205260409020546119409083611d1e565b336000818152600e6020526040908190209290925590517f7084f5476618d8e60b11ef0d7d3f06914655adb8793e28ff7f018d4c76d505d5906119869085815260200190565b60405180910390a26001600160a01b038116156119a6576119a681610eb2565b50506001600255565b6002805414156119d15760405162461bcd60e51b815260040161066c90611fff565b600280558060005b600354811015611ac3576000600382815481106119f8576119f8611fe9565b6000918252602090912001546001600160a01b03169050611a1881611621565b6001600160a01b038216600090815260096020526040902055611a3a81610f94565b6001600160a01b03808316600090815260076020526040902091909155831615611ab257611a6883826108d0565b6001600160a01b038085166000818152600b60209081526040808320948716808452948252808320959095556009815284822054928252600a815284822093825292909252919020555b50611abc816120f3565b90506119d9565b5060008311611b055760405162461bcd60e51b815260206004820152600e60248201526d043616e6e6f74207374616b6520360941b604482015260640161066c565b611b3a6001600160a01b037f000000000000000000000000000000000000000000000000000000000000000016833086611be6565b600c54611b479084611c2a565b600c556001600160a01b0382166000908152600e6020526040902054611b6d9084611c2a565b6001600160a01b0383166000818152600e6020526040908190209290925590517f9e71bc8eea02a63969f509818f2dafb9254532904319f9dbda79b67bd34a5f3d90611bbc9086815260200190565b60405180910390a26001600160a01b03811615611bdc57611bdc81610eb2565b5050600160025550565b6040516001600160a01b03808516602483015283166044820152606481018290526112a59085906323b872dd60e01b90608401611752565b60006109618284612082565b600061096182846120a4565b6000818310611c455781610961565b5090919050565b6000611ca1826040518060400160405280602081526020017f5361666545524332303a206c6f772d6c6576656c2063616c6c206661696c6564815250856001600160a01b0316611d2a9092919063ffffffff16565b8051909150156117155780806020019051810190611cbf9190612127565b6117155760405162461bcd60e51b815260206004820152602a60248201527f5361666545524332303a204552433230206f7065726174696f6e20646964206e6044820152691bdd081cdd58d8d9595960b21b606482015260840161066c565b6000610961828461204c565b6060611d398484600085611d41565b949350505050565b606082471015611da25760405162461bcd60e51b815260206004820152602660248201527f416464726573733a20696e73756666696369656e742062616c616e636520666f6044820152651c8818d85b1b60d21b606482015260840161066c565b6001600160a01b0385163b611df95760405162461bcd60e51b815260206004820152601d60248201527f416464726573733a2063616c6c20746f206e6f6e2d636f6e7472616374000000604482015260640161066c565b600080866001600160a01b03168587604051611e159190612175565b60006040518083038185875af1925050503d8060008114611e52576040519150601f19603f3d011682016040523d82523d6000602084013e611e57565b606091505b509150915061154a82828660608315611e71575081610961565b825115611e815782518084602001fd5b8160405162461bcd60e51b815260040161066c9190612191565b600060208284031215611ead57600080fd5b5035919050565b80356001600160a01b0381168114611ecb57600080fd5b919050565b60008060408385031215611ee357600080fd5b611eec83611eb4565b9150611efa60208401611eb4565b90509250929050565b600060208284031215611f1557600080fd5b61096182611eb4565b60008060408385031215611f3157600080fd5b82359150611efa60208401611eb4565b600080600060608486031215611f5657600080fd5b611f5f84611eb4565b95602085013595506040909401359392505050565b60008060208385031215611f8757600080fd5b823567ffffffffffffffff80821115611f9f57600080fd5b818501915085601f830112611fb357600080fd5b813581811115611fc257600080fd5b8660208260051b8501011115611fd757600080fd5b60209290920196919550909350505050565b634e487b7160e01b600052603260045260246000fd5b6020808252601f908201527f5265656e7472616e637947756172643a207265656e7472616e742063616c6c00604082015260600190565b634e487b7160e01b600052601160045260246000fd5b60008282101561205e5761205e612036565b500390565b600081600019048311821515161561207d5761207d612036565b500290565b60008261209f57634e487b7160e01b600052601260045260246000fd5b500490565b600082198211156120b7576120b7612036565b500190565b6020808252601f908201527f756e617574686f72697a65642073656e6465722028676f7665726e616e636500604082015260600190565b600060001982141561210757612107612036565b5060010190565b60006020828403121561212057600080fd5b5051919050565b60006020828403121561213957600080fd5b8151801515811461096157600080fd5b60005b8381101561216457818101518382015260200161214c565b838111156112a55750506000910152565b60008251612187818460208701612149565b9190910192915050565b60208152600082518060208401526121b0816040850160208701612149565b601f01601f1916919091016040019291505056fea26469706673582212208e36949c0ec535003c37a7fefb179e83aef8fed89218435f14eebb1ae7b15e6764736f6c63430008090033a2646970667358221220e53f04f3ae26a0e744650367797877b212724020bda89515dfa266d101acf3bd64736f6c6343000809003360806040523480156200001157600080fd5b506040518060400160405280600f81526020016e20bc34b0b6223ab6b6bcaa37b5b2b760891b8152506040518060400160405280600381526020016210561160ea1b81525081600390805190602001906200006e9291906200018f565b508051620000849060049060208401906200018f565b505050620000a133670de0b6b3a7640000620000a760201b60201c565b62000299565b6001600160a01b038216620001025760405162461bcd60e51b815260206004820152601f60248201527f45524332303a206d696e7420746f20746865207a65726f206164647265737300604482015260640160405180910390fd5b806002600082825462000116919062000235565b90915550506001600160a01b038216600090815260208190526040812080548392906200014590849062000235565b90915550506040518181526001600160a01b038316906000907fddf252ad1be2c89b69c2b068fc378daa952ba7f163c4a11628f55a4df523b3ef9060200160405180910390a35050565b8280546200019d906200025c565b90600052602060002090601f016020900481019282620001c157600085556200020c565b82601f10620001dc57805160ff19168380011785556200020c565b828001600101855582156200020c579182015b828111156200020c578251825591602001919060010190620001ef565b506200021a9291506200021e565b5090565b5b808211156200021a57600081556001016200021f565b600082198211156200025757634e487b7160e01b600052601160045260246000fd5b500190565b600181811c908216806200027157607f821691505b602082108114156200029357634e487b7160e01b600052602260045260246000fd5b50919050565b6108ce80620002a96000396000f3fe608060405234801561001057600080fd5b50600436106100a95760003560e01c80633950935111610071578063395093511461012357806370a082311461013657806395d89b411461015f578063a457c2d714610167578063a9059cbb1461017a578063dd62ed3e1461018d57600080fd5b806306fdde03146100ae578063095ea7b3146100cc57806318160ddd146100ef57806323b872dd14610101578063313ce56714610114575b600080fd5b6100b66101c6565b6040516100c3919061070b565b60405180910390f35b6100df6100da36600461077c565b610258565b60405190151581526020016100c3565b6002545b6040519081526020016100c3565b6100df61010f3660046107a6565b610270565b604051601281526020016100c3565b6100df61013136600461077c565b610294565b6100f36101443660046107e2565b6001600160a01b031660009081526020819052604090205490565b6100b66102d3565b6100df61017536600461077c565b6102e2565b6100df61018836600461077c565b610379565b6100f361019b366004610804565b6001600160a01b03918216600090815260016020908152604080832093909416825291909152205490565b6060600380546101d590610837565b80601f016020809104026020016040519081016040528092919081815260200182805461020190610837565b801561024e5780601f106102235761010080835404028352916020019161024e565b820191906000526020600020905b81548152906001019060200180831161023157829003601f168201915b5050505050905090565b600033610266818585610387565b5060019392505050565b60003361027e8582856104ab565b61028985858561053d565b506001949350505050565b3360008181526001602090815260408083206001600160a01b038716845290915281205490919061026690829086906102ce908790610872565b610387565b6060600480546101d590610837565b3360008181526001602090815260408083206001600160a01b03871684529091528120549091908381101561036c5760405162461bcd60e51b815260206004820152602560248201527f45524332303a2064656372656173656420616c6c6f77616e63652062656c6f77604482015264207a65726f60d81b60648201526084015b60405180910390fd5b6102898286868403610387565b60003361026681858561053d565b6001600160a01b0383166103e95760405162461bcd60e51b8152602060048201526024808201527f45524332303a20617070726f76652066726f6d20746865207a65726f206164646044820152637265737360e01b6064820152608401610363565b6001600160a01b03821661044a5760405162461bcd60e51b815260206004820152602260248201527f45524332303a20617070726f766520746f20746865207a65726f206164647265604482015261737360f01b6064820152608401610363565b6001600160a01b0383811660008181526001602090815260408083209487168084529482529182902085905590518481527f8c5be1e5ebec7d5bd14f71427d1e84f3dd0314c0f7b2291e5b200ac8c7c3b925910160405180910390a3505050565b6001600160a01b038381166000908152600160209081526040808320938616835292905220546000198114610537578181101561052a5760405162461bcd60e51b815260206004820152601d60248201527f45524332303a20696e73756666696369656e7420616c6c6f77616e63650000006044820152606401610363565b6105378484848403610387565b50505050565b6001600160a01b0383166105a15760405162461bcd60e51b815260206004820152602560248201527f45524332303a207472616e736665722066726f6d20746865207a65726f206164604482015264647265737360d81b6064820152608401610363565b6001600160a01b0382166106035760405162461bcd60e51b815260206004820152602360248201527f45524332303a207472616e7366657220746f20746865207a65726f206164647260448201526265737360e81b6064820152608401610363565b6001600160a01b0383166000908152602081905260409020548181101561067b5760405162461bcd60e51b815260206004820152602660248201527f45524332303a207472616e7366657220616d6f756e7420657863656564732062604482015265616c616e636560d01b6064820152608401610363565b6001600160a01b038085166000908152602081905260408082208585039055918516815290812080548492906106b2908490610872565b92505081905550826001600160a01b0316846001600160a01b03167fddf252ad1be2c89b69c2b068fc378daa952ba7f163c4a11628f55a4df523b3ef846040516106fe91815260200190565b60405180910390a3610537565b600060208083528351808285015260005b818110156107385785810183015185820160400152820161071c565b8181111561074a576000604083870101525b50601f01601f1916929092016040019392505050565b80356001600160a01b038116811461077757600080fd5b919050565b6000806040838503121561078f57600080fd5b61079883610760565b946020939093013593505050565b6000806000606084860312156107bb57600080fd5b6107c484610760565b92506107d260208501610760565b9150604084013590509250925092565b6000602082840312156107f457600080fd5b6107fd82610760565b9392505050565b6000806040838503121561081757600080fd5b61082083610760565b915061082e60208401610760565b90509250929050565b600181811c9082168061084b57607f821691505b6020821081141561086c57634e487b7160e01b600052602260045260246000fd5b50919050565b6000821982111561089357634e487b7160e01b600052601160045260246000fd5b50019056fea2646970667358221220dc21b4441b38c938fc91a0f4795af36f7984042d25b03882234d90ca5fb6b60b64736f6c63430008090033",
  "devdoc": {
    "kind": "dev",
    "methods": {
      "addDeployer(address)": {
        "details": "deployers can call distribute function"
      },
      "setGovernance(address)": {
        "params": {
          "_governance": "new governance address to set"
        }
      },
      "vote(address[],uint256[])": {
        "params": {
          "_tokenVote": ": the array of tokens which will recieve tokens",
          "_weights": ": the weights to associate with the tokens listed in _tokenVote"
        }
      }
    },
    "stateVariables": {
      "deprecated": {
        "details": "token => gauge"
      },
      "gauges": {
        "details": "token -> gauge"
      },
      "lockedWeights": {
        "details": "token => weight"
      },
      "tokenVote": {
        "details": "msg.sender => token"
      },
      "usedWeights": {
        "details": "msg.sender => total voting weight of user"
      },
      "veAxial": {
        "details": "This could be an address instead, as we do not use it other than passing the address to the Gauge constructor"
      },
      "votes": {
        "details": "msg.sender => token => votes"
      },
      "weights": {
        "details": "token => weight"
      }
    },
    "version": 1
  },
  "userdoc": {
    "kind": "user",
    "methods": {
      "Axial()": {
        "notice": "the Axial token contraxt"
      },
      "DISTRIBUTION_DEADLINE()": {
        "notice": "max time allowed to pass before distribution (6 hours)"
      },
      "MCAV2()": {
        "notice": "Master Chef Axial V2 contract"
      },
      "acceptGovernance()": {
        "notice": "Allows pendingGovernance to accept their role as governance (protection pattern)"
      },
      "addDeployer(address)": {
        "notice": "adds the specified address to the list of deployers"
      },
      "addGauge(address)": {
        "notice": "Add new token gauge"
      },
      "axialDummyToken()": {
        "notice": "dummy token required for masterchef deposits and withdrawals"
      },
      "collect()": {
        "notice": "Collects AXIAL from MCAV2 for distribution"
      },
      "depositDummyToken()": {
        "notice": "Deposits Axial dummy token into MCAV2"
      },
      "deprecateGauge(address)": {
        "notice": "Deprecate existing gauge"
      },
      "distribute(uint256,uint256)": {
        "notice": "Distribute tokens to gauges"
      },
      "getGauge(address)": {
        "notice": "returns the gauge for the specifi(AccruingStake)"
      },
      "governance()": {
        "notice": "address of the governance contract"
      },
      "length()": {
        "notice": "returns the number of tokens currently being voted on"
      },
      "migrateGauge(address,address)": {
        "notice": "Add existing gauge"
      },
      "poke(address)": {
        "notice": "Adjust _owner's votes according to latest _owner's SAXIAL balance"
      },
      "preDistribute()": {
        "notice": "collect AXIAL and update lock information"
      },
      "removeDeployer(address)": {
        "notice": "removes the specified address from the list of deployers"
      },
      "renewGauge(address)": {
        "notice": "Bring Deprecated gauge back into use"
      },
      "reset()": {
        "notice": "Reset votes of msg.sender to 0"
      },
      "sAxial()": {
        "notice": "token for voting on Axial distribution to pools - SAXIAL"
      },
      "setGovernance(address)": {
        "notice": "Allows governance to change governance (for future upgradability)"
      },
      "setMasterChef(address)": {
        "notice": "Sets new MCAV2 address.  Useful for debugging."
      },
      "setPID(uint256)": {
        "notice": "Sets MCAV2 PID"
      },
      "tokens()": {
        "notice": "returns the list of tokens that are currently being voted on"
      },
      "veAxial()": {
        "notice": "token to allow boosting rewards - VEAXIAL"
      },
      "vote(address[],uint256[])": {
        "notice": "Vote with SAXIAL on a gauge, removing any previous votes"
      }
    },
    "version": 1
  },
  "storageLayout": {
    "storage": [
      {
        "astId": 6952,
        "contract": "contracts/GaugeProxy.sol:GaugeProxy",
        "label": "governance",
        "offset": 0,
        "slot": "0",
        "type": "t_address"
      },
      {
        "astId": 6954,
        "contract": "contracts/GaugeProxy.sol:GaugeProxy",
        "label": "pendingGovernance",
        "offset": 0,
        "slot": "1",
        "type": "t_address"
      },
      {
        "astId": 3980,
        "contract": "contracts/GaugeProxy.sol:GaugeProxy",
        "label": "MCAV2",
        "offset": 0,
        "slot": "2",
        "type": "t_contract(IMasterChef)6947"
      },
      {
        "astId": 4003,
        "contract": "contracts/GaugeProxy.sol:GaugeProxy",
        "label": "pid",
        "offset": 0,
        "slot": "3",
        "type": "t_uint256"
      },
      {
        "astId": 4005,
        "contract": "contracts/GaugeProxy.sol:GaugeProxy",
        "label": "totalWeight",
        "offset": 0,
        "slot": "4",
        "type": "t_uint256"
      },
      {
        "astId": 4007,
        "contract": "contracts/GaugeProxy.sol:GaugeProxy",
        "label": "lockedTotalWeight",
        "offset": 0,
        "slot": "5",
        "type": "t_uint256"
      },
      {
        "astId": 4009,
        "contract": "contracts/GaugeProxy.sol:GaugeProxy",
        "label": "lockedBalance",
        "offset": 0,
        "slot": "6",
        "type": "t_uint256"
      },
      {
        "astId": 4011,
        "contract": "contracts/GaugeProxy.sol:GaugeProxy",
        "label": "locktime",
        "offset": 0,
        "slot": "7",
        "type": "t_uint256"
      },
      {
        "astId": 4014,
        "contract": "contracts/GaugeProxy.sol:GaugeProxy",
        "label": "_tokens",
        "offset": 0,
        "slot": "8",
        "type": "t_array(t_address)dyn_storage"
      },
      {
        "astId": 4019,
        "contract": "contracts/GaugeProxy.sol:GaugeProxy",
        "label": "gauges",
        "offset": 0,
        "slot": "9",
        "type": "t_mapping(t_address,t_address)"
      },
      {
        "astId": 4024,
        "contract": "contracts/GaugeProxy.sol:GaugeProxy",
        "label": "deprecated",
        "offset": 0,
        "slot": "10",
        "type": "t_mapping(t_address,t_address)"
      },
      {
        "astId": 4029,
        "contract": "contracts/GaugeProxy.sol:GaugeProxy",
        "label": "weights",
        "offset": 0,
        "slot": "11",
        "type": "t_mapping(t_address,t_uint256)"
      },
      {
        "astId": 4034,
        "contract": "contracts/GaugeProxy.sol:GaugeProxy",
        "label": "lockedWeights",
        "offset": 0,
        "slot": "12",
        "type": "t_mapping(t_address,t_uint256)"
      },
      {
        "astId": 4041,
        "contract": "contracts/GaugeProxy.sol:GaugeProxy",
        "label": "votes",
        "offset": 0,
        "slot": "13",
        "type": "t_mapping(t_address,t_mapping(t_address,t_uint256))"
      },
      {
        "astId": 4047,
        "contract": "contracts/GaugeProxy.sol:GaugeProxy",
        "label": "tokenVote",
        "offset": 0,
        "slot": "14",
        "type": "t_mapping(t_address,t_array(t_address)dyn_storage)"
      },
      {
        "astId": 4052,
        "contract": "contracts/GaugeProxy.sol:GaugeProxy",
        "label": "usedWeights",
        "offset": 0,
        "slot": "15",
        "type": "t_mapping(t_address,t_uint256)"
      },
      {
        "astId": 4056,
        "contract": "contracts/GaugeProxy.sol:GaugeProxy",
        "label": "deployers",
        "offset": 0,
        "slot": "16",
        "type": "t_mapping(t_address,t_bool)"
      }
    ],
    "types": {
      "t_address": {
        "encoding": "inplace",
        "label": "address",
        "numberOfBytes": "20"
      },
      "t_array(t_address)dyn_storage": {
        "base": "t_address",
        "encoding": "dynamic_array",
        "label": "address[]",
        "numberOfBytes": "32"
      },
      "t_bool": {
        "encoding": "inplace",
        "label": "bool",
        "numberOfBytes": "1"
      },
      "t_contract(IMasterChef)6947": {
        "encoding": "inplace",
        "label": "contract IMasterChef",
        "numberOfBytes": "20"
      },
      "t_mapping(t_address,t_address)": {
        "encoding": "mapping",
        "key": "t_address",
        "label": "mapping(address => address)",
        "numberOfBytes": "32",
        "value": "t_address"
      },
      "t_mapping(t_address,t_array(t_address)dyn_storage)": {
        "encoding": "mapping",
        "key": "t_address",
        "label": "mapping(address => address[])",
        "numberOfBytes": "32",
        "value": "t_array(t_address)dyn_storage"
      },
      "t_mapping(t_address,t_bool)": {
        "encoding": "mapping",
        "key": "t_address",
        "label": "mapping(address => bool)",
        "numberOfBytes": "32",
        "value": "t_bool"
      },
      "t_mapping(t_address,t_mapping(t_address,t_uint256))": {
        "encoding": "mapping",
        "key": "t_address",
        "label": "mapping(address => mapping(address => uint256))",
        "numberOfBytes": "32",
        "value": "t_mapping(t_address,t_uint256)"
      },
      "t_mapping(t_address,t_uint256)": {
        "encoding": "mapping",
        "key": "t_address",
        "label": "mapping(address => uint256)",
        "numberOfBytes": "32",
        "value": "t_uint256"
      },
      "t_uint256": {
        "encoding": "inplace",
        "label": "uint256",
        "numberOfBytes": "32"
      }
    }
  }
}