{
  "address": "0xD6d845AE7FAE3a92028A4574053df8E9aBaC61A7",
  "abi": [
    {
      "inputs": [
        {
          "internalType": "address",
          "name": "_governance",
          "type": "address"
        },
        {
          "internalType": "address",
          "name": "_axial",
          "type": "address"
        },
        {
          "internalType": "address",
          "name": "_saxial",
          "type": "address"
        },
        {
          "internalType": "address",
          "name": "_veaxial",
          "type": "address"
        }
      ],
      "stateMutability": "nonpayable",
      "type": "constructor"
    },
    {
      "inputs": [],
      "name": "Axial",
      "outputs": [
        {
          "internalType": "contract IERC20",
          "name": "",
          "type": "address"
        }
      ],
      "stateMutability": "view",
      "type": "function"
    },
    {
      "inputs": [],
      "name": "DISTRIBUTION_DEADLINE",
      "outputs": [
        {
          "internalType": "uint256",
          "name": "",
          "type": "uint256"
        }
      ],
      "stateMutability": "view",
      "type": "function"
    },
    {
      "inputs": [],
      "name": "MCAV3",
      "outputs": [
        {
          "internalType": "contract IMasterChefAxialV3",
          "name": "",
          "type": "address"
        }
      ],
      "stateMutability": "view",
      "type": "function"
    },
    {
      "inputs": [],
      "name": "acceptGovernance",
      "outputs": [],
      "stateMutability": "nonpayable",
      "type": "function"
    },
    {
      "inputs": [
        {
          "internalType": "address",
          "name": "_deployer",
          "type": "address"
        }
      ],
      "name": "addDeployer",
      "outputs": [],
      "stateMutability": "nonpayable",
      "type": "function"
    },
    {
      "inputs": [
        {
          "internalType": "address",
          "name": "_token",
          "type": "address"
        }
      ],
      "name": "addGauge",
      "outputs": [],
      "stateMutability": "nonpayable",
      "type": "function"
    },
    {
      "inputs": [],
      "name": "axialDummyToken",
      "outputs": [
        {
          "internalType": "contract IERC20",
          "name": "",
          "type": "address"
        }
      ],
      "stateMutability": "view",
      "type": "function"
    },
    {
      "inputs": [],
      "name": "collect",
      "outputs": [],
      "stateMutability": "nonpayable",
      "type": "function"
    },
    {
      "inputs": [
        {
          "internalType": "address",
          "name": "",
          "type": "address"
        }
      ],
      "name": "deployers",
      "outputs": [
        {
          "internalType": "bool",
          "name": "",
          "type": "bool"
        }
      ],
      "stateMutability": "view",
      "type": "function"
    },
    {
      "inputs": [],
      "name": "deposit",
      "outputs": [],
      "stateMutability": "nonpayable",
      "type": "function"
    },
    {
      "inputs": [
        {
          "internalType": "address",
          "name": "_token",
          "type": "address"
        }
      ],
      "name": "deprecateGauge",
      "outputs": [],
      "stateMutability": "nonpayable",
      "type": "function"
    },
    {
      "inputs": [
        {
          "internalType": "address",
          "name": "",
          "type": "address"
        }
      ],
      "name": "deprecated",
      "outputs": [
        {
          "internalType": "address",
          "name": "",
          "type": "address"
        }
      ],
      "stateMutability": "view",
      "type": "function"
    },
    {
      "inputs": [
        {
          "internalType": "uint256",
          "name": "_start",
          "type": "uint256"
        },
        {
          "internalType": "uint256",
          "name": "_end",
          "type": "uint256"
        }
      ],
      "name": "distribute",
      "outputs": [],
      "stateMutability": "nonpayable",
      "type": "function"
    },
    {
      "inputs": [
        {
          "internalType": "address",
          "name": "",
          "type": "address"
        }
      ],
      "name": "gauges",
      "outputs": [
        {
          "internalType": "address",
          "name": "",
          "type": "address"
        }
      ],
      "stateMutability": "view",
      "type": "function"
    },
    {
      "inputs": [
        {
          "internalType": "address",
          "name": "_token",
          "type": "address"
        }
      ],
      "name": "getGauge",
      "outputs": [
        {
          "internalType": "address",
          "name": "",
          "type": "address"
        }
      ],
      "stateMutability": "view",
      "type": "function"
    },
    {
      "inputs": [],
      "name": "governance",
      "outputs": [
        {
          "internalType": "address",
          "name": "",
          "type": "address"
        }
      ],
      "stateMutability": "view",
      "type": "function"
    },
    {
      "inputs": [],
      "name": "length",
      "outputs": [
        {
          "internalType": "uint256",
          "name": "",
          "type": "uint256"
        }
      ],
      "stateMutability": "view",
      "type": "function"
    },
    {
      "inputs": [
        {
          "internalType": "address",
          "name": "_gauge",
          "type": "address"
        },
        {
          "internalType": "address",
          "name": "_token",
          "type": "address"
        }
      ],
      "name": "migrateGauge",
      "outputs": [],
      "stateMutability": "nonpayable",
      "type": "function"
    },
    {
      "inputs": [],
      "name": "pendingGovernance",
      "outputs": [
        {
          "internalType": "address",
          "name": "",
          "type": "address"
        }
      ],
      "stateMutability": "view",
      "type": "function"
    },
    {
      "inputs": [],
      "name": "pid",
      "outputs": [
        {
          "internalType": "uint256",
          "name": "",
          "type": "uint256"
        }
      ],
      "stateMutability": "view",
      "type": "function"
    },
    {
      "inputs": [
        {
          "internalType": "address",
          "name": "_owner",
          "type": "address"
        }
      ],
      "name": "poke",
      "outputs": [],
      "stateMutability": "nonpayable",
      "type": "function"
    },
    {
      "inputs": [],
      "name": "preDistribute",
      "outputs": [],
      "stateMutability": "nonpayable",
      "type": "function"
    },
    {
      "inputs": [
        {
          "internalType": "address",
          "name": "_deployer",
          "type": "address"
        }
      ],
      "name": "removeDeployer",
      "outputs": [],
      "stateMutability": "nonpayable",
      "type": "function"
    },
    {
      "inputs": [
        {
          "internalType": "address",
          "name": "_token",
          "type": "address"
        }
      ],
      "name": "renewGauge",
      "outputs": [],
      "stateMutability": "nonpayable",
      "type": "function"
    },
    {
      "inputs": [],
      "name": "reset",
      "outputs": [],
      "stateMutability": "nonpayable",
      "type": "function"
    },
    {
      "inputs": [],
      "name": "sAxial",
      "outputs": [
        {
          "internalType": "contract VestingStake",
          "name": "",
          "type": "address"
        }
      ],
      "stateMutability": "view",
      "type": "function"
    },
    {
      "inputs": [
        {
          "internalType": "address",
          "name": "_governance",
          "type": "address"
        }
      ],
      "name": "setGovernance",
      "outputs": [],
      "stateMutability": "nonpayable",
      "type": "function"
    },
    {
      "inputs": [
        {
          "internalType": "uint256",
          "name": "_pid",
          "type": "uint256"
        }
      ],
      "name": "setPID",
      "outputs": [],
      "stateMutability": "nonpayable",
      "type": "function"
    },
    {
      "inputs": [
        {
          "internalType": "address",
          "name": "",
          "type": "address"
        },
        {
          "internalType": "uint256",
          "name": "",
          "type": "uint256"
        }
      ],
      "name": "tokenVote",
      "outputs": [
        {
          "internalType": "address",
          "name": "",
          "type": "address"
        }
      ],
      "stateMutability": "view",
      "type": "function"
    },
    {
      "inputs": [],
      "name": "tokens",
      "outputs": [
        {
          "internalType": "address[]",
          "name": "",
          "type": "address[]"
        }
      ],
      "stateMutability": "view",
      "type": "function"
    },
    {
      "inputs": [],
      "name": "totalWeight",
      "outputs": [
        {
          "internalType": "uint256",
          "name": "",
          "type": "uint256"
        }
      ],
      "stateMutability": "view",
      "type": "function"
    },
    {
      "inputs": [
        {
          "internalType": "address",
          "name": "",
          "type": "address"
        }
      ],
      "name": "usedWeights",
      "outputs": [
        {
          "internalType": "uint256",
          "name": "",
          "type": "uint256"
        }
      ],
      "stateMutability": "view",
      "type": "function"
    },
    {
      "inputs": [],
      "name": "veAxial",
      "outputs": [
        {
          "internalType": "contract AccruingStake",
          "name": "",
          "type": "address"
        }
      ],
      "stateMutability": "view",
      "type": "function"
    },
    {
      "inputs": [
        {
          "internalType": "address[]",
          "name": "_tokenVote",
          "type": "address[]"
        },
        {
          "internalType": "uint256[]",
          "name": "_weights",
          "type": "uint256[]"
        }
      ],
      "name": "vote",
      "outputs": [],
      "stateMutability": "nonpayable",
      "type": "function"
    },
    {
      "inputs": [
        {
          "internalType": "address",
          "name": "",
          "type": "address"
        },
        {
          "internalType": "address",
          "name": "",
          "type": "address"
        }
      ],
      "name": "votes",
      "outputs": [
        {
          "internalType": "uint256",
          "name": "",
          "type": "uint256"
        }
      ],
      "stateMutability": "view",
      "type": "function"
    },
    {
      "inputs": [
        {
          "internalType": "address",
          "name": "",
          "type": "address"
        }
      ],
      "name": "weights",
      "outputs": [
        {
          "internalType": "uint256",
          "name": "",
          "type": "uint256"
        }
      ],
      "stateMutability": "view",
      "type": "function"
    }
  ],
  "transactionHash": "0xb1260a4acace9bfdbde4d84ad1c83a775ecb0b9c54f1a8fa621784cacecf4cf1",
  "args": [
    "0x44A4b9E2A69d86BA382a511f845CbF2E31286770",
    "0x57b8a194230ef402584130B1eD31d2C4682d7a71",
    "0xb85C2C46B429836507AdE94b03f1E1dc06c3aC39",
    "0xd5Fe6cC71D3D7e4858092125e4efd6c9Ef8E6032"
  ],
  "numDeployments": 1,
  "solcInputHash": "b789b1f498f002e312f5cab981b445a7",
  "bytecode": "0x6101006040523480156200001257600080fd5b5060405162005613380380620056138339810160408190526200003591620000d4565b600080546001600160a01b0319166001600160a01b038681169190911790915583811660a052828116608052811660e0526040516200007490620000a9565b604051809103906000f08015801562000091573d6000803e3d6000fd5b506001600160a01b031660c052506200013192505050565b610b778062004a9c83390190565b80516001600160a01b0381168114620000cf57600080fd5b919050565b60008060008060808587031215620000eb57600080fd5b620000f685620000b7565b93506200010660208601620000b7565b92506200011660408601620000b7565b91506200012660608601620000b7565b905092959194509250565b60805160a05160c05160e0516148f9620001a3600039600081816105f50152610f4b01526000818161058101528181611346015281816113dc0152611427015260008181610289015281816109f001528181610a270152610cc701526000818161050301526116b701526148f96000f3fe60806040523480156200001157600080fd5b5060043610620002485760003560e01c8063ab033ea9116200013d578063d826f88f11620000bb578063f10684541162000086578063f106845414620005a3578063f2a1a8ed14620005ad578063f315df8614620005c4578063f39c38a014620005db578063fcd5189b14620005ef57600080fd5b8063d826f88f146200055d578063e07a3c981462000567578063e52253811462000571578063ed4355b8146200057b57600080fd5b8063bb6c07231162000108578063bb6c072314620004ca578063bdcf150814620004e6578063ca3e3c0314620004fd578063cad1b9061462000525578063d0e30db0146200055357600080fd5b8063ab033ea91462000441578063b1a997ac1462000458578063b1c6f0e9146200046f578063b9a09fd5146200049e57600080fd5b80637625391a11620001cb5780638d06051911620001965780638d06051914620003cd57806396c82e5714620003e45780639d63848a14620003ee5780639da882ac1462000407578063a7cac846146200041e57600080fd5b80637625391a146200037e5780637b66665314620003955780638283639114620003ac578063880f403914620003b657600080fd5b8063266f803a1162000218578063266f803a14620002d95780635aa6e67514620003055780636848c2bd14620003195780636a2385e814620003305780636f816a20146200036757600080fd5b80622f8de4146200024d57806303e9f23b14620002835780631f7b6d3214620002c4578063238efcbc14620002cd575b600080fd5b620002706200025e36600462001e8b565b600e6020526000908152604090205481565b6040519081526020015b60405180910390f35b620002ab7f000000000000000000000000000000000000000000000000000000000000000081565b6040516001600160a01b0390911681526020016200027a565b60075462000270565b620002d762000617565b005b620002ab620002ea36600462001e8b565b6009602052600090815260409020546001600160a01b031681565b600054620002ab906001600160a01b031681565b620002d76200032a36600462001e8b565b6200069b565b620003566200034136600462001e8b565b600f6020526000908152604090205460ff1681565b60405190151581526020016200027a565b620002d76200037836600462001ef8565b62000768565b620002d76200038f36600462001f6b565b6200082f565b620002d7620003a636600462001f8e565b62000acb565b620002d762000b9e565b620002d7620003c736600462001e8b565b62000d56565b620002d7620003de36600462001fc6565b62000da7565b6200027060035481565b620003f862000e6b565b6040516200027a919062001fe0565b620002d76200041836600462001e8b565b62000ecf565b620002706200042f36600462001e8b565b600a6020526000908152604090205481565b620002d76200045236600462001e8b565b6200101f565b620002d76200046936600462001e8b565b6200106e565b620002ab6200048036600462001e8b565b6001600160a01b039081166000908152600860205260409020541690565b620002ab620004af36600462001e8b565b6008602052600090815260409020546001600160a01b031681565b620002ab73958c0d0baa8f220846d3966742d4fb5edc5493d381565b620002d7620004f736600462001e8b565b620011dc565b620002ab7f000000000000000000000000000000000000000000000000000000000000000081565b620002706200053636600462001f8e565b600c60209081526000928352604080842090915290825290205481565b620002d7620012e4565b620002d7620014d8565b6200027061546081565b620002d7620014e5565b620002ab7f000000000000000000000000000000000000000000000000000000000000000081565b6200027060025481565b620002ab620005be3660046200202f565b62001601565b620002d7620005d536600462001e8b565b6200163a565b600154620002ab906001600160a01b031681565b620002ab7f000000000000000000000000000000000000000000000000000000000000000081565b6001546001600160a01b03163314620006775760405162461bcd60e51b815260206004820152601d60248201527f616363657074476f7665726e616e63653a202170656e64696e67476f7600000060448201526064015b60405180910390fd5b600154600080546001600160a01b0319166001600160a01b03909216919091179055565b6000546001600160a01b03163314620006c85760405162461bcd60e51b81526004016200066e906200205c565b6001600160a01b0381811660009081526008602052604090205416620007225760405162461bcd60e51b815260206004820152600e60248201526d191bd95cc81b9bdd08195e1a5cdd60921b60448201526064016200066e565b6001600160a01b039081166000908152600860208181526040808420805460098452919094208054919095166001600160a01b0319918216179094555280549091169055565b828114620007b95760405162461bcd60e51b815260206004820181905260248201527f7765696768742f746f6b656e766f7465206c656e677468206d69736d6174636860448201526064016200066e565b6200082933858580806020026020016040519081016040528093929190818152602001838360200280828437600092019190915250506040805160208089028281018201909352888252909350889250879182918501908490808284376000920191909152506200168892505050565b50505050565b336000908152600f602052604090205460ff16806200085857506000546001600160a01b031633145b620008775760405162461bcd60e51b81526004016200066e906200205c565b808210620008b55760405162461bcd60e51b815260206004820152600a6024820152691898590817dcdd185c9d60b21b60448201526064016200066e565b600754811115620008f45760405162461bcd60e51b81526020600482015260086024820152671898590817d95b9960c21b60448201526064016200066e565b426154606006546200090791906200209f565b1015620009465760405162461bcd60e51b815260206004820152600c60248201526b1b1bd8dac8195e1c1a5c995960a21b60448201526064016200066e565b60006005541180156200095b57506000600454115b1562000ac757815b8181101562000ac557600060078281548110620009845762000984620020ba565b60009182526020808320909101546001600160a01b0390811680845260088352604080852054600354600b9095529085205460055492965092169392620009d9929091620009d29162001911565b9062001926565b9050801562000aac5762000a196001600160a01b037f00000000000000000000000000000000000000000000000000000000000000001683600062001934565b62000a4f6001600160a01b037f000000000000000000000000000000000000000000000000000000000000000016838362001934565b604051633c6b16ab60e01b8152600481018290526001600160a01b03831690633c6b16ab90602401600060405180830381600087803b15801562000a9257600080fd5b505af115801562000aa7573d6000803e3d6000fd5b505050505b505050808062000abc90620020d0565b91505062000963565b505b5050565b6000546001600160a01b0316331462000af85760405162461bcd60e51b81526004016200066e906200205c565b6001600160a01b03818116600090815260086020526040902054161562000b335760405162461bcd60e51b81526004016200066e90620020ee565b6001600160a01b0390811660008181526008602052604081208054939094166001600160a01b0319938416179093556007805460018101825593527fa66cc928b5edb82af9bd49922954155ab7b0942694bea4ce44661d9a8736c68890920180549091169091179055565b336000908152600f602052604090205460ff168062000bc757506000546001600160a01b031633145b62000be65760405162461bcd60e51b81526004016200066e906200205c565b60035460045560005b60075481101562000ca757600a60006007838154811062000c145762000c14620020ba565b9060005260206000200160009054906101000a90046001600160a01b03166001600160a01b03166001600160a01b0316815260200190815260200160002054600b60006007848154811062000c6d5762000c6d620020ba565b60009182526020808320909101546001600160a01b031683528201929092526040019020558062000c9e81620020d0565b91505062000bef565b5062000cb2620014e5565b6040516370a0823160e01b81523060048201527f00000000000000000000000000000000000000000000000000000000000000006001600160a01b0316906370a082319060240160206040518083038186803b15801562000d1257600080fd5b505afa15801562000d27573d6000803e3d6000fd5b505050506040513d601f19601f8201168201806040525081019062000d4d91906200210e565b60055542600655565b6000546001600160a01b0316331462000d835760405162461bcd60e51b81526004016200066e9062002128565b6001600160a01b03166000908152600f60205260409020805460ff19166001179055565b6000546001600160a01b0316331462000dd45760405162461bcd60e51b81526004016200066e9062002128565b6002541562000e265760405162461bcd60e51b815260206004820152601860248201527f7069642068617320616c7265616479206265656e20736574000000000000000060448201526064016200066e565b6000811162000e665760405162461bcd60e51b815260206004820152600b60248201526a1a5b9d985b1a59081c1a5960aa1b60448201526064016200066e565b600255565b6060600780548060200260200160405190810160405280929190818152602001828054801562000ec557602002820191906000526020600020905b81546001600160a01b0316815260019091019060200180831162000ea6575b5050505050905090565b6000546001600160a01b0316331462000efc5760405162461bcd60e51b81526004016200066e906200205c565b6001600160a01b03818116600090815260086020526040902054161562000f375760405162461bcd60e51b81526004016200066e90620020ee565b60005460405182916001600160a01b0316907f00000000000000000000000000000000000000000000000000000000000000009062000f769062001e2b565b6001600160a01b03938416815291831660208301529091166040820152606001604051809103906000f08015801562000fb3573d6000803e3d6000fd5b506001600160a01b0391821660008181526008602052604081208054939094166001600160a01b0319938416179093556007805460018101825593527fa66cc928b5edb82af9bd49922954155ab7b0942694bea4ce44661d9a8736c68890920180549091169091179055565b6000546001600160a01b031633146200104c5760405162461bcd60e51b81526004016200066e9062002128565b600180546001600160a01b0319166001600160a01b0392909216919091179055565b6001600160a01b0381166000908152600d6020908152604080832080548251818502810185019093528083529192909190830182828015620010da57602002820191906000526020600020905b81546001600160a01b03168152600190910190602001808311620010bb575b5050505050905060008151905060008167ffffffffffffffff8111156200110557620011056200215f565b6040519080825280602002602001820160405280156200112f578160200160208202803683370190505b50905060005b82811015620011ce576001600160a01b0385166000908152600c602052604081208551909190869084908110620011705762001170620020ba565b60200260200101516001600160a01b03166001600160a01b0316815260200190815260200160002054828281518110620011ae57620011ae620020ba565b602090810291909101015280620011c581620020d0565b91505062001135565b506200082984848362001688565b6000546001600160a01b03163314620012095760405162461bcd60e51b81526004016200066e906200205c565b6001600160a01b038181166000908152600860205260409020541615620012445760405162461bcd60e51b81526004016200066e90620020ee565b6001600160a01b03818116600090815260096020526040902054166200129e5760405162461bcd60e51b815260206004820152600e60248201526d1b9bdd0819195c1c9958d85d195960921b60448201526064016200066e565b6001600160a01b039081166000908152600960208181526040808420805460088452919094208054919095166001600160a01b0319918216179094555280549091169055565b6000600254116200132e5760405162461bcd60e51b81526020600482015260136024820152721c1a59081b9bdd081a5b9a5d1a585b1a5e9959606a1b60448201526064016200066e565b6040516370a0823160e01b81523060048201526000907f00000000000000000000000000000000000000000000000000000000000000006001600160a01b0316906370a082319060240160206040518083038186803b1580156200139157600080fd5b505afa158015620013a6573d6000803e3d6000fd5b505050506040513d601f19601f82011682018060405250810190620013cc91906200210e565b9050620014196001600160a01b037f00000000000000000000000000000000000000000000000000000000000000001673958c0d0baa8f220846d3966742d4fb5edc5493d3600062001934565b620014636001600160a01b037f00000000000000000000000000000000000000000000000000000000000000001673958c0d0baa8f220846d3966742d4fb5edc5493d38362001934565b600254604051631c57762b60e31b815260048101919091526024810182905273958c0d0baa8f220846d3966742d4fb5edc5493d39063e2bbb15890604401600060405180830381600087803b158015620014bc57600080fd5b505af1158015620014d1573d6000803e3d6000fd5b5050505050565b620014e33362001a83565b565b6002546040516393f1a40b60e01b8152600481019190915230602482015260009073958c0d0baa8f220846d3966742d4fb5edc5493d3906393f1a40b90604401604080518083038186803b1580156200153d57600080fd5b505afa15801562001552573d6000803e3d6000fd5b505050506040513d601f19601f8201168201806040525081019062001578919062002175565b50600254604051630441a3e760e41b815291925073958c0d0baa8f220846d3966742d4fb5edc5493d39163441a3e7091620015c0918590600401918252602082015260400190565b600060405180830381600087803b158015620015db57600080fd5b505af1158015620015f0573d6000803e3d6000fd5b50505050620015fe620012e4565b50565b600d60205281600052604060002081815481106200161e57600080fd5b6000918252602090912001546001600160a01b03169150829050565b6000546001600160a01b03163314620016675760405162461bcd60e51b81526004016200066e9062002128565b6001600160a01b03166000908152600f60205260409020805460ff19169055565b620016938362001a83565b8151604051631776451f60e21b81526001600160a01b0385811660048301526000917f000000000000000000000000000000000000000000000000000000000000000090911690635dd9147c9060240160206040518083038186803b158015620016fc57600080fd5b505afa15801562001711573d6000803e3d6000fd5b505050506040513d601f19601f820116820180604052508101906200173791906200210e565b905060008060005b84811015620017905762001779868281518110620017615762001761620020ba565b60200260200101518462001ba490919063ffffffff16565b9250806200178781620020d0565b9150506200173f565b5060005b84811015620018ec576000878281518110620017b457620017b4620020ba565b6020908102919091018101516001600160a01b038082166000908152600890935260408320548a519294501691906200181c908790620009d2908a908d9089908110620018055762001805620020ba565b60200260200101516200191190919063ffffffff16565b90506001600160a01b03821615620018d3576200183a858262001ba4565b6003549095506200184c908262001ba4565b6003556001600160a01b0383166000908152600a602052604090205462001874908262001ba4565b6001600160a01b038085166000818152600a6020908152604080832095909555928f16808252600d845284822080546001810182559083528483200180546001600160a01b031916841790558152600c83528381209181529152208190555b5050508080620018e390620020d0565b91505062001794565b506001600160a01b039096166000908152600e60205260409020959095555050505050565b60006200191f82846200219a565b9392505050565b60006200191f8284620021bc565b801580620019c25750604051636eb1769f60e11b81523060048201526001600160a01b03838116602483015284169063dd62ed3e9060440160206040518083038186803b1580156200198557600080fd5b505afa1580156200199a573d6000803e3d6000fd5b505050506040513d601f19601f82011682018060405250810190620019c091906200210e565b155b62001a2f5760405162461bcd60e51b815260206004820152603660248201527f5361666545524332303a20617070726f76652066726f6d206e6f6e2d7a65726f60448201527520746f206e6f6e2d7a65726f20616c6c6f77616e636560501b60648201526084016200066e565b604080516001600160a01b038416602482015260448082018490528251808303909101815260649091019091526020810180516001600160e01b031663095ea7b360e01b17905262000ac590849062001bb2565b6001600160a01b0381166000908152600d60205260408120805490915b8181101562001b8057600083828154811062001ac05762001ac0620020ba565b60009182526020808320909101546001600160a01b038881168452600c8352604080852091909216808552925290912054909150801562001b685760035462001b0a908262001c8b565b6003556001600160a01b0382166000908152600a602052604090205462001b32908262001c8b565b6001600160a01b038084166000818152600a6020908152604080832095909555928a168152600c83528381209181529152908120555b5050808062001b7790620020d0565b91505062001aa0565b506001600160a01b0383166000908152600d6020526040812062000ac59162001e39565b60006200191f82846200209f565b600062001c09826040518060400160405280602081526020017f5361666545524332303a206c6f772d6c6576656c2063616c6c206661696c6564815250856001600160a01b031662001c999092919063ffffffff16565b80519091501562000ac5578080602001905181019062001c2a9190620021df565b62000ac55760405162461bcd60e51b815260206004820152602a60248201527f5361666545524332303a204552433230206f7065726174696f6e20646964206e6044820152691bdd081cdd58d8d9595960b21b60648201526084016200066e565b60006200191f828462002203565b606062001caa848460008562001cb2565b949350505050565b60608247101562001d155760405162461bcd60e51b815260206004820152602660248201527f416464726573733a20696e73756666696369656e742062616c616e636520666f6044820152651c8818d85b1b60d21b60648201526084016200066e565b6001600160a01b0385163b62001d6e5760405162461bcd60e51b815260206004820152601d60248201527f416464726573733a2063616c6c20746f206e6f6e2d636f6e747261637400000060448201526064016200066e565b600080866001600160a01b0316858760405162001d8c91906200224c565b60006040518083038185875af1925050503d806000811462001dcb576040519150601f19603f3d011682016040523d82523d6000602084013e62001dd0565b606091505b509150915062001de282828662001ded565b979650505050505050565b6060831562001dfe5750816200191f565b82511562001e0f5782518084602001fd5b8160405162461bcd60e51b81526004016200066e91906200226a565b61262480620022a083390190565b5080546000825590600052602060002090810190620015fe91905b8082111562001e6a576000815560010162001e54565b5090565b80356001600160a01b038116811462001e8657600080fd5b919050565b60006020828403121562001e9e57600080fd5b6200191f8262001e6e565b60008083601f84011262001ebc57600080fd5b50813567ffffffffffffffff81111562001ed557600080fd5b6020830191508360208260051b850101111562001ef157600080fd5b9250929050565b6000806000806040858703121562001f0f57600080fd5b843567ffffffffffffffff8082111562001f2857600080fd5b62001f368883890162001ea9565b9096509450602087013591508082111562001f5057600080fd5b5062001f5f8782880162001ea9565b95989497509550505050565b6000806040838503121562001f7f57600080fd5b50508035926020909101359150565b6000806040838503121562001fa257600080fd5b62001fad8362001e6e565b915062001fbd6020840162001e6e565b90509250929050565b60006020828403121562001fd957600080fd5b5035919050565b6020808252825182820181905260009190848201906040850190845b81811015620020235783516001600160a01b03168352928401929184019160010162001ffc565b50909695505050505050565b600080604083850312156200204357600080fd5b6200204e8362001e6e565b946020939093013593505050565b6020808252601390820152723ab730baba3437b934bd32b21039b2b73232b960691b604082015260600190565b634e487b7160e01b600052601160045260246000fd5b60008219821115620020b557620020b562002089565b500190565b634e487b7160e01b600052603260045260246000fd5b6000600019821415620020e757620020e762002089565b5060010190565b60208082526006908201526565786973747360d01b604082015260600190565b6000602082840312156200212157600080fd5b5051919050565b6020808252601f908201527f756e617574686f72697a65642073656e6465722028676f7665726e616e636500604082015260600190565b634e487b7160e01b600052604160045260246000fd5b600080604083850312156200218957600080fd5b505080516020909101519092909150565b6000816000190483118215151615620021b757620021b762002089565b500290565b600082620021da57634e487b7160e01b600052601260045260246000fd5b500490565b600060208284031215620021f257600080fd5b815180151581146200191f57600080fd5b60008282101562002218576200221862002089565b500390565b60005b838110156200223a57818101518382015260200162002220565b83811115620008295750506000910152565b60008251620022608184602087016200221d565b9190910192915050565b60208152600082518060208401526200228b8160408501602087016200221d565b601f01601f1916919091016040019291505056fe60c060405260006005553480156200001657600080fd5b506040516200262438038062002624833981016040819052620000399162000099565b60016002556001600160a01b0392831660a05260048054336001600160a01b031991821617909155600080549091169284169290921790915516608052620000e3565b80516001600160a01b03811681146200009457600080fd5b919050565b600080600060608486031215620000af57600080fd5b620000ba846200007c565b9250620000ca602085016200007c565b9150620000da604085016200007c565b90509250925092565b60805160a0516124f86200012c600039600081816104b70152818161145e01528181611b7a0152611e5601526000818161041b015281816112ef015261137101526124f86000f3fe608060405234801561001057600080fd5b50600436106102325760003560e01c8063853828b611610130578063ca1c9b75116100b8578063e70b9e271161007c578063e70b9e27146104fd578063e81a588414610528578063e9fad8ee1461053b578063ebe2b12b14610543578063f39c38a01461054c57600080fd5b8063ca1c9b751461049f578063cbdf382c146104b2578063d35e2544146104d9578063d7da4bb0146104ec578063de5f6268146104f557600080fd5b806396c55175116100ff57806396c551751461043d5780639ce43f9014610450578063ab033ea914610470578063b6b55f2514610483578063c8f33c911461049657600080fd5b8063853828b6146103e0578063874c120b146103e85780638b473ce8146103fb5780638ebdcfc61461041657600080fd5b80633c6f778c116101be57806363fb415b1161018257806363fb415b146103515780637035ab981461037157806370a082311461039c5780637bb7bed1146103c557806380faa57d146103d857600080fd5b80633c6f778c146102d85780633d3b2603146102e05780633e491d47146103005780635aa6e6751461031357806362b009d91461033e57600080fd5b80631c4b774b116102055780631c4b774b14610284578063238efcbc146102975780632e1a7d4d1461029f57806336efd16f146102b25780633c6b16ab146102c557600080fd5b80630e213a3d1461023757806318160ddd1461025d5780631be05289146102655780631c03e6cc1461026f575b600080fd5b61024a6102453660046121f5565b61055f565b6040519081526020015b60405180910390f35b600b5461024a565b61024a62093a8081565b61028261027d36600461222a565b6105b0565b005b6102826102923660046121f5565b61068f565b61028261098f565b6102826102ad3660046121f5565b610a0d565b6102826102c0366004612245565b610a19565b6102826102d33660046121f5565b610a6b565b60035461024a565b61024a6102ee36600461222a565b60066020526000908152604090205481565b61024a61030e366004612271565b610f58565b600054610326906001600160a01b031681565b6040516001600160a01b039091168152602001610254565b61028261034c36600461222a565b61104e565b61024a61035f36600461222a565b600e6020526000908152604090205481565b61024a61037f36600461229b565b600960209081526000928352604080842090915290825290205481565b61024a6103aa36600461222a565b6001600160a01b03166000908152600d602052604090205490565b6103266103d33660046121f5565b61109a565b61024a6110c4565b6102826110d7565b61024a6103f63660046121f5565b6110f2565b61032673cf8419a615c57511807236751c0af38db4ba335181565b6103267f000000000000000000000000000000000000000000000000000000000000000081565b61028261044b36600461222a565b6111ec565b61024a61045e36600461222a565b60076020526000908152604090205481565b61028261047e36600461222a565b611250565b6102826104913660046121f5565b61129c565b61024a60085481565b600454610326906001600160a01b031681565b6103267f000000000000000000000000000000000000000000000000000000000000000081565b61024a6104e736600461222a565b6112a6565b61024a600c5481565b610282611445565b61024a61050b36600461229b565b600a60209081526000928352604080842090915290825290205481565b6102826105363660046122c5565b6114e6565b61028261192a565b61024a60055481565b600154610326906001600160a01b031681565b60006105aa62093a80600660006003868154811061057f5761057f6122e7565b60009182526020808320909101546001600160a01b031683528201929092526040019020549061196b565b92915050565b6000546001600160a01b031633146105e35760405162461bcd60e51b81526004016105da906122fd565b60405180910390fd5b806001600160a01b0381163b6106335760405162461bcd60e51b815260206004820152601560248201527411d85d59d94e881b9bdd08184818dbdb9d1c9858dd605a1b60448201526064016105da565b5060038054600181019091557fc2575a0e9e593c00f959f8c92f12db2869c3395a3b0502d05e2516446f71f85b0180546001600160a01b039092166001600160a01b031990921682179055600090815260066020526040812055565b6002805414156106b15760405162461bcd60e51b81526004016105da90612334565b600280553360005b600354811015610821576106cc816110f2565b60076000600384815481106106e3576106e36122e7565b60009182526020808320909101546001600160a01b031683528201929092526040019020556107106110c4565b6008556001600160a01b0382161561080f5761072c8282610f58565b6001600160a01b0383166000908152600a60205260408120600380549192918590811061075b5761075b6122e7565b60009182526020808320909101546001600160a01b031683528201929092526040018120919091556003805460079291908490811061079c5761079c6122e7565b60009182526020808320909101546001600160a01b03908116845283820194909452604092830182205493861682526009905290812060038054919291859081106107e9576107e96122e7565b60009182526020808320909101546001600160a01b031683528201929092526040019020555b8061081981612381565b9150506106b9565b50336000908152600a602052604081206003805483919086908110610848576108486122e7565b60009182526020808320909101546001600160a01b031683528201929092526040019020549050801561096d576108a933826003868154811061088d5761088d6122e7565b6000918252602090912001546001600160a01b03169190611977565b336000908152600a6020526040812060038054839190879081106108cf576108cf6122e7565b60009182526020808320909101546001600160a01b031683528201929092526040019020556003805433917f8e0d3fa908fd7ee819155b3ce71e292b601bbeb0cd00d7758b9d226a523cb827918491908790811061092f5761092f6122e7565b60009182526020909120015460405161096492916001600160a01b0316909182526001600160a01b0316602082015260400190565b60405180910390a25b506001600160a01b0381161561098657610986816111ec565b50506001600255565b6001546001600160a01b031633146109e95760405162461bcd60e51b815260206004820152601d60248201527f616363657074476f7665726e616e63653a202170656e64696e67476f7600000060448201526064016105da565b600154600080546001600160a01b0319166001600160a01b03909216919091179055565b610a16816119da565b50565b6001600160a01b038116301415610a5d5760405162461bcd60e51b8152602060048201526008602482015267085858d8dbdd5b9d60c21b60448201526064016105da565b610a678282611c75565b5050565b6004546001600160a01b03163314610ac55760405162461bcd60e51b815260206004820181905260248201527f47617567653a206e6f7420646973747269627574696f6e20636f6e747261637460448201526064016105da565b6000805b600354811015610c3157610adc816110f2565b6007600060038481548110610af357610af36122e7565b60009182526020808320909101546001600160a01b03168352820192909252604001902055610b206110c4565b6008556001600160a01b03821615610c1f57610b3c8282610f58565b6001600160a01b0383166000908152600a602052604081206003805491929185908110610b6b57610b6b6122e7565b60009182526020808320909101546001600160a01b0316835282019290925260400181209190915560038054600792919084908110610bac57610bac6122e7565b60009182526020808320909101546001600160a01b0390811684528382019490945260409283018220549386168252600990529081206003805491929185908110610bf957610bf96122e7565b60009182526020808320909101546001600160a01b031683528201929092526040019020555b80610c2981612381565b915050610ac9565b5060045460038054610c78926001600160a01b0316913091869190600090610c5b57610c5b6122e7565b6000918252602090912001546001600160a01b0316929190611f2a565b6005544210610cd057610c8e8262093a80611f68565b600660006003600081548110610ca657610ca66122e7565b60009182526020808320909101546001600160a01b03168352820192909252604001902055610d84565b600554600090610ce09042611f74565b90506000610d2b600660006003600081548110610cff57610cff6122e7565b60009182526020808320909101546001600160a01b03168352820192909252604001902054839061196b565b9050610d4462093a80610d3e8684611f80565b90611f68565b600660006003600081548110610d5c57610d5c6122e7565b60009182526020808320909101546001600160a01b0316835282019290925260400190205550505b60006003600081548110610d9a57610d9a6122e7565b6000918252602090912001546040516370a0823160e01b81523060048201526001600160a01b03909116906370a082319060240160206040518083038186803b158015610de657600080fd5b505afa158015610dfa573d6000803e3d6000fd5b505050506040513d601f19601f82011682018060405250810190610e1e919061239c565b9050610e2d8162093a80611f68565b600660006003600081548110610e4557610e456122e7565b60009182526020808320909101546001600160a01b031683528201929092526040019020541115610eb35760405162461bcd60e51b81526020600482015260186024820152770a0e4deecd2c8cac840e4caeec2e4c840e8dede40d0d2ced60431b60448201526064016105da565b426008819055610ec69062093a80611f80565b6005819055507ffb5edb6eb340a01f6a67189edc978df97841c43752c212fc85995ea230017635836003600081548110610f0257610f026122e7565b600091825260209091200154604051610f3792916001600160a01b0316909182526001600160a01b0316602082015260400190565b60405180910390a1506001600160a01b03811615610a6757610a67816111ec565b6001600160a01b0382166000908152600a60205260408120600380546110479291849186908110610f8b57610f8b6122e7565b60009182526020808320909101546001600160a01b0390811684528382019490945260409283018220549388168252600990529081206003805461104193670de0b6b3a764000093610d3e93611022939192918b908110610fee57610fee6122e7565b60009182526020808320909101546001600160a01b0316835282019290925260400190205461101c896110f2565b90611f74565b6001600160a01b0389166000908152600e60205260409020549061196b565b90611f80565b9392505050565b6000546001600160a01b031633146110785760405162461bcd60e51b81526004016105da906122fd565b600480546001600160a01b0319166001600160a01b0392909216919091179055565b600381815481106110aa57600080fd5b6000918252602090912001546001600160a01b0316905081565b60006110d242600554611f8c565b905090565b336000908152600d60205260409020546110f0906119da565b565b6000600b5460001415611141576007600060038481548110611116576111166122e7565b60009182526020808320909101546001600160a01b0316835282019290925260400190205492915050565b6105aa6111aa600c54610d3e670de0b6b3a76400006111a46006600060038a81548110611170576111706122e7565b60009182526020808320909101546001600160a01b031683528201929092526040019020546008546111a49061101c6110c4565b9061196b565b60076000600386815481106111c1576111c16122e7565b60009182526020808320909101546001600160a01b0316835282019290925260400190205490611f80565b6001600160a01b0381166000908152600e6020526040902054600c546112129082611f74565b600c5561121e826112a6565b6001600160a01b0383166000908152600e60205260409020819055600c549091506112499082611f80565b600c555050565b6000546001600160a01b0316331461127a5760405162461bcd60e51b81526004016105da906122fd565b600180546001600160a01b0319166001600160a01b0392909216919091179055565b610a168133611c75565b6001600160a01b0381166000908152600d6020526040812054806112cd5750600092915050565b604051639869e13760e01b81526001600160a01b0384811660048301526000917f000000000000000000000000000000000000000000000000000000000000000090911690639869e1379060240160206040518083038186803b15801561133357600080fd5b505afa158015611347573d6000803e3d6000fd5b505050506040513d601f19601f8201168201806040525081019061136b919061239c565b905060007f00000000000000000000000000000000000000000000000000000000000000006001600160a01b031663e7812b7f6040518163ffffffff1660e01b815260040160206040518083038186803b1580156113c857600080fd5b505afa1580156113dc573d6000803e3d6000fd5b505050506040513d601f19601f82011682018060405250810190611400919061239c565b9050600081156114265761142382610d3e85600b5461196b90919063ffffffff16565b90505b8361143182826123b5565b61143b91906123cd565b9695505050505050565b6040516370a0823160e01b81523360048201526110f0907f00000000000000000000000000000000000000000000000000000000000000006001600160a01b0316906370a082319060240160206040518083038186803b1580156114a857600080fd5b505afa1580156114bc573d6000803e3d6000fd5b505050506040513d601f19601f820116820180604052508101906114e0919061239c565b33611c75565b6000805b600354811015611652576114fd816110f2565b6007600060038481548110611514576115146122e7565b60009182526020808320909101546001600160a01b031683528201929092526040019020556115416110c4565b6008556001600160a01b038216156116405761155d8282610f58565b6001600160a01b0383166000908152600a60205260408120600380549192918590811061158c5761158c6122e7565b60009182526020808320909101546001600160a01b03168352820192909252604001812091909155600380546007929190849081106115cd576115cd6122e7565b60009182526020808320909101546001600160a01b039081168452838201949094526040928301822054938616825260099052908120600380549192918590811061161a5761161a6122e7565b60009182526020808320909101546001600160a01b031683528201929092526040019020555b8061164a81612381565b9150506114ea565b506004546003805461167d926001600160a01b031691309187919087908110610c5b57610c5b6122e7565b60055442106116d4576116938362093a80611f68565b60066000600385815481106116aa576116aa6122e7565b60009182526020808320909101546001600160a01b03168352820192909252604001902055611754565b6005546000906116e49042611f74565b905060006117026006600060038781548110610cff57610cff6122e7565b905061171562093a80610d3e8784611f80565b600660006003878154811061172c5761172c6122e7565b60009182526020808320909101546001600160a01b0316835282019290925260400190205550505b600060038381548110611769576117696122e7565b6000918252602090912001546040516370a0823160e01b81523060048201526001600160a01b03909116906370a082319060240160206040518083038186803b1580156117b557600080fd5b505afa1580156117c9573d6000803e3d6000fd5b505050506040513d601f19601f820116820180604052508101906117ed919061239c565b90506117fc8162093a80611f68565b6006600060038681548110611813576118136122e7565b60009182526020808320909101546001600160a01b0316835282019290925260400190205411156118815760405162461bcd60e51b81526020600482015260186024820152770a0e4deecd2c8cac840e4caeec2e4c840e8dede40d0d2ced60431b60448201526064016105da565b4260088190556118949062093a80611f80565b6005819055507ffb5edb6eb340a01f6a67189edc978df97841c43752c212fc85995ea23001763584600385815481106118cf576118cf6122e7565b60009182526020909120015460405161190492916001600160a01b0316909182526001600160a01b0316602082015260400190565b60405180910390a1506001600160a01b0381161561192557611925816111ec565b505050565b336000908152600d6020526040902054611943906119da565b60005b600354811015610a16576119598161068f565b8061196381612381565b915050611946565b600061104782846123ef565b6040516001600160a01b03831660248201526044810182905261192590849063a9059cbb60e01b906064015b60408051601f198184030181529190526020810180516001600160e01b03166001600160e01b031990931692909217909152611fa2565b6002805414156119fc5760405162461bcd60e51b81526004016105da90612334565b600280553360005b600354811015611b6c57611a17816110f2565b6007600060038481548110611a2e57611a2e6122e7565b60009182526020808320909101546001600160a01b03168352820192909252604001902055611a5b6110c4565b6008556001600160a01b03821615611b5a57611a778282610f58565b6001600160a01b0383166000908152600a602052604081206003805491929185908110611aa657611aa66122e7565b60009182526020808320909101546001600160a01b0316835282019290925260400181209190915560038054600792919084908110611ae757611ae76122e7565b60009182526020808320909101546001600160a01b0390811684528382019490945260409283018220549386168252600990529081206003805491929185908110611b3457611b346122e7565b60009182526020808320909101546001600160a01b031683528201929092526040019020555b80611b6481612381565b915050611a04565b50611ba16001600160a01b037f0000000000000000000000000000000000000000000000000000000000000000163384611977565b60008211611be55760405162461bcd60e51b8152602060048201526011602482015270043616e6e6f74207769746864726177203607c1b60448201526064016105da565b600b54611bf29083611f74565b600b55336000908152600d6020526040902054611c0f9083611f74565b336000818152600d6020526040908190209290925590517f7084f5476618d8e60b11ef0d7d3f06914655adb8793e28ff7f018d4c76d505d590611c559085815260200190565b60405180910390a26001600160a01b0381161561098657610986816111ec565b600280541415611c975760405162461bcd60e51b81526004016105da90612334565b600280558060005b600354811015611e0757611cb2816110f2565b6007600060038481548110611cc957611cc96122e7565b60009182526020808320909101546001600160a01b03168352820192909252604001902055611cf66110c4565b6008556001600160a01b03821615611df557611d128282610f58565b6001600160a01b0383166000908152600a602052604081206003805491929185908110611d4157611d416122e7565b60009182526020808320909101546001600160a01b0316835282019290925260400181209190915560038054600792919084908110611d8257611d826122e7565b60009182526020808320909101546001600160a01b0390811684528382019490945260409283018220549386168252600990529081206003805491929185908110611dcf57611dcf6122e7565b60009182526020808320909101546001600160a01b031683528201929092526040019020555b80611dff81612381565b915050611c9f565b5060008311611e495760405162461bcd60e51b815260206004820152600e60248201526d043616e6e6f74207374616b6520360941b60448201526064016105da565b611e7e6001600160a01b037f000000000000000000000000000000000000000000000000000000000000000016833086611f2a565b600b54611e8b9084611f80565b600b556001600160a01b0382166000908152600d6020526040902054611eb19084611f80565b6001600160a01b0383166000818152600d6020526040908190209290925590517f9e71bc8eea02a63969f509818f2dafb9254532904319f9dbda79b67bd34a5f3d90611f009086815260200190565b60405180910390a26001600160a01b03811615611f2057611f20816111ec565b5050600160025550565b6040516001600160a01b0380851660248301528316604482015260648101829052611f629085906323b872dd60e01b906084016119a3565b50505050565b600061104782846123cd565b6000611047828461240e565b600061104782846123b5565b6000818310611f9b5781611047565b5090919050565b6000611ff7826040518060400160405280602081526020017f5361666545524332303a206c6f772d6c6576656c2063616c6c206661696c6564815250856001600160a01b03166120749092919063ffffffff16565b80519091501561192557808060200190518101906120159190612425565b6119255760405162461bcd60e51b815260206004820152602a60248201527f5361666545524332303a204552433230206f7065726174696f6e20646964206e6044820152691bdd081cdd58d8d9595960b21b60648201526084016105da565b6060612083848460008561208b565b949350505050565b6060824710156120ec5760405162461bcd60e51b815260206004820152602660248201527f416464726573733a20696e73756666696369656e742062616c616e636520666f6044820152651c8818d85b1b60d21b60648201526084016105da565b6001600160a01b0385163b6121435760405162461bcd60e51b815260206004820152601d60248201527f416464726573733a2063616c6c20746f206e6f6e2d636f6e747261637400000060448201526064016105da565b600080866001600160a01b0316858760405161215f9190612473565b60006040518083038185875af1925050503d806000811461219c576040519150601f19603f3d011682016040523d82523d6000602084013e6121a1565b606091505b50915091506121b18282866121bc565b979650505050505050565b606083156121cb575081611047565b8251156121db5782518084602001fd5b8160405162461bcd60e51b81526004016105da919061248f565b60006020828403121561220757600080fd5b5035919050565b80356001600160a01b038116811461222557600080fd5b919050565b60006020828403121561223c57600080fd5b6110478261220e565b6000806040838503121561225857600080fd5b823591506122686020840161220e565b90509250929050565b6000806040838503121561228457600080fd5b61228d8361220e565b946020939093013593505050565b600080604083850312156122ae57600080fd5b6122b78361220e565b91506122686020840161220e565b600080604083850312156122d857600080fd5b50508035926020909101359150565b634e487b7160e01b600052603260045260246000fd5b6020808252601f908201527f756e617574686f72697a65642073656e6465722028676f7665726e616e636500604082015260600190565b6020808252601f908201527f5265656e7472616e637947756172643a207265656e7472616e742063616c6c00604082015260600190565b634e487b7160e01b600052601160045260246000fd5b60006000198214156123955761239561236b565b5060010190565b6000602082840312156123ae57600080fd5b5051919050565b600082198211156123c8576123c861236b565b500190565b6000826123ea57634e487b7160e01b600052601260045260246000fd5b500490565b60008160001904831182151516156124095761240961236b565b500290565b6000828210156124205761242061236b565b500390565b60006020828403121561243757600080fd5b8151801515811461104757600080fd5b60005b8381101561246257818101518382015260200161244a565b83811115611f625750506000910152565b60008251612485818460208701612447565b9190910192915050565b60208152600082518060208401526124ae816040850160208701612447565b601f01601f1916919091016040019291505056fea2646970667358221220e7c195089a7c6bcbffe627047c36587c5b22242c74351b92e55488282f582e2e64736f6c63430008090033a264697066735822122029ab76b7c1d1547c897648ab2ade6c539edbc13a77f581a679e53b0ba0e2aa3264736f6c6343000809003360806040523480156200001157600080fd5b506040518060400160405280600f81526020016e20bc34b0b6223ab6b6bcaa37b5b2b760891b8152506040518060400160405280600381526020016210561160ea1b81525081600390805190602001906200006e9291906200018f565b508051620000849060049060208401906200018f565b505050620000a133670de0b6b3a7640000620000a760201b60201c565b62000299565b6001600160a01b038216620001025760405162461bcd60e51b815260206004820152601f60248201527f45524332303a206d696e7420746f20746865207a65726f206164647265737300604482015260640160405180910390fd5b806002600082825462000116919062000235565b90915550506001600160a01b038216600090815260208190526040812080548392906200014590849062000235565b90915550506040518181526001600160a01b038316906000907fddf252ad1be2c89b69c2b068fc378daa952ba7f163c4a11628f55a4df523b3ef9060200160405180910390a35050565b8280546200019d906200025c565b90600052602060002090601f016020900481019282620001c157600085556200020c565b82601f10620001dc57805160ff19168380011785556200020c565b828001600101855582156200020c579182015b828111156200020c578251825591602001919060010190620001ef565b506200021a9291506200021e565b5090565b5b808211156200021a57600081556001016200021f565b600082198211156200025757634e487b7160e01b600052601160045260246000fd5b500190565b600181811c908216806200027157607f821691505b602082108114156200029357634e487b7160e01b600052602260045260246000fd5b50919050565b6108ce80620002a96000396000f3fe608060405234801561001057600080fd5b50600436106100a95760003560e01c80633950935111610071578063395093511461012357806370a082311461013657806395d89b411461015f578063a457c2d714610167578063a9059cbb1461017a578063dd62ed3e1461018d57600080fd5b806306fdde03146100ae578063095ea7b3146100cc57806318160ddd146100ef57806323b872dd14610101578063313ce56714610114575b600080fd5b6100b66101c6565b6040516100c3919061070b565b60405180910390f35b6100df6100da36600461077c565b610258565b60405190151581526020016100c3565b6002545b6040519081526020016100c3565b6100df61010f3660046107a6565b610270565b604051601281526020016100c3565b6100df61013136600461077c565b610294565b6100f36101443660046107e2565b6001600160a01b031660009081526020819052604090205490565b6100b66102d3565b6100df61017536600461077c565b6102e2565b6100df61018836600461077c565b610379565b6100f361019b366004610804565b6001600160a01b03918216600090815260016020908152604080832093909416825291909152205490565b6060600380546101d590610837565b80601f016020809104026020016040519081016040528092919081815260200182805461020190610837565b801561024e5780601f106102235761010080835404028352916020019161024e565b820191906000526020600020905b81548152906001019060200180831161023157829003601f168201915b5050505050905090565b600033610266818585610387565b5060019392505050565b60003361027e8582856104ab565b61028985858561053d565b506001949350505050565b3360008181526001602090815260408083206001600160a01b038716845290915281205490919061026690829086906102ce908790610872565b610387565b6060600480546101d590610837565b3360008181526001602090815260408083206001600160a01b03871684529091528120549091908381101561036c5760405162461bcd60e51b815260206004820152602560248201527f45524332303a2064656372656173656420616c6c6f77616e63652062656c6f77604482015264207a65726f60d81b60648201526084015b60405180910390fd5b6102898286868403610387565b60003361026681858561053d565b6001600160a01b0383166103e95760405162461bcd60e51b8152602060048201526024808201527f45524332303a20617070726f76652066726f6d20746865207a65726f206164646044820152637265737360e01b6064820152608401610363565b6001600160a01b03821661044a5760405162461bcd60e51b815260206004820152602260248201527f45524332303a20617070726f766520746f20746865207a65726f206164647265604482015261737360f01b6064820152608401610363565b6001600160a01b0383811660008181526001602090815260408083209487168084529482529182902085905590518481527f8c5be1e5ebec7d5bd14f71427d1e84f3dd0314c0f7b2291e5b200ac8c7c3b925910160405180910390a3505050565b6001600160a01b038381166000908152600160209081526040808320938616835292905220546000198114610537578181101561052a5760405162461bcd60e51b815260206004820152601d60248201527f45524332303a20696e73756666696369656e7420616c6c6f77616e63650000006044820152606401610363565b6105378484848403610387565b50505050565b6001600160a01b0383166105a15760405162461bcd60e51b815260206004820152602560248201527f45524332303a207472616e736665722066726f6d20746865207a65726f206164604482015264647265737360d81b6064820152608401610363565b6001600160a01b0382166106035760405162461bcd60e51b815260206004820152602360248201527f45524332303a207472616e7366657220746f20746865207a65726f206164647260448201526265737360e81b6064820152608401610363565b6001600160a01b0383166000908152602081905260409020548181101561067b5760405162461bcd60e51b815260206004820152602660248201527f45524332303a207472616e7366657220616d6f756e7420657863656564732062604482015265616c616e636560d01b6064820152608401610363565b6001600160a01b038085166000908152602081905260408082208585039055918516815290812080548492906106b2908490610872565b92505081905550826001600160a01b0316846001600160a01b03167fddf252ad1be2c89b69c2b068fc378daa952ba7f163c4a11628f55a4df523b3ef846040516106fe91815260200190565b60405180910390a3610537565b600060208083528351808285015260005b818110156107385785810183015185820160400152820161071c565b8181111561074a576000604083870101525b50601f01601f1916929092016040019392505050565b80356001600160a01b038116811461077757600080fd5b919050565b6000806040838503121561078f57600080fd5b61079883610760565b946020939093013593505050565b6000806000606084860312156107bb57600080fd5b6107c484610760565b92506107d260208501610760565b9150604084013590509250925092565b6000602082840312156107f457600080fd5b6107fd82610760565b9392505050565b6000806040838503121561081757600080fd5b61082083610760565b915061082e60208401610760565b90509250929050565b600181811c9082168061084b57607f821691505b6020821081141561086c57634e487b7160e01b600052602260045260246000fd5b50919050565b6000821982111561089357634e487b7160e01b600052601160045260246000fd5b50019056fea2646970667358221220dc21b4441b38c938fc91a0f4795af36f7984042d25b03882234d90ca5fb6b60b64736f6c63430008090033",
  "devdoc": {
    "kind": "dev",
    "methods": {
      "addDeployer(address)": {
        "details": "deployers can call distribute function"
      },
      "setGovernance(address)": {
        "params": {
          "_governance": "new governance address to set"
        }
      },
      "vote(address[],uint256[])": {
        "params": {
          "_tokenVote": ": the array of tokens which will recieve tokens",
          "_weights": ": the weights to associate with the tokens listed in _tokenVote"
        }
      }
    },
    "stateVariables": {
      "deprecated": {
        "details": "token => gauge"
      },
      "gauges": {
        "details": "token -> gauge"
      },
      "lockedWeights": {
        "details": "token => weight"
      },
      "tokenVote": {
        "details": "msg.sender => token"
      },
      "usedWeights": {
        "details": "msg.sender => total voting weight of user"
      },
      "veAxial": {
        "details": "This could be an address instead, as we do not use it other than passing the address to the Gauge constructor"
      },
      "votes": {
        "details": "msg.sender => token => votes"
      },
      "weights": {
        "details": "token => weight"
      }
    },
    "version": 1
  },
  "userdoc": {
    "kind": "user",
    "methods": {
      "Axial()": {
        "notice": "the Axial token contraxt"
      },
      "DISTRIBUTION_DEADLINE()": {
        "notice": "max time allowed to pass before distribution (6 hours)"
      },
      "MCAV3()": {
        "notice": "Master Chef Axial V3 contract"
      },
      "acceptGovernance()": {
        "notice": "Allows pendingGovernance to accept their role as governance (protection pattern)"
      },
      "addDeployer(address)": {
        "notice": "adds the specified address to the list of deployers"
      },
      "addGauge(address)": {
        "notice": "Add new token gauge"
      },
      "axialDummyToken()": {
        "notice": "dummy token required for masterchef deposits and withdrawals"
      },
      "collect()": {
        "notice": "Collects AXIAL from MCAV3 for distribution"
      },
      "deposit()": {
        "notice": "Deposits Axial dummy token into MCAV3"
      },
      "deprecateGauge(address)": {
        "notice": "Deprecate existing gauge"
      },
      "distribute(uint256,uint256)": {
        "notice": "Distribute tokens to gauges"
      },
      "getGauge(address)": {
        "notice": "returns the gauge for the specifi(AccruingStake)"
      },
      "governance()": {
        "notice": "address of the governance contract"
      },
      "length()": {
        "notice": "returns the number of tokens currently being voted on"
      },
      "migrateGauge(address,address)": {
        "notice": "Add existing gauge"
      },
      "poke(address)": {
        "notice": "Adjust _owner's votes according to latest _owner's SAXIAL balance"
      },
      "preDistribute()": {
        "notice": "collect AXIAL and update lock information"
      },
      "removeDeployer(address)": {
        "notice": "removes the specified address from the list of deployers"
      },
      "renewGauge(address)": {
        "notice": "Bring Deprecated gauge back into use"
      },
      "reset()": {
        "notice": "Reset votes of msg.sender to 0"
      },
      "sAxial()": {
        "notice": "token for voting on Axial distribution to pools - SAXIAL"
      },
      "setGovernance(address)": {
        "notice": "Allows governance to change governance (for future upgradability)"
      },
      "setPID(uint256)": {
        "notice": "Sets MCAV3 PID"
      },
      "tokens()": {
        "notice": "returns the list of tokens that are currently being voted on"
      },
      "veAxial()": {
        "notice": "token to allow boosting rewards - VEAXIAL"
      },
      "vote(address[],uint256[])": {
        "notice": "Vote with SAXIAL on a gauge, removing any previous votes"
      }
    },
    "version": 1
  },
  "storageLayout": {
    "storage": [
      {
        "astId": 6333,
        "contract": "contracts/GaugeProxy.sol:GaugeProxy",
        "label": "governance",
        "offset": 0,
        "slot": "0",
        "type": "t_address"
      },
      {
        "astId": 6335,
        "contract": "contracts/GaugeProxy.sol:GaugeProxy",
        "label": "pendingGovernance",
        "offset": 0,
        "slot": "1",
        "type": "t_address"
      },
      {
        "astId": 3462,
        "contract": "contracts/GaugeProxy.sol:GaugeProxy",
        "label": "pid",
        "offset": 0,
        "slot": "2",
        "type": "t_uint256"
      },
      {
        "astId": 3464,
        "contract": "contracts/GaugeProxy.sol:GaugeProxy",
        "label": "totalWeight",
        "offset": 0,
        "slot": "3",
        "type": "t_uint256"
      },
      {
        "astId": 3466,
        "contract": "contracts/GaugeProxy.sol:GaugeProxy",
        "label": "lockedTotalWeight",
        "offset": 0,
        "slot": "4",
        "type": "t_uint256"
      },
      {
        "astId": 3468,
        "contract": "contracts/GaugeProxy.sol:GaugeProxy",
        "label": "lockedBalance",
        "offset": 0,
        "slot": "5",
        "type": "t_uint256"
      },
      {
        "astId": 3470,
        "contract": "contracts/GaugeProxy.sol:GaugeProxy",
        "label": "locktime",
        "offset": 0,
        "slot": "6",
        "type": "t_uint256"
      },
      {
        "astId": 3473,
        "contract": "contracts/GaugeProxy.sol:GaugeProxy",
        "label": "_tokens",
        "offset": 0,
        "slot": "7",
        "type": "t_array(t_address)dyn_storage"
      },
      {
        "astId": 3478,
        "contract": "contracts/GaugeProxy.sol:GaugeProxy",
        "label": "gauges",
        "offset": 0,
        "slot": "8",
        "type": "t_mapping(t_address,t_address)"
      },
      {
        "astId": 3483,
        "contract": "contracts/GaugeProxy.sol:GaugeProxy",
        "label": "deprecated",
        "offset": 0,
        "slot": "9",
        "type": "t_mapping(t_address,t_address)"
      },
      {
        "astId": 3488,
        "contract": "contracts/GaugeProxy.sol:GaugeProxy",
        "label": "weights",
        "offset": 0,
        "slot": "10",
        "type": "t_mapping(t_address,t_uint256)"
      },
      {
        "astId": 3493,
        "contract": "contracts/GaugeProxy.sol:GaugeProxy",
        "label": "lockedWeights",
        "offset": 0,
        "slot": "11",
        "type": "t_mapping(t_address,t_uint256)"
      },
      {
        "astId": 3500,
        "contract": "contracts/GaugeProxy.sol:GaugeProxy",
        "label": "votes",
        "offset": 0,
        "slot": "12",
        "type": "t_mapping(t_address,t_mapping(t_address,t_uint256))"
      },
      {
        "astId": 3506,
        "contract": "contracts/GaugeProxy.sol:GaugeProxy",
        "label": "tokenVote",
        "offset": 0,
        "slot": "13",
        "type": "t_mapping(t_address,t_array(t_address)dyn_storage)"
      },
      {
        "astId": 3511,
        "contract": "contracts/GaugeProxy.sol:GaugeProxy",
        "label": "usedWeights",
        "offset": 0,
        "slot": "14",
        "type": "t_mapping(t_address,t_uint256)"
      },
      {
        "astId": 3515,
        "contract": "contracts/GaugeProxy.sol:GaugeProxy",
        "label": "deployers",
        "offset": 0,
        "slot": "15",
        "type": "t_mapping(t_address,t_bool)"
      }
    ],
    "types": {
      "t_address": {
        "encoding": "inplace",
        "label": "address",
        "numberOfBytes": "20"
      },
      "t_array(t_address)dyn_storage": {
        "base": "t_address",
        "encoding": "dynamic_array",
        "label": "address[]",
        "numberOfBytes": "32"
      },
      "t_bool": {
        "encoding": "inplace",
        "label": "bool",
        "numberOfBytes": "1"
      },
      "t_mapping(t_address,t_address)": {
        "encoding": "mapping",
        "key": "t_address",
        "label": "mapping(address => address)",
        "numberOfBytes": "32",
        "value": "t_address"
      },
      "t_mapping(t_address,t_array(t_address)dyn_storage)": {
        "encoding": "mapping",
        "key": "t_address",
        "label": "mapping(address => address[])",
        "numberOfBytes": "32",
        "value": "t_array(t_address)dyn_storage"
      },
      "t_mapping(t_address,t_bool)": {
        "encoding": "mapping",
        "key": "t_address",
        "label": "mapping(address => bool)",
        "numberOfBytes": "32",
        "value": "t_bool"
      },
      "t_mapping(t_address,t_mapping(t_address,t_uint256))": {
        "encoding": "mapping",
        "key": "t_address",
        "label": "mapping(address => mapping(address => uint256))",
        "numberOfBytes": "32",
        "value": "t_mapping(t_address,t_uint256)"
      },
      "t_mapping(t_address,t_uint256)": {
        "encoding": "mapping",
        "key": "t_address",
        "label": "mapping(address => uint256)",
        "numberOfBytes": "32",
        "value": "t_uint256"
      },
      "t_uint256": {
        "encoding": "inplace",
        "label": "uint256",
        "numberOfBytes": "32"
      }
    }
  }
}