{
  "address": "0x8002A95FccdACa78A9F523Ec75765ec3EDB4ccD8",
  "abi": [
    {
      "inputs": [
        {
          "internalType": "address",
          "name": "_governance",
          "type": "address"
        },
        {
          "internalType": "address",
          "name": "_axial",
          "type": "address"
        },
        {
          "internalType": "address",
          "name": "_saxial",
          "type": "address"
        },
        {
          "internalType": "address",
          "name": "_veaxial",
          "type": "address"
        }
      ],
      "stateMutability": "nonpayable",
      "type": "constructor"
    },
    {
      "inputs": [],
      "name": "Axial",
      "outputs": [
        {
          "internalType": "contract IERC20",
          "name": "",
          "type": "address"
        }
      ],
      "stateMutability": "view",
      "type": "function"
    },
    {
      "inputs": [],
      "name": "DISTRIBUTION_DEADLINE",
      "outputs": [
        {
          "internalType": "uint256",
          "name": "",
          "type": "uint256"
        }
      ],
      "stateMutability": "view",
      "type": "function"
    },
    {
      "inputs": [],
      "name": "DUMMY_VAR",
      "outputs": [
        {
          "internalType": "uint256",
          "name": "",
          "type": "uint256"
        }
      ],
      "stateMutability": "view",
      "type": "function"
    },
    {
      "inputs": [],
      "name": "MCAV3",
      "outputs": [
        {
          "internalType": "contract IMasterChefAxialV3",
          "name": "",
          "type": "address"
        }
      ],
      "stateMutability": "view",
      "type": "function"
    },
    {
      "inputs": [],
      "name": "UINT256_MAX",
      "outputs": [
        {
          "internalType": "uint256",
          "name": "",
          "type": "uint256"
        }
      ],
      "stateMutability": "view",
      "type": "function"
    },
    {
      "inputs": [],
      "name": "acceptGovernance",
      "outputs": [],
      "stateMutability": "nonpayable",
      "type": "function"
    },
    {
      "inputs": [
        {
          "internalType": "address",
          "name": "_deployer",
          "type": "address"
        }
      ],
      "name": "addDeployer",
      "outputs": [],
      "stateMutability": "nonpayable",
      "type": "function"
    },
    {
      "inputs": [
        {
          "internalType": "address",
          "name": "_token",
          "type": "address"
        }
      ],
      "name": "addGauge",
      "outputs": [],
      "stateMutability": "nonpayable",
      "type": "function"
    },
    {
      "inputs": [],
      "name": "axialDummyToken",
      "outputs": [
        {
          "internalType": "contract IERC20",
          "name": "",
          "type": "address"
        }
      ],
      "stateMutability": "view",
      "type": "function"
    },
    {
      "inputs": [],
      "name": "collect",
      "outputs": [],
      "stateMutability": "nonpayable",
      "type": "function"
    },
    {
      "inputs": [
        {
          "internalType": "address",
          "name": "",
          "type": "address"
        }
      ],
      "name": "deployers",
      "outputs": [
        {
          "internalType": "bool",
          "name": "",
          "type": "bool"
        }
      ],
      "stateMutability": "view",
      "type": "function"
    },
    {
      "inputs": [],
      "name": "deposit",
      "outputs": [],
      "stateMutability": "nonpayable",
      "type": "function"
    },
    {
      "inputs": [
        {
          "internalType": "address",
          "name": "_token",
          "type": "address"
        }
      ],
      "name": "deprecateGauge",
      "outputs": [],
      "stateMutability": "nonpayable",
      "type": "function"
    },
    {
      "inputs": [
        {
          "internalType": "address",
          "name": "",
          "type": "address"
        }
      ],
      "name": "deprecated",
      "outputs": [
        {
          "internalType": "address",
          "name": "",
          "type": "address"
        }
      ],
      "stateMutability": "view",
      "type": "function"
    },
    {
      "inputs": [
        {
          "internalType": "uint256",
          "name": "_start",
          "type": "uint256"
        },
        {
          "internalType": "uint256",
          "name": "_end",
          "type": "uint256"
        }
      ],
      "name": "distribute",
      "outputs": [],
      "stateMutability": "nonpayable",
      "type": "function"
    },
    {
      "inputs": [
        {
          "internalType": "address",
          "name": "",
          "type": "address"
        }
      ],
      "name": "gauges",
      "outputs": [
        {
          "internalType": "address",
          "name": "",
          "type": "address"
        }
      ],
      "stateMutability": "view",
      "type": "function"
    },
    {
      "inputs": [
        {
          "internalType": "address",
          "name": "_token",
          "type": "address"
        }
      ],
      "name": "getGauge",
      "outputs": [
        {
          "internalType": "address",
          "name": "",
          "type": "address"
        }
      ],
      "stateMutability": "view",
      "type": "function"
    },
    {
      "inputs": [],
      "name": "governance",
      "outputs": [
        {
          "internalType": "address",
          "name": "",
          "type": "address"
        }
      ],
      "stateMutability": "view",
      "type": "function"
    },
    {
      "inputs": [],
      "name": "length",
      "outputs": [
        {
          "internalType": "uint256",
          "name": "",
          "type": "uint256"
        }
      ],
      "stateMutability": "view",
      "type": "function"
    },
    {
      "inputs": [
        {
          "internalType": "address",
          "name": "_gauge",
          "type": "address"
        },
        {
          "internalType": "address",
          "name": "_token",
          "type": "address"
        }
      ],
      "name": "migrateGauge",
      "outputs": [],
      "stateMutability": "nonpayable",
      "type": "function"
    },
    {
      "inputs": [],
      "name": "pendingGovernance",
      "outputs": [
        {
          "internalType": "address",
          "name": "",
          "type": "address"
        }
      ],
      "stateMutability": "view",
      "type": "function"
    },
    {
      "inputs": [],
      "name": "pid",
      "outputs": [
        {
          "internalType": "uint256",
          "name": "",
          "type": "uint256"
        }
      ],
      "stateMutability": "view",
      "type": "function"
    },
    {
      "inputs": [
        {
          "internalType": "address",
          "name": "_owner",
          "type": "address"
        }
      ],
      "name": "poke",
      "outputs": [],
      "stateMutability": "nonpayable",
      "type": "function"
    },
    {
      "inputs": [],
      "name": "preDistribute",
      "outputs": [],
      "stateMutability": "nonpayable",
      "type": "function"
    },
    {
      "inputs": [
        {
          "internalType": "address",
          "name": "_deployer",
          "type": "address"
        }
      ],
      "name": "removeDeployer",
      "outputs": [],
      "stateMutability": "nonpayable",
      "type": "function"
    },
    {
      "inputs": [
        {
          "internalType": "address",
          "name": "_token",
          "type": "address"
        }
      ],
      "name": "renewGauge",
      "outputs": [],
      "stateMutability": "nonpayable",
      "type": "function"
    },
    {
      "inputs": [],
      "name": "reset",
      "outputs": [],
      "stateMutability": "nonpayable",
      "type": "function"
    },
    {
      "inputs": [],
      "name": "sAxial",
      "outputs": [
        {
          "internalType": "contract VestingStake",
          "name": "",
          "type": "address"
        }
      ],
      "stateMutability": "view",
      "type": "function"
    },
    {
      "inputs": [
        {
          "internalType": "address",
          "name": "_governance",
          "type": "address"
        }
      ],
      "name": "setGovernance",
      "outputs": [],
      "stateMutability": "nonpayable",
      "type": "function"
    },
    {
      "inputs": [
        {
          "internalType": "uint256",
          "name": "_pid",
          "type": "uint256"
        }
      ],
      "name": "setPID",
      "outputs": [],
      "stateMutability": "nonpayable",
      "type": "function"
    },
    {
      "inputs": [
        {
          "internalType": "address",
          "name": "",
          "type": "address"
        },
        {
          "internalType": "uint256",
          "name": "",
          "type": "uint256"
        }
      ],
      "name": "tokenVote",
      "outputs": [
        {
          "internalType": "address",
          "name": "",
          "type": "address"
        }
      ],
      "stateMutability": "view",
      "type": "function"
    },
    {
      "inputs": [],
      "name": "tokens",
      "outputs": [
        {
          "internalType": "address[]",
          "name": "",
          "type": "address[]"
        }
      ],
      "stateMutability": "view",
      "type": "function"
    },
    {
      "inputs": [],
      "name": "totalWeight",
      "outputs": [
        {
          "internalType": "uint256",
          "name": "",
          "type": "uint256"
        }
      ],
      "stateMutability": "view",
      "type": "function"
    },
    {
      "inputs": [
        {
          "internalType": "address",
          "name": "",
          "type": "address"
        }
      ],
      "name": "usedWeights",
      "outputs": [
        {
          "internalType": "uint256",
          "name": "",
          "type": "uint256"
        }
      ],
      "stateMutability": "view",
      "type": "function"
    },
    {
      "inputs": [],
      "name": "veAxial",
      "outputs": [
        {
          "internalType": "contract AccruingStake",
          "name": "",
          "type": "address"
        }
      ],
      "stateMutability": "view",
      "type": "function"
    },
    {
      "inputs": [
        {
          "internalType": "address[]",
          "name": "_tokenVote",
          "type": "address[]"
        },
        {
          "internalType": "uint256[]",
          "name": "_weights",
          "type": "uint256[]"
        }
      ],
      "name": "vote",
      "outputs": [],
      "stateMutability": "nonpayable",
      "type": "function"
    },
    {
      "inputs": [
        {
          "internalType": "address",
          "name": "",
          "type": "address"
        },
        {
          "internalType": "address",
          "name": "",
          "type": "address"
        }
      ],
      "name": "votes",
      "outputs": [
        {
          "internalType": "uint256",
          "name": "",
          "type": "uint256"
        }
      ],
      "stateMutability": "view",
      "type": "function"
    },
    {
      "inputs": [
        {
          "internalType": "address",
          "name": "",
          "type": "address"
        }
      ],
      "name": "weights",
      "outputs": [
        {
          "internalType": "uint256",
          "name": "",
          "type": "uint256"
        }
      ],
      "stateMutability": "view",
      "type": "function"
    }
  ],
  "transactionHash": "0x1d6ae0d547d872b1008251db721293079251d9842a4efa4f715bb77f4aa7dc45",
  "args": [
    "0x44A4b9E2A69d86BA382a511f845CbF2E31286770",
    "0x0708F10F657b16ABE18954361E96a641b217648B",
    "0xb7819A8714fCa85239E4b881291819A79Aa703E4",
    "0xeD8583AD6e9A266f38866a1E8058436a4b742D57"
  ],
  "numDeployments": 4,
  "solcInputHash": "dbba49864fa4a6c38cb9c3c2cba00e75",
  "bytecode": "0x6101006040526000196002553480156200001857600080fd5b5060405162005649380380620056498339810160408190526200003b91620000da565b600080546001600160a01b0319166001600160a01b038681169190911790915583811660a052828116608052811660e0526040516200007a90620000af565b604051809103906000f08015801562000097573d6000803e3d6000fd5b506001600160a01b031660c052506200013792505050565b610b778062004ad283390190565b80516001600160a01b0381168114620000d557600080fd5b919050565b60008060008060808587031215620000f157600080fd5b620000fc85620000bd565b93506200010c60208601620000bd565b92506200011c60408601620000bd565b91506200012c60608601620000bd565b905092959194509250565b60805160a05160c05160e051614929620001a9600039600081816106200152610f7a0152600081816105ac015281816113760152818161140c01526114570152600081816102a101528181610a1b01528181610a520152610cf201526000818161052401526116e701526149296000f3fe60806040523480156200001157600080fd5b5060043610620002605760003560e01c8063ab033ea91162000149578063d0e30db011620000c7578063f10684541162000086578063f106845414620005ce578063f2a1a8ed14620005d8578063f315df8614620005ef578063f39c38a01462000606578063fcd5189b146200061a57600080fd5b8063d0e30db0146200057e578063d826f88f1462000588578063e07a3c981462000592578063e5225381146200059c578063ed4355b814620005a657600080fd5b8063bb6c07231162000114578063bb6c072314620004eb578063bdcf15081462000507578063ca3e3c03146200051e578063cad1b9061462000546578063d0949f99146200057457600080fd5b8063ab033ea91462000462578063b1a997ac1462000479578063b1c6f0e91462000490578063b9a09fd514620004bf57600080fd5b80636f816a2011620001e35780638d06051911620001a25780638d06051914620003ee57806396c82e5714620004055780639d63848a146200040f5780639da882ac1462000428578063a7cac846146200043f57600080fd5b80636f816a2014620003885780637625391a146200039f5780637b66665314620003b65780638283639114620003cd578063880f403914620003d757600080fd5b8063266f803a1162000230578063266f803a14620002f1578063593236bc146200031d5780635aa6e67514620003265780636848c2bd146200033a5780636a2385e8146200035157600080fd5b80622f8de4146200026557806303e9f23b146200029b5780631f7b6d3214620002dc578063238efcbc14620002e5575b600080fd5b620002886200027636600462001ebb565b600e6020526000908152604090205481565b6040519081526020015b60405180910390f35b620002c37f000000000000000000000000000000000000000000000000000000000000000081565b6040516001600160a01b03909116815260200162000292565b60075462000288565b620002ef62000642565b005b620002c36200030236600462001ebb565b6009602052600090815260409020546001600160a01b031681565b62000288600081565b600054620002c3906001600160a01b031681565b620002ef6200034b36600462001ebb565b620006c6565b620003776200036236600462001ebb565b600f6020526000908152604090205460ff1681565b604051901515815260200162000292565b620002ef6200039936600462001f28565b62000793565b620002ef620003b036600462001f9b565b6200085a565b620002ef620003c736600462001fbe565b62000af6565b620002ef62000bc9565b620002ef620003e836600462001ebb565b62000d81565b620002ef620003ff36600462001ff6565b62000dd2565b6200028860035481565b6200041962000e9a565b60405162000292919062002010565b620002ef6200043936600462001ebb565b62000efe565b620002886200045036600462001ebb565b600a6020526000908152604090205481565b620002ef6200047336600462001ebb565b6200104e565b620002ef6200048a36600462001ebb565b6200109d565b620002c3620004a136600462001ebb565b6001600160a01b039081166000908152600860205260409020541690565b620002c3620004d036600462001ebb565b6008602052600090815260409020546001600160a01b031681565b620002c37335225e5a6309a4823f900eec047699ecfbe8d34181565b620002ef6200051836600462001ebb565b6200120b565b620002c37f000000000000000000000000000000000000000000000000000000000000000081565b620002886200055736600462001fbe565b600c60209081526000928352604080842090915290825290205481565b6200028860001981565b620002ef62001313565b620002ef62001508565b6200028861546081565b620002ef62001515565b620002c37f000000000000000000000000000000000000000000000000000000000000000081565b6200028860025481565b620002c3620005e93660046200205f565b62001631565b620002ef6200060036600462001ebb565b6200166a565b600154620002c3906001600160a01b031681565b620002c37f000000000000000000000000000000000000000000000000000000000000000081565b6001546001600160a01b03163314620006a25760405162461bcd60e51b815260206004820152601d60248201527f616363657074476f7665726e616e63653a202170656e64696e67476f7600000060448201526064015b60405180910390fd5b600154600080546001600160a01b0319166001600160a01b03909216919091179055565b6000546001600160a01b03163314620006f35760405162461bcd60e51b815260040162000699906200208c565b6001600160a01b03818116600090815260086020526040902054166200074d5760405162461bcd60e51b815260206004820152600e60248201526d191bd95cc81b9bdd08195e1a5cdd60921b604482015260640162000699565b6001600160a01b039081166000908152600860208181526040808420805460098452919094208054919095166001600160a01b0319918216179094555280549091169055565b828114620007e45760405162461bcd60e51b815260206004820181905260248201527f7765696768742f746f6b656e766f7465206c656e677468206d69736d61746368604482015260640162000699565b620008543385858080602002602001604051908101604052809392919081815260200183836020028082843760009201919091525050604080516020808902828101820190935288825290935088925087918291850190849080828437600092019190915250620016b892505050565b50505050565b336000908152600f602052604090205460ff16806200088357506000546001600160a01b031633145b620008a25760405162461bcd60e51b815260040162000699906200208c565b808210620008e05760405162461bcd60e51b815260206004820152600a6024820152691898590817dcdd185c9d60b21b604482015260640162000699565b6007548111156200091f5760405162461bcd60e51b81526020600482015260086024820152671898590817d95b9960c21b604482015260640162000699565b42615460600654620009329190620020cf565b1015620009715760405162461bcd60e51b815260206004820152600c60248201526b1b1bd8dac8195e1c1a5c995960a21b604482015260640162000699565b60006005541180156200098657506000600454115b1562000af257815b8181101562000af057600060078281548110620009af57620009af620020ea565b60009182526020808320909101546001600160a01b0390811680845260088352604080852054600354600b909552908520546005549296509216939262000a04929091620009fd9162001941565b9062001956565b9050801562000ad75762000a446001600160a01b037f00000000000000000000000000000000000000000000000000000000000000001683600062001964565b62000a7a6001600160a01b037f000000000000000000000000000000000000000000000000000000000000000016838362001964565b604051633c6b16ab60e01b8152600481018290526001600160a01b03831690633c6b16ab90602401600060405180830381600087803b15801562000abd57600080fd5b505af115801562000ad2573d6000803e3d6000fd5b505050505b505050808062000ae79062002100565b9150506200098e565b505b5050565b6000546001600160a01b0316331462000b235760405162461bcd60e51b815260040162000699906200208c565b6001600160a01b03818116600090815260086020526040902054161562000b5e5760405162461bcd60e51b815260040162000699906200211e565b6001600160a01b0390811660008181526008602052604081208054939094166001600160a01b0319938416179093556007805460018101825593527fa66cc928b5edb82af9bd49922954155ab7b0942694bea4ce44661d9a8736c68890920180549091169091179055565b336000908152600f602052604090205460ff168062000bf257506000546001600160a01b031633145b62000c115760405162461bcd60e51b815260040162000699906200208c565b60035460045560005b60075481101562000cd257600a60006007838154811062000c3f5762000c3f620020ea565b9060005260206000200160009054906101000a90046001600160a01b03166001600160a01b03166001600160a01b0316815260200190815260200160002054600b60006007848154811062000c985762000c98620020ea565b60009182526020808320909101546001600160a01b031683528201929092526040019020558062000cc98162002100565b91505062000c1a565b5062000cdd62001515565b6040516370a0823160e01b81523060048201527f00000000000000000000000000000000000000000000000000000000000000006001600160a01b0316906370a082319060240160206040518083038186803b15801562000d3d57600080fd5b505afa15801562000d52573d6000803e3d6000fd5b505050506040513d601f19601f8201168201806040525081019062000d7891906200213e565b60055542600655565b6000546001600160a01b0316331462000dae5760405162461bcd60e51b8152600401620006999062002158565b6001600160a01b03166000908152600f60205260409020805460ff19166001179055565b6000546001600160a01b0316331462000dff5760405162461bcd60e51b8152600401620006999062002158565b6000196002541462000e545760405162461bcd60e51b815260206004820152601860248201527f7069642068617320616c7265616479206265656e207365740000000000000000604482015260640162000699565b600019811062000e955760405162461bcd60e51b815260206004820152600b60248201526a1a5b9d985b1a59081c1a5960aa1b604482015260640162000699565b600255565b6060600780548060200260200160405190810160405280929190818152602001828054801562000ef457602002820191906000526020600020905b81546001600160a01b0316815260019091019060200180831162000ed5575b5050505050905090565b6000546001600160a01b0316331462000f2b5760405162461bcd60e51b815260040162000699906200208c565b6001600160a01b03818116600090815260086020526040902054161562000f665760405162461bcd60e51b815260040162000699906200211e565b60005460405182916001600160a01b0316907f00000000000000000000000000000000000000000000000000000000000000009062000fa59062001e5b565b6001600160a01b03938416815291831660208301529091166040820152606001604051809103906000f08015801562000fe2573d6000803e3d6000fd5b506001600160a01b0391821660008181526008602052604081208054939094166001600160a01b0319938416179093556007805460018101825593527fa66cc928b5edb82af9bd49922954155ab7b0942694bea4ce44661d9a8736c68890920180549091169091179055565b6000546001600160a01b031633146200107b5760405162461bcd60e51b8152600401620006999062002158565b600180546001600160a01b0319166001600160a01b0392909216919091179055565b6001600160a01b0381166000908152600d60209081526040808320805482518185028101850190935280835291929091908301828280156200110957602002820191906000526020600020905b81546001600160a01b03168152600190910190602001808311620010ea575b5050505050905060008151905060008167ffffffffffffffff8111156200113457620011346200218f565b6040519080825280602002602001820160405280156200115e578160200160208202803683370190505b50905060005b82811015620011fd576001600160a01b0385166000908152600c6020526040812085519091908690849081106200119f576200119f620020ea565b60200260200101516001600160a01b03166001600160a01b0316815260200190815260200160002054828281518110620011dd57620011dd620020ea565b602090810291909101015280620011f48162002100565b91505062001164565b5062000854848483620016b8565b6000546001600160a01b03163314620012385760405162461bcd60e51b815260040162000699906200208c565b6001600160a01b038181166000908152600860205260409020541615620012735760405162461bcd60e51b815260040162000699906200211e565b6001600160a01b0381811660009081526009602052604090205416620012cd5760405162461bcd60e51b815260206004820152600e60248201526d1b9bdd0819195c1c9958d85d195960921b604482015260640162000699565b6001600160a01b039081166000908152600960208181526040808420805460088452919094208054919095166001600160a01b0319918216179094555280549091169055565b600019600254106200135e5760405162461bcd60e51b81526020600482015260136024820152721c1a59081b9bdd081a5b9a5d1a585b1a5e9959606a1b604482015260640162000699565b6040516370a0823160e01b81523060048201526000907f00000000000000000000000000000000000000000000000000000000000000006001600160a01b0316906370a082319060240160206040518083038186803b158015620013c157600080fd5b505afa158015620013d6573d6000803e3d6000fd5b505050506040513d601f19601f82011682018060405250810190620013fc91906200213e565b9050620014496001600160a01b037f0000000000000000000000000000000000000000000000000000000000000000167335225e5a6309a4823f900eec047699ecfbe8d341600062001964565b620014936001600160a01b037f0000000000000000000000000000000000000000000000000000000000000000167335225e5a6309a4823f900eec047699ecfbe8d3418362001964565b600254604051631c57762b60e31b81526004810191909152602481018290527335225e5a6309a4823f900eec047699ecfbe8d3419063e2bbb15890604401600060405180830381600087803b158015620014ec57600080fd5b505af115801562001501573d6000803e3d6000fd5b5050505050565b620015133362001ab3565b565b6002546040516393f1a40b60e01b815260048101919091523060248201526000907335225e5a6309a4823f900eec047699ecfbe8d341906393f1a40b90604401604080518083038186803b1580156200156d57600080fd5b505afa15801562001582573d6000803e3d6000fd5b505050506040513d601f19601f82011682018060405250810190620015a89190620021a5565b50600254604051630441a3e760e41b81529192507335225e5a6309a4823f900eec047699ecfbe8d3419163441a3e7091620015f0918590600401918252602082015260400190565b600060405180830381600087803b1580156200160b57600080fd5b505af115801562001620573d6000803e3d6000fd5b505050506200162e62001313565b50565b600d60205281600052604060002081815481106200164e57600080fd5b6000918252602090912001546001600160a01b03169150829050565b6000546001600160a01b03163314620016975760405162461bcd60e51b8152600401620006999062002158565b6001600160a01b03166000908152600f60205260409020805460ff19169055565b620016c38362001ab3565b8151604051631776451f60e21b81526001600160a01b0385811660048301526000917f000000000000000000000000000000000000000000000000000000000000000090911690635dd9147c9060240160206040518083038186803b1580156200172c57600080fd5b505afa15801562001741573d6000803e3d6000fd5b505050506040513d601f19601f820116820180604052508101906200176791906200213e565b905060008060005b84811015620017c057620017a9868281518110620017915762001791620020ea565b60200260200101518462001bd490919063ffffffff16565b925080620017b78162002100565b9150506200176f565b5060005b848110156200191c576000878281518110620017e457620017e4620020ea565b6020908102919091018101516001600160a01b038082166000908152600890935260408320548a519294501691906200184c908790620009fd908a908d9089908110620018355762001835620020ea565b60200260200101516200194190919063ffffffff16565b90506001600160a01b0382161562001903576200186a858262001bd4565b6003549095506200187c908262001bd4565b6003556001600160a01b0383166000908152600a6020526040902054620018a4908262001bd4565b6001600160a01b038085166000818152600a6020908152604080832095909555928f16808252600d845284822080546001810182559083528483200180546001600160a01b031916841790558152600c83528381209181529152208190555b5050508080620019139062002100565b915050620017c4565b506001600160a01b039096166000908152600e60205260409020959095555050505050565b60006200194f8284620021ca565b9392505050565b60006200194f8284620021ec565b801580620019f25750604051636eb1769f60e11b81523060048201526001600160a01b03838116602483015284169063dd62ed3e9060440160206040518083038186803b158015620019b557600080fd5b505afa158015620019ca573d6000803e3d6000fd5b505050506040513d601f19601f82011682018060405250810190620019f091906200213e565b155b62001a5f5760405162461bcd60e51b815260206004820152603660248201527f5361666545524332303a20617070726f76652066726f6d206e6f6e2d7a65726f60448201527520746f206e6f6e2d7a65726f20616c6c6f77616e636560501b606482015260840162000699565b604080516001600160a01b038416602482015260448082018490528251808303909101815260649091019091526020810180516001600160e01b031663095ea7b360e01b17905262000af090849062001be2565b6001600160a01b0381166000908152600d60205260408120805490915b8181101562001bb057600083828154811062001af05762001af0620020ea565b60009182526020808320909101546001600160a01b038881168452600c8352604080852091909216808552925290912054909150801562001b985760035462001b3a908262001cbb565b6003556001600160a01b0382166000908152600a602052604090205462001b62908262001cbb565b6001600160a01b038084166000818152600a6020908152604080832095909555928a168152600c83528381209181529152908120555b5050808062001ba79062002100565b91505062001ad0565b506001600160a01b0383166000908152600d6020526040812062000af09162001e69565b60006200194f8284620020cf565b600062001c39826040518060400160405280602081526020017f5361666545524332303a206c6f772d6c6576656c2063616c6c206661696c6564815250856001600160a01b031662001cc99092919063ffffffff16565b80519091501562000af0578080602001905181019062001c5a91906200220f565b62000af05760405162461bcd60e51b815260206004820152602a60248201527f5361666545524332303a204552433230206f7065726174696f6e20646964206e6044820152691bdd081cdd58d8d9595960b21b606482015260840162000699565b60006200194f828462002233565b606062001cda848460008562001ce2565b949350505050565b60608247101562001d455760405162461bcd60e51b815260206004820152602660248201527f416464726573733a20696e73756666696369656e742062616c616e636520666f6044820152651c8818d85b1b60d21b606482015260840162000699565b6001600160a01b0385163b62001d9e5760405162461bcd60e51b815260206004820152601d60248201527f416464726573733a2063616c6c20746f206e6f6e2d636f6e7472616374000000604482015260640162000699565b600080866001600160a01b0316858760405162001dbc91906200227c565b60006040518083038185875af1925050503d806000811462001dfb576040519150601f19603f3d011682016040523d82523d6000602084013e62001e00565b606091505b509150915062001e1282828662001e1d565b979650505050505050565b6060831562001e2e5750816200194f565b82511562001e3f5782518084602001fd5b8160405162461bcd60e51b81526004016200069991906200229a565b61262480620022d083390190565b50805460008255906000526020600020908101906200162e91905b8082111562001e9a576000815560010162001e84565b5090565b80356001600160a01b038116811462001eb657600080fd5b919050565b60006020828403121562001ece57600080fd5b6200194f8262001e9e565b60008083601f84011262001eec57600080fd5b50813567ffffffffffffffff81111562001f0557600080fd5b6020830191508360208260051b850101111562001f2157600080fd5b9250929050565b6000806000806040858703121562001f3f57600080fd5b843567ffffffffffffffff8082111562001f5857600080fd5b62001f668883890162001ed9565b9096509450602087013591508082111562001f8057600080fd5b5062001f8f8782880162001ed9565b95989497509550505050565b6000806040838503121562001faf57600080fd5b50508035926020909101359150565b6000806040838503121562001fd257600080fd5b62001fdd8362001e9e565b915062001fed6020840162001e9e565b90509250929050565b6000602082840312156200200957600080fd5b5035919050565b6020808252825182820181905260009190848201906040850190845b81811015620020535783516001600160a01b0316835292840192918401916001016200202c565b50909695505050505050565b600080604083850312156200207357600080fd5b6200207e8362001e9e565b946020939093013593505050565b6020808252601390820152723ab730baba3437b934bd32b21039b2b73232b960691b604082015260600190565b634e487b7160e01b600052601160045260246000fd5b60008219821115620020e557620020e5620020b9565b500190565b634e487b7160e01b600052603260045260246000fd5b6000600019821415620021175762002117620020b9565b5060010190565b60208082526006908201526565786973747360d01b604082015260600190565b6000602082840312156200215157600080fd5b5051919050565b6020808252601f908201527f756e617574686f72697a65642073656e6465722028676f7665726e616e636500604082015260600190565b634e487b7160e01b600052604160045260246000fd5b60008060408385031215620021b957600080fd5b505080516020909101519092909150565b6000816000190483118215151615620021e757620021e7620020b9565b500290565b6000826200220a57634e487b7160e01b600052601260045260246000fd5b500490565b6000602082840312156200222257600080fd5b815180151581146200194f57600080fd5b600082821015620022485762002248620020b9565b500390565b60005b838110156200226a57818101518382015260200162002250565b83811115620008545750506000910152565b60008251620022908184602087016200224d565b9190910192915050565b6020815260008251806020840152620022bb8160408501602087016200224d565b601f01601f1916919091016040019291505056fe60c060405260006005553480156200001657600080fd5b506040516200262438038062002624833981016040819052620000399162000099565b60016002556001600160a01b0392831660a05260048054336001600160a01b031991821617909155600080549091169284169290921790915516608052620000e3565b80516001600160a01b03811681146200009457600080fd5b919050565b600080600060608486031215620000af57600080fd5b620000ba846200007c565b9250620000ca602085016200007c565b9150620000da604085016200007c565b90509250925092565b60805160a0516124f86200012c600039600081816104b70152818161145e01528181611b7a0152611e5601526000818161041b015281816112ef015261137101526124f86000f3fe608060405234801561001057600080fd5b50600436106102325760003560e01c8063853828b611610130578063ca1c9b75116100b8578063e70b9e271161007c578063e70b9e27146104fd578063e81a588414610528578063e9fad8ee1461053b578063ebe2b12b14610543578063f39c38a01461054c57600080fd5b8063ca1c9b751461049f578063cbdf382c146104b2578063d35e2544146104d9578063d7da4bb0146104ec578063de5f6268146104f557600080fd5b806396c55175116100ff57806396c551751461043d5780639ce43f9014610450578063ab033ea914610470578063b6b55f2514610483578063c8f33c911461049657600080fd5b8063853828b6146103e0578063874c120b146103e85780638b473ce8146103fb5780638ebdcfc61461041657600080fd5b80633c6f778c116101be57806363fb415b1161018257806363fb415b146103515780637035ab981461037157806370a082311461039c5780637bb7bed1146103c557806380faa57d146103d857600080fd5b80633c6f778c146102d85780633d3b2603146102e05780633e491d47146103005780635aa6e6751461031357806362b009d91461033e57600080fd5b80631c4b774b116102055780631c4b774b14610284578063238efcbc146102975780632e1a7d4d1461029f57806336efd16f146102b25780633c6b16ab146102c557600080fd5b80630e213a3d1461023757806318160ddd1461025d5780631be05289146102655780631c03e6cc1461026f575b600080fd5b61024a6102453660046121f5565b61055f565b6040519081526020015b60405180910390f35b600b5461024a565b61024a62093a8081565b61028261027d36600461222a565b6105b0565b005b6102826102923660046121f5565b61068f565b61028261098f565b6102826102ad3660046121f5565b610a0d565b6102826102c0366004612245565b610a19565b6102826102d33660046121f5565b610a6b565b60035461024a565b61024a6102ee36600461222a565b60066020526000908152604090205481565b61024a61030e366004612271565b610f58565b600054610326906001600160a01b031681565b6040516001600160a01b039091168152602001610254565b61028261034c36600461222a565b61104e565b61024a61035f36600461222a565b600e6020526000908152604090205481565b61024a61037f36600461229b565b600960209081526000928352604080842090915290825290205481565b61024a6103aa36600461222a565b6001600160a01b03166000908152600d602052604090205490565b6103266103d33660046121f5565b61109a565b61024a6110c4565b6102826110d7565b61024a6103f63660046121f5565b6110f2565b61032673cf8419a615c57511807236751c0af38db4ba335181565b6103267f000000000000000000000000000000000000000000000000000000000000000081565b61028261044b36600461222a565b6111ec565b61024a61045e36600461222a565b60076020526000908152604090205481565b61028261047e36600461222a565b611250565b6102826104913660046121f5565b61129c565b61024a60085481565b600454610326906001600160a01b031681565b6103267f000000000000000000000000000000000000000000000000000000000000000081565b61024a6104e736600461222a565b6112a6565b61024a600c5481565b610282611445565b61024a61050b36600461229b565b600a60209081526000928352604080842090915290825290205481565b6102826105363660046122c5565b6114e6565b61028261192a565b61024a60055481565b600154610326906001600160a01b031681565b60006105aa62093a80600660006003868154811061057f5761057f6122e7565b60009182526020808320909101546001600160a01b031683528201929092526040019020549061196b565b92915050565b6000546001600160a01b031633146105e35760405162461bcd60e51b81526004016105da906122fd565b60405180910390fd5b806001600160a01b0381163b6106335760405162461bcd60e51b815260206004820152601560248201527411d85d59d94e881b9bdd08184818dbdb9d1c9858dd605a1b60448201526064016105da565b5060038054600181019091557fc2575a0e9e593c00f959f8c92f12db2869c3395a3b0502d05e2516446f71f85b0180546001600160a01b039092166001600160a01b031990921682179055600090815260066020526040812055565b6002805414156106b15760405162461bcd60e51b81526004016105da90612334565b600280553360005b600354811015610821576106cc816110f2565b60076000600384815481106106e3576106e36122e7565b60009182526020808320909101546001600160a01b031683528201929092526040019020556107106110c4565b6008556001600160a01b0382161561080f5761072c8282610f58565b6001600160a01b0383166000908152600a60205260408120600380549192918590811061075b5761075b6122e7565b60009182526020808320909101546001600160a01b031683528201929092526040018120919091556003805460079291908490811061079c5761079c6122e7565b60009182526020808320909101546001600160a01b03908116845283820194909452604092830182205493861682526009905290812060038054919291859081106107e9576107e96122e7565b60009182526020808320909101546001600160a01b031683528201929092526040019020555b8061081981612381565b9150506106b9565b50336000908152600a602052604081206003805483919086908110610848576108486122e7565b60009182526020808320909101546001600160a01b031683528201929092526040019020549050801561096d576108a933826003868154811061088d5761088d6122e7565b6000918252602090912001546001600160a01b03169190611977565b336000908152600a6020526040812060038054839190879081106108cf576108cf6122e7565b60009182526020808320909101546001600160a01b031683528201929092526040019020556003805433917f8e0d3fa908fd7ee819155b3ce71e292b601bbeb0cd00d7758b9d226a523cb827918491908790811061092f5761092f6122e7565b60009182526020909120015460405161096492916001600160a01b0316909182526001600160a01b0316602082015260400190565b60405180910390a25b506001600160a01b0381161561098657610986816111ec565b50506001600255565b6001546001600160a01b031633146109e95760405162461bcd60e51b815260206004820152601d60248201527f616363657074476f7665726e616e63653a202170656e64696e67476f7600000060448201526064016105da565b600154600080546001600160a01b0319166001600160a01b03909216919091179055565b610a16816119da565b50565b6001600160a01b038116301415610a5d5760405162461bcd60e51b8152602060048201526008602482015267085858d8dbdd5b9d60c21b60448201526064016105da565b610a678282611c75565b5050565b6004546001600160a01b03163314610ac55760405162461bcd60e51b815260206004820181905260248201527f47617567653a206e6f7420646973747269627574696f6e20636f6e747261637460448201526064016105da565b6000805b600354811015610c3157610adc816110f2565b6007600060038481548110610af357610af36122e7565b60009182526020808320909101546001600160a01b03168352820192909252604001902055610b206110c4565b6008556001600160a01b03821615610c1f57610b3c8282610f58565b6001600160a01b0383166000908152600a602052604081206003805491929185908110610b6b57610b6b6122e7565b60009182526020808320909101546001600160a01b0316835282019290925260400181209190915560038054600792919084908110610bac57610bac6122e7565b60009182526020808320909101546001600160a01b0390811684528382019490945260409283018220549386168252600990529081206003805491929185908110610bf957610bf96122e7565b60009182526020808320909101546001600160a01b031683528201929092526040019020555b80610c2981612381565b915050610ac9565b5060045460038054610c78926001600160a01b0316913091869190600090610c5b57610c5b6122e7565b6000918252602090912001546001600160a01b0316929190611f2a565b6005544210610cd057610c8e8262093a80611f68565b600660006003600081548110610ca657610ca66122e7565b60009182526020808320909101546001600160a01b03168352820192909252604001902055610d84565b600554600090610ce09042611f74565b90506000610d2b600660006003600081548110610cff57610cff6122e7565b60009182526020808320909101546001600160a01b03168352820192909252604001902054839061196b565b9050610d4462093a80610d3e8684611f80565b90611f68565b600660006003600081548110610d5c57610d5c6122e7565b60009182526020808320909101546001600160a01b0316835282019290925260400190205550505b60006003600081548110610d9a57610d9a6122e7565b6000918252602090912001546040516370a0823160e01b81523060048201526001600160a01b03909116906370a082319060240160206040518083038186803b158015610de657600080fd5b505afa158015610dfa573d6000803e3d6000fd5b505050506040513d601f19601f82011682018060405250810190610e1e919061239c565b9050610e2d8162093a80611f68565b600660006003600081548110610e4557610e456122e7565b60009182526020808320909101546001600160a01b031683528201929092526040019020541115610eb35760405162461bcd60e51b81526020600482015260186024820152770a0e4deecd2c8cac840e4caeec2e4c840e8dede40d0d2ced60431b60448201526064016105da565b426008819055610ec69062093a80611f80565b6005819055507ffb5edb6eb340a01f6a67189edc978df97841c43752c212fc85995ea230017635836003600081548110610f0257610f026122e7565b600091825260209091200154604051610f3792916001600160a01b0316909182526001600160a01b0316602082015260400190565b60405180910390a1506001600160a01b03811615610a6757610a67816111ec565b6001600160a01b0382166000908152600a60205260408120600380546110479291849186908110610f8b57610f8b6122e7565b60009182526020808320909101546001600160a01b0390811684528382019490945260409283018220549388168252600990529081206003805461104193670de0b6b3a764000093610d3e93611022939192918b908110610fee57610fee6122e7565b60009182526020808320909101546001600160a01b0316835282019290925260400190205461101c896110f2565b90611f74565b6001600160a01b0389166000908152600e60205260409020549061196b565b90611f80565b9392505050565b6000546001600160a01b031633146110785760405162461bcd60e51b81526004016105da906122fd565b600480546001600160a01b0319166001600160a01b0392909216919091179055565b600381815481106110aa57600080fd5b6000918252602090912001546001600160a01b0316905081565b60006110d242600554611f8c565b905090565b336000908152600d60205260409020546110f0906119da565b565b6000600b5460001415611141576007600060038481548110611116576111166122e7565b60009182526020808320909101546001600160a01b0316835282019290925260400190205492915050565b6105aa6111aa600c54610d3e670de0b6b3a76400006111a46006600060038a81548110611170576111706122e7565b60009182526020808320909101546001600160a01b031683528201929092526040019020546008546111a49061101c6110c4565b9061196b565b60076000600386815481106111c1576111c16122e7565b60009182526020808320909101546001600160a01b0316835282019290925260400190205490611f80565b6001600160a01b0381166000908152600e6020526040902054600c546112129082611f74565b600c5561121e826112a6565b6001600160a01b0383166000908152600e60205260409020819055600c549091506112499082611f80565b600c555050565b6000546001600160a01b0316331461127a5760405162461bcd60e51b81526004016105da906122fd565b600180546001600160a01b0319166001600160a01b0392909216919091179055565b610a168133611c75565b6001600160a01b0381166000908152600d6020526040812054806112cd5750600092915050565b604051639869e13760e01b81526001600160a01b0384811660048301526000917f000000000000000000000000000000000000000000000000000000000000000090911690639869e1379060240160206040518083038186803b15801561133357600080fd5b505afa158015611347573d6000803e3d6000fd5b505050506040513d601f19601f8201168201806040525081019061136b919061239c565b905060007f00000000000000000000000000000000000000000000000000000000000000006001600160a01b031663e7812b7f6040518163ffffffff1660e01b815260040160206040518083038186803b1580156113c857600080fd5b505afa1580156113dc573d6000803e3d6000fd5b505050506040513d601f19601f82011682018060405250810190611400919061239c565b9050600081156114265761142382610d3e85600b5461196b90919063ffffffff16565b90505b8361143182826123b5565b61143b91906123cd565b9695505050505050565b6040516370a0823160e01b81523360048201526110f0907f00000000000000000000000000000000000000000000000000000000000000006001600160a01b0316906370a082319060240160206040518083038186803b1580156114a857600080fd5b505afa1580156114bc573d6000803e3d6000fd5b505050506040513d601f19601f820116820180604052508101906114e0919061239c565b33611c75565b6000805b600354811015611652576114fd816110f2565b6007600060038481548110611514576115146122e7565b60009182526020808320909101546001600160a01b031683528201929092526040019020556115416110c4565b6008556001600160a01b038216156116405761155d8282610f58565b6001600160a01b0383166000908152600a60205260408120600380549192918590811061158c5761158c6122e7565b60009182526020808320909101546001600160a01b03168352820192909252604001812091909155600380546007929190849081106115cd576115cd6122e7565b60009182526020808320909101546001600160a01b039081168452838201949094526040928301822054938616825260099052908120600380549192918590811061161a5761161a6122e7565b60009182526020808320909101546001600160a01b031683528201929092526040019020555b8061164a81612381565b9150506114ea565b506004546003805461167d926001600160a01b031691309187919087908110610c5b57610c5b6122e7565b60055442106116d4576116938362093a80611f68565b60066000600385815481106116aa576116aa6122e7565b60009182526020808320909101546001600160a01b03168352820192909252604001902055611754565b6005546000906116e49042611f74565b905060006117026006600060038781548110610cff57610cff6122e7565b905061171562093a80610d3e8784611f80565b600660006003878154811061172c5761172c6122e7565b60009182526020808320909101546001600160a01b0316835282019290925260400190205550505b600060038381548110611769576117696122e7565b6000918252602090912001546040516370a0823160e01b81523060048201526001600160a01b03909116906370a082319060240160206040518083038186803b1580156117b557600080fd5b505afa1580156117c9573d6000803e3d6000fd5b505050506040513d601f19601f820116820180604052508101906117ed919061239c565b90506117fc8162093a80611f68565b6006600060038681548110611813576118136122e7565b60009182526020808320909101546001600160a01b0316835282019290925260400190205411156118815760405162461bcd60e51b81526020600482015260186024820152770a0e4deecd2c8cac840e4caeec2e4c840e8dede40d0d2ced60431b60448201526064016105da565b4260088190556118949062093a80611f80565b6005819055507ffb5edb6eb340a01f6a67189edc978df97841c43752c212fc85995ea23001763584600385815481106118cf576118cf6122e7565b60009182526020909120015460405161190492916001600160a01b0316909182526001600160a01b0316602082015260400190565b60405180910390a1506001600160a01b0381161561192557611925816111ec565b505050565b336000908152600d6020526040902054611943906119da565b60005b600354811015610a16576119598161068f565b8061196381612381565b915050611946565b600061104782846123ef565b6040516001600160a01b03831660248201526044810182905261192590849063a9059cbb60e01b906064015b60408051601f198184030181529190526020810180516001600160e01b03166001600160e01b031990931692909217909152611fa2565b6002805414156119fc5760405162461bcd60e51b81526004016105da90612334565b600280553360005b600354811015611b6c57611a17816110f2565b6007600060038481548110611a2e57611a2e6122e7565b60009182526020808320909101546001600160a01b03168352820192909252604001902055611a5b6110c4565b6008556001600160a01b03821615611b5a57611a778282610f58565b6001600160a01b0383166000908152600a602052604081206003805491929185908110611aa657611aa66122e7565b60009182526020808320909101546001600160a01b0316835282019290925260400181209190915560038054600792919084908110611ae757611ae76122e7565b60009182526020808320909101546001600160a01b0390811684528382019490945260409283018220549386168252600990529081206003805491929185908110611b3457611b346122e7565b60009182526020808320909101546001600160a01b031683528201929092526040019020555b80611b6481612381565b915050611a04565b50611ba16001600160a01b037f0000000000000000000000000000000000000000000000000000000000000000163384611977565b60008211611be55760405162461bcd60e51b8152602060048201526011602482015270043616e6e6f74207769746864726177203607c1b60448201526064016105da565b600b54611bf29083611f74565b600b55336000908152600d6020526040902054611c0f9083611f74565b336000818152600d6020526040908190209290925590517f7084f5476618d8e60b11ef0d7d3f06914655adb8793e28ff7f018d4c76d505d590611c559085815260200190565b60405180910390a26001600160a01b0381161561098657610986816111ec565b600280541415611c975760405162461bcd60e51b81526004016105da90612334565b600280558060005b600354811015611e0757611cb2816110f2565b6007600060038481548110611cc957611cc96122e7565b60009182526020808320909101546001600160a01b03168352820192909252604001902055611cf66110c4565b6008556001600160a01b03821615611df557611d128282610f58565b6001600160a01b0383166000908152600a602052604081206003805491929185908110611d4157611d416122e7565b60009182526020808320909101546001600160a01b0316835282019290925260400181209190915560038054600792919084908110611d8257611d826122e7565b60009182526020808320909101546001600160a01b0390811684528382019490945260409283018220549386168252600990529081206003805491929185908110611dcf57611dcf6122e7565b60009182526020808320909101546001600160a01b031683528201929092526040019020555b80611dff81612381565b915050611c9f565b5060008311611e495760405162461bcd60e51b815260206004820152600e60248201526d043616e6e6f74207374616b6520360941b60448201526064016105da565b611e7e6001600160a01b037f000000000000000000000000000000000000000000000000000000000000000016833086611f2a565b600b54611e8b9084611f80565b600b556001600160a01b0382166000908152600d6020526040902054611eb19084611f80565b6001600160a01b0383166000818152600d6020526040908190209290925590517f9e71bc8eea02a63969f509818f2dafb9254532904319f9dbda79b67bd34a5f3d90611f009086815260200190565b60405180910390a26001600160a01b03811615611f2057611f20816111ec565b5050600160025550565b6040516001600160a01b0380851660248301528316604482015260648101829052611f629085906323b872dd60e01b906084016119a3565b50505050565b600061104782846123cd565b6000611047828461240e565b600061104782846123b5565b6000818310611f9b5781611047565b5090919050565b6000611ff7826040518060400160405280602081526020017f5361666545524332303a206c6f772d6c6576656c2063616c6c206661696c6564815250856001600160a01b03166120749092919063ffffffff16565b80519091501561192557808060200190518101906120159190612425565b6119255760405162461bcd60e51b815260206004820152602a60248201527f5361666545524332303a204552433230206f7065726174696f6e20646964206e6044820152691bdd081cdd58d8d9595960b21b60648201526084016105da565b6060612083848460008561208b565b949350505050565b6060824710156120ec5760405162461bcd60e51b815260206004820152602660248201527f416464726573733a20696e73756666696369656e742062616c616e636520666f6044820152651c8818d85b1b60d21b60648201526084016105da565b6001600160a01b0385163b6121435760405162461bcd60e51b815260206004820152601d60248201527f416464726573733a2063616c6c20746f206e6f6e2d636f6e747261637400000060448201526064016105da565b600080866001600160a01b0316858760405161215f9190612473565b60006040518083038185875af1925050503d806000811461219c576040519150601f19603f3d011682016040523d82523d6000602084013e6121a1565b606091505b50915091506121b18282866121bc565b979650505050505050565b606083156121cb575081611047565b8251156121db5782518084602001fd5b8160405162461bcd60e51b81526004016105da919061248f565b60006020828403121561220757600080fd5b5035919050565b80356001600160a01b038116811461222557600080fd5b919050565b60006020828403121561223c57600080fd5b6110478261220e565b6000806040838503121561225857600080fd5b823591506122686020840161220e565b90509250929050565b6000806040838503121561228457600080fd5b61228d8361220e565b946020939093013593505050565b600080604083850312156122ae57600080fd5b6122b78361220e565b91506122686020840161220e565b600080604083850312156122d857600080fd5b50508035926020909101359150565b634e487b7160e01b600052603260045260246000fd5b6020808252601f908201527f756e617574686f72697a65642073656e6465722028676f7665726e616e636500604082015260600190565b6020808252601f908201527f5265656e7472616e637947756172643a207265656e7472616e742063616c6c00604082015260600190565b634e487b7160e01b600052601160045260246000fd5b60006000198214156123955761239561236b565b5060010190565b6000602082840312156123ae57600080fd5b5051919050565b600082198211156123c8576123c861236b565b500190565b6000826123ea57634e487b7160e01b600052601260045260246000fd5b500490565b60008160001904831182151516156124095761240961236b565b500290565b6000828210156124205761242061236b565b500390565b60006020828403121561243757600080fd5b8151801515811461104757600080fd5b60005b8381101561246257818101518382015260200161244a565b83811115611f625750506000910152565b60008251612485818460208701612447565b9190910192915050565b60208152600082518060208401526124ae816040850160208701612447565b601f01601f1916919091016040019291505056fea2646970667358221220e7c195089a7c6bcbffe627047c36587c5b22242c74351b92e55488282f582e2e64736f6c63430008090033a26469706673582212202e8fd2fbe7c3564485d99eaed16513955b2d4eeef7204eec4523a374441052b064736f6c6343000809003360806040523480156200001157600080fd5b506040518060400160405280600f81526020016e20bc34b0b6223ab6b6bcaa37b5b2b760891b8152506040518060400160405280600381526020016210561160ea1b81525081600390805190602001906200006e9291906200018f565b508051620000849060049060208401906200018f565b505050620000a133670de0b6b3a7640000620000a760201b60201c565b62000299565b6001600160a01b038216620001025760405162461bcd60e51b815260206004820152601f60248201527f45524332303a206d696e7420746f20746865207a65726f206164647265737300604482015260640160405180910390fd5b806002600082825462000116919062000235565b90915550506001600160a01b038216600090815260208190526040812080548392906200014590849062000235565b90915550506040518181526001600160a01b038316906000907fddf252ad1be2c89b69c2b068fc378daa952ba7f163c4a11628f55a4df523b3ef9060200160405180910390a35050565b8280546200019d906200025c565b90600052602060002090601f016020900481019282620001c157600085556200020c565b82601f10620001dc57805160ff19168380011785556200020c565b828001600101855582156200020c579182015b828111156200020c578251825591602001919060010190620001ef565b506200021a9291506200021e565b5090565b5b808211156200021a57600081556001016200021f565b600082198211156200025757634e487b7160e01b600052601160045260246000fd5b500190565b600181811c908216806200027157607f821691505b602082108114156200029357634e487b7160e01b600052602260045260246000fd5b50919050565b6108ce80620002a96000396000f3fe608060405234801561001057600080fd5b50600436106100a95760003560e01c80633950935111610071578063395093511461012357806370a082311461013657806395d89b411461015f578063a457c2d714610167578063a9059cbb1461017a578063dd62ed3e1461018d57600080fd5b806306fdde03146100ae578063095ea7b3146100cc57806318160ddd146100ef57806323b872dd14610101578063313ce56714610114575b600080fd5b6100b66101c6565b6040516100c3919061070b565b60405180910390f35b6100df6100da36600461077c565b610258565b60405190151581526020016100c3565b6002545b6040519081526020016100c3565b6100df61010f3660046107a6565b610270565b604051601281526020016100c3565b6100df61013136600461077c565b610294565b6100f36101443660046107e2565b6001600160a01b031660009081526020819052604090205490565b6100b66102d3565b6100df61017536600461077c565b6102e2565b6100df61018836600461077c565b610379565b6100f361019b366004610804565b6001600160a01b03918216600090815260016020908152604080832093909416825291909152205490565b6060600380546101d590610837565b80601f016020809104026020016040519081016040528092919081815260200182805461020190610837565b801561024e5780601f106102235761010080835404028352916020019161024e565b820191906000526020600020905b81548152906001019060200180831161023157829003601f168201915b5050505050905090565b600033610266818585610387565b5060019392505050565b60003361027e8582856104ab565b61028985858561053d565b506001949350505050565b3360008181526001602090815260408083206001600160a01b038716845290915281205490919061026690829086906102ce908790610872565b610387565b6060600480546101d590610837565b3360008181526001602090815260408083206001600160a01b03871684529091528120549091908381101561036c5760405162461bcd60e51b815260206004820152602560248201527f45524332303a2064656372656173656420616c6c6f77616e63652062656c6f77604482015264207a65726f60d81b60648201526084015b60405180910390fd5b6102898286868403610387565b60003361026681858561053d565b6001600160a01b0383166103e95760405162461bcd60e51b8152602060048201526024808201527f45524332303a20617070726f76652066726f6d20746865207a65726f206164646044820152637265737360e01b6064820152608401610363565b6001600160a01b03821661044a5760405162461bcd60e51b815260206004820152602260248201527f45524332303a20617070726f766520746f20746865207a65726f206164647265604482015261737360f01b6064820152608401610363565b6001600160a01b0383811660008181526001602090815260408083209487168084529482529182902085905590518481527f8c5be1e5ebec7d5bd14f71427d1e84f3dd0314c0f7b2291e5b200ac8c7c3b925910160405180910390a3505050565b6001600160a01b038381166000908152600160209081526040808320938616835292905220546000198114610537578181101561052a5760405162461bcd60e51b815260206004820152601d60248201527f45524332303a20696e73756666696369656e7420616c6c6f77616e63650000006044820152606401610363565b6105378484848403610387565b50505050565b6001600160a01b0383166105a15760405162461bcd60e51b815260206004820152602560248201527f45524332303a207472616e736665722066726f6d20746865207a65726f206164604482015264647265737360d81b6064820152608401610363565b6001600160a01b0382166106035760405162461bcd60e51b815260206004820152602360248201527f45524332303a207472616e7366657220746f20746865207a65726f206164647260448201526265737360e81b6064820152608401610363565b6001600160a01b0383166000908152602081905260409020548181101561067b5760405162461bcd60e51b815260206004820152602660248201527f45524332303a207472616e7366657220616d6f756e7420657863656564732062604482015265616c616e636560d01b6064820152608401610363565b6001600160a01b038085166000908152602081905260408082208585039055918516815290812080548492906106b2908490610872565b92505081905550826001600160a01b0316846001600160a01b03167fddf252ad1be2c89b69c2b068fc378daa952ba7f163c4a11628f55a4df523b3ef846040516106fe91815260200190565b60405180910390a3610537565b600060208083528351808285015260005b818110156107385785810183015185820160400152820161071c565b8181111561074a576000604083870101525b50601f01601f1916929092016040019392505050565b80356001600160a01b038116811461077757600080fd5b919050565b6000806040838503121561078f57600080fd5b61079883610760565b946020939093013593505050565b6000806000606084860312156107bb57600080fd5b6107c484610760565b92506107d260208501610760565b9150604084013590509250925092565b6000602082840312156107f457600080fd5b6107fd82610760565b9392505050565b6000806040838503121561081757600080fd5b61082083610760565b915061082e60208401610760565b90509250929050565b600181811c9082168061084b57607f821691505b6020821081141561086c57634e487b7160e01b600052602260045260246000fd5b50919050565b6000821982111561089357634e487b7160e01b600052601160045260246000fd5b50019056fea2646970667358221220dc21b4441b38c938fc91a0f4795af36f7984042d25b03882234d90ca5fb6b60b64736f6c63430008090033",
  "devdoc": {
    "kind": "dev",
    "methods": {
      "addDeployer(address)": {
        "details": "deployers can call distribute function"
      },
      "setGovernance(address)": {
        "params": {
          "_governance": "new governance address to set"
        }
      },
      "vote(address[],uint256[])": {
        "params": {
          "_tokenVote": ": the array of tokens which will recieve tokens",
          "_weights": ": the weights to associate with the tokens listed in _tokenVote"
        }
      }
    },
    "stateVariables": {
      "deprecated": {
        "details": "token => gauge"
      },
      "gauges": {
        "details": "token -> gauge"
      },
      "lockedWeights": {
        "details": "token => weight"
      },
      "tokenVote": {
        "details": "msg.sender => token"
      },
      "usedWeights": {
        "details": "msg.sender => total voting weight of user"
      },
      "veAxial": {
        "details": "This could be an address instead, as we do not use it other than passing the address to the Gauge constructor"
      },
      "votes": {
        "details": "msg.sender => token => votes"
      },
      "weights": {
        "details": "token => weight"
      }
    },
    "version": 1
  },
  "userdoc": {
    "kind": "user",
    "methods": {
      "Axial()": {
        "notice": "the Axial token contraxt"
      },
      "DISTRIBUTION_DEADLINE()": {
        "notice": "max time allowed to pass before distribution (6 hours)"
      },
      "MCAV3()": {
        "notice": "Master Chef Axial V3 contract"
      },
      "acceptGovernance()": {
        "notice": "Allows pendingGovernance to accept their role as governance (protection pattern)"
      },
      "addDeployer(address)": {
        "notice": "adds the specified address to the list of deployers"
      },
      "addGauge(address)": {
        "notice": "Add new token gauge"
      },
      "axialDummyToken()": {
        "notice": "dummy token required for masterchef deposits and withdrawals"
      },
      "collect()": {
        "notice": "Collects AXIAL from MCAV3 for distribution"
      },
      "deposit()": {
        "notice": "Deposits Axial dummy token into MCAV3"
      },
      "deprecateGauge(address)": {
        "notice": "Deprecate existing gauge"
      },
      "distribute(uint256,uint256)": {
        "notice": "Distribute tokens to gauges"
      },
      "getGauge(address)": {
        "notice": "returns the gauge for the specifi(AccruingStake)"
      },
      "governance()": {
        "notice": "address of the governance contract"
      },
      "length()": {
        "notice": "returns the number of tokens currently being voted on"
      },
      "migrateGauge(address,address)": {
        "notice": "Add existing gauge"
      },
      "poke(address)": {
        "notice": "Adjust _owner's votes according to latest _owner's SAXIAL balance"
      },
      "preDistribute()": {
        "notice": "collect AXIAL and update lock information"
      },
      "removeDeployer(address)": {
        "notice": "removes the specified address from the list of deployers"
      },
      "renewGauge(address)": {
        "notice": "Bring Deprecated gauge back into use"
      },
      "reset()": {
        "notice": "Reset votes of msg.sender to 0"
      },
      "sAxial()": {
        "notice": "token for voting on Axial distribution to pools - SAXIAL"
      },
      "setGovernance(address)": {
        "notice": "Allows governance to change governance (for future upgradability)"
      },
      "setPID(uint256)": {
        "notice": "Sets MCAV3 PID"
      },
      "tokens()": {
        "notice": "returns the list of tokens that are currently being voted on"
      },
      "veAxial()": {
        "notice": "token to allow boosting rewards - VEAXIAL"
      },
      "vote(address[],uint256[])": {
        "notice": "Vote with SAXIAL on a gauge, removing any previous votes"
      }
    },
    "version": 1
  },
  "storageLayout": {
    "storage": [
      {
        "astId": 6336,
        "contract": "contracts/GaugeProxy.sol:GaugeProxy",
        "label": "governance",
        "offset": 0,
        "slot": "0",
        "type": "t_address"
      },
      {
        "astId": 6338,
        "contract": "contracts/GaugeProxy.sol:GaugeProxy",
        "label": "pendingGovernance",
        "offset": 0,
        "slot": "1",
        "type": "t_address"
      },
      {
        "astId": 3473,
        "contract": "contracts/GaugeProxy.sol:GaugeProxy",
        "label": "pid",
        "offset": 0,
        "slot": "2",
        "type": "t_uint256"
      },
      {
        "astId": 3475,
        "contract": "contracts/GaugeProxy.sol:GaugeProxy",
        "label": "totalWeight",
        "offset": 0,
        "slot": "3",
        "type": "t_uint256"
      },
      {
        "astId": 3477,
        "contract": "contracts/GaugeProxy.sol:GaugeProxy",
        "label": "lockedTotalWeight",
        "offset": 0,
        "slot": "4",
        "type": "t_uint256"
      },
      {
        "astId": 3479,
        "contract": "contracts/GaugeProxy.sol:GaugeProxy",
        "label": "lockedBalance",
        "offset": 0,
        "slot": "5",
        "type": "t_uint256"
      },
      {
        "astId": 3481,
        "contract": "contracts/GaugeProxy.sol:GaugeProxy",
        "label": "locktime",
        "offset": 0,
        "slot": "6",
        "type": "t_uint256"
      },
      {
        "astId": 3484,
        "contract": "contracts/GaugeProxy.sol:GaugeProxy",
        "label": "_tokens",
        "offset": 0,
        "slot": "7",
        "type": "t_array(t_address)dyn_storage"
      },
      {
        "astId": 3489,
        "contract": "contracts/GaugeProxy.sol:GaugeProxy",
        "label": "gauges",
        "offset": 0,
        "slot": "8",
        "type": "t_mapping(t_address,t_address)"
      },
      {
        "astId": 3494,
        "contract": "contracts/GaugeProxy.sol:GaugeProxy",
        "label": "deprecated",
        "offset": 0,
        "slot": "9",
        "type": "t_mapping(t_address,t_address)"
      },
      {
        "astId": 3499,
        "contract": "contracts/GaugeProxy.sol:GaugeProxy",
        "label": "weights",
        "offset": 0,
        "slot": "10",
        "type": "t_mapping(t_address,t_uint256)"
      },
      {
        "astId": 3504,
        "contract": "contracts/GaugeProxy.sol:GaugeProxy",
        "label": "lockedWeights",
        "offset": 0,
        "slot": "11",
        "type": "t_mapping(t_address,t_uint256)"
      },
      {
        "astId": 3511,
        "contract": "contracts/GaugeProxy.sol:GaugeProxy",
        "label": "votes",
        "offset": 0,
        "slot": "12",
        "type": "t_mapping(t_address,t_mapping(t_address,t_uint256))"
      },
      {
        "astId": 3517,
        "contract": "contracts/GaugeProxy.sol:GaugeProxy",
        "label": "tokenVote",
        "offset": 0,
        "slot": "13",
        "type": "t_mapping(t_address,t_array(t_address)dyn_storage)"
      },
      {
        "astId": 3522,
        "contract": "contracts/GaugeProxy.sol:GaugeProxy",
        "label": "usedWeights",
        "offset": 0,
        "slot": "14",
        "type": "t_mapping(t_address,t_uint256)"
      },
      {
        "astId": 3526,
        "contract": "contracts/GaugeProxy.sol:GaugeProxy",
        "label": "deployers",
        "offset": 0,
        "slot": "15",
        "type": "t_mapping(t_address,t_bool)"
      }
    ],
    "types": {
      "t_address": {
        "encoding": "inplace",
        "label": "address",
        "numberOfBytes": "20"
      },
      "t_array(t_address)dyn_storage": {
        "base": "t_address",
        "encoding": "dynamic_array",
        "label": "address[]",
        "numberOfBytes": "32"
      },
      "t_bool": {
        "encoding": "inplace",
        "label": "bool",
        "numberOfBytes": "1"
      },
      "t_mapping(t_address,t_address)": {
        "encoding": "mapping",
        "key": "t_address",
        "label": "mapping(address => address)",
        "numberOfBytes": "32",
        "value": "t_address"
      },
      "t_mapping(t_address,t_array(t_address)dyn_storage)": {
        "encoding": "mapping",
        "key": "t_address",
        "label": "mapping(address => address[])",
        "numberOfBytes": "32",
        "value": "t_array(t_address)dyn_storage"
      },
      "t_mapping(t_address,t_bool)": {
        "encoding": "mapping",
        "key": "t_address",
        "label": "mapping(address => bool)",
        "numberOfBytes": "32",
        "value": "t_bool"
      },
      "t_mapping(t_address,t_mapping(t_address,t_uint256))": {
        "encoding": "mapping",
        "key": "t_address",
        "label": "mapping(address => mapping(address => uint256))",
        "numberOfBytes": "32",
        "value": "t_mapping(t_address,t_uint256)"
      },
      "t_mapping(t_address,t_uint256)": {
        "encoding": "mapping",
        "key": "t_address",
        "label": "mapping(address => uint256)",
        "numberOfBytes": "32",
        "value": "t_uint256"
      },
      "t_uint256": {
        "encoding": "inplace",
        "label": "uint256",
        "numberOfBytes": "32"
      }
    }
  }
}