{
  "address": "0x53eD616e01536169260C06f8e9e25d1877C01c56",
  "abi": [
    {
      "inputs": [
        {
          "internalType": "address",
          "name": "_governance",
          "type": "address"
        },
        {
          "internalType": "address",
          "name": "_axial",
          "type": "address"
        },
        {
          "internalType": "address",
          "name": "_saxial",
          "type": "address"
        },
        {
          "internalType": "address",
          "name": "_veaxial",
          "type": "address"
        }
      ],
      "stateMutability": "nonpayable",
      "type": "constructor"
    },
    {
      "inputs": [],
      "name": "Axial",
      "outputs": [
        {
          "internalType": "contract IERC20",
          "name": "",
          "type": "address"
        }
      ],
      "stateMutability": "view",
      "type": "function"
    },
    {
      "inputs": [],
      "name": "DISTRIBUTION_DEADLINE",
      "outputs": [
        {
          "internalType": "uint256",
          "name": "",
          "type": "uint256"
        }
      ],
      "stateMutability": "view",
      "type": "function"
    },
    {
      "inputs": [],
      "name": "MCAV2",
      "outputs": [
        {
          "internalType": "contract IMasterChef",
          "name": "",
          "type": "address"
        }
      ],
      "stateMutability": "view",
      "type": "function"
    },
    {
      "inputs": [],
      "name": "acceptGovernance",
      "outputs": [],
      "stateMutability": "nonpayable",
      "type": "function"
    },
    {
      "inputs": [
        {
          "internalType": "address",
          "name": "_deployer",
          "type": "address"
        }
      ],
      "name": "addDeployer",
      "outputs": [],
      "stateMutability": "nonpayable",
      "type": "function"
    },
    {
      "inputs": [
        {
          "internalType": "address",
          "name": "_token",
          "type": "address"
        }
      ],
      "name": "addGauge",
      "outputs": [],
      "stateMutability": "nonpayable",
      "type": "function"
    },
    {
      "inputs": [],
      "name": "axialDummyToken",
      "outputs": [
        {
          "internalType": "contract IERC20",
          "name": "",
          "type": "address"
        }
      ],
      "stateMutability": "view",
      "type": "function"
    },
    {
      "inputs": [],
      "name": "collect",
      "outputs": [],
      "stateMutability": "nonpayable",
      "type": "function"
    },
    {
      "inputs": [
        {
          "internalType": "address",
          "name": "",
          "type": "address"
        }
      ],
      "name": "deployers",
      "outputs": [
        {
          "internalType": "bool",
          "name": "",
          "type": "bool"
        }
      ],
      "stateMutability": "view",
      "type": "function"
    },
    {
      "inputs": [],
      "name": "depositDummyToken",
      "outputs": [],
      "stateMutability": "nonpayable",
      "type": "function"
    },
    {
      "inputs": [
        {
          "internalType": "address",
          "name": "_token",
          "type": "address"
        }
      ],
      "name": "deprecateGauge",
      "outputs": [],
      "stateMutability": "nonpayable",
      "type": "function"
    },
    {
      "inputs": [
        {
          "internalType": "address",
          "name": "",
          "type": "address"
        }
      ],
      "name": "deprecated",
      "outputs": [
        {
          "internalType": "address",
          "name": "",
          "type": "address"
        }
      ],
      "stateMutability": "view",
      "type": "function"
    },
    {
      "inputs": [
        {
          "internalType": "uint256",
          "name": "_start",
          "type": "uint256"
        },
        {
          "internalType": "uint256",
          "name": "_end",
          "type": "uint256"
        }
      ],
      "name": "distribute",
      "outputs": [],
      "stateMutability": "nonpayable",
      "type": "function"
    },
    {
      "inputs": [
        {
          "internalType": "address",
          "name": "",
          "type": "address"
        }
      ],
      "name": "gauges",
      "outputs": [
        {
          "internalType": "address",
          "name": "",
          "type": "address"
        }
      ],
      "stateMutability": "view",
      "type": "function"
    },
    {
      "inputs": [
        {
          "internalType": "address",
          "name": "_token",
          "type": "address"
        }
      ],
      "name": "getGauge",
      "outputs": [
        {
          "internalType": "address",
          "name": "",
          "type": "address"
        }
      ],
      "stateMutability": "view",
      "type": "function"
    },
    {
      "inputs": [],
      "name": "governance",
      "outputs": [
        {
          "internalType": "address",
          "name": "",
          "type": "address"
        }
      ],
      "stateMutability": "view",
      "type": "function"
    },
    {
      "inputs": [],
      "name": "length",
      "outputs": [
        {
          "internalType": "uint256",
          "name": "",
          "type": "uint256"
        }
      ],
      "stateMutability": "view",
      "type": "function"
    },
    {
      "inputs": [
        {
          "internalType": "address",
          "name": "_gauge",
          "type": "address"
        },
        {
          "internalType": "address",
          "name": "_token",
          "type": "address"
        }
      ],
      "name": "migrateGauge",
      "outputs": [],
      "stateMutability": "nonpayable",
      "type": "function"
    },
    {
      "inputs": [],
      "name": "pendingGovernance",
      "outputs": [
        {
          "internalType": "address",
          "name": "",
          "type": "address"
        }
      ],
      "stateMutability": "view",
      "type": "function"
    },
    {
      "inputs": [],
      "name": "pid",
      "outputs": [
        {
          "internalType": "uint256",
          "name": "",
          "type": "uint256"
        }
      ],
      "stateMutability": "view",
      "type": "function"
    },
    {
      "inputs": [
        {
          "internalType": "address",
          "name": "_owner",
          "type": "address"
        }
      ],
      "name": "poke",
      "outputs": [],
      "stateMutability": "nonpayable",
      "type": "function"
    },
    {
      "inputs": [],
      "name": "preDistribute",
      "outputs": [],
      "stateMutability": "nonpayable",
      "type": "function"
    },
    {
      "inputs": [
        {
          "internalType": "address",
          "name": "_deployer",
          "type": "address"
        }
      ],
      "name": "removeDeployer",
      "outputs": [],
      "stateMutability": "nonpayable",
      "type": "function"
    },
    {
      "inputs": [
        {
          "internalType": "address",
          "name": "_token",
          "type": "address"
        }
      ],
      "name": "renewGauge",
      "outputs": [],
      "stateMutability": "nonpayable",
      "type": "function"
    },
    {
      "inputs": [],
      "name": "reset",
      "outputs": [],
      "stateMutability": "nonpayable",
      "type": "function"
    },
    {
      "inputs": [],
      "name": "sAxial",
      "outputs": [
        {
          "internalType": "contract VestingStake",
          "name": "",
          "type": "address"
        }
      ],
      "stateMutability": "view",
      "type": "function"
    },
    {
      "inputs": [
        {
          "internalType": "address",
          "name": "_governance",
          "type": "address"
        }
      ],
      "name": "setGovernance",
      "outputs": [],
      "stateMutability": "nonpayable",
      "type": "function"
    },
    {
      "inputs": [
        {
          "internalType": "address",
          "name": "_masterChef",
          "type": "address"
        }
      ],
      "name": "setMasterChef",
      "outputs": [],
      "stateMutability": "nonpayable",
      "type": "function"
    },
    {
      "inputs": [
        {
          "internalType": "uint256",
          "name": "_pid",
          "type": "uint256"
        }
      ],
      "name": "setPID",
      "outputs": [],
      "stateMutability": "nonpayable",
      "type": "function"
    },
    {
      "inputs": [
        {
          "internalType": "address",
          "name": "",
          "type": "address"
        },
        {
          "internalType": "uint256",
          "name": "",
          "type": "uint256"
        }
      ],
      "name": "tokenVote",
      "outputs": [
        {
          "internalType": "address",
          "name": "",
          "type": "address"
        }
      ],
      "stateMutability": "view",
      "type": "function"
    },
    {
      "inputs": [],
      "name": "tokens",
      "outputs": [
        {
          "internalType": "address[]",
          "name": "",
          "type": "address[]"
        }
      ],
      "stateMutability": "view",
      "type": "function"
    },
    {
      "inputs": [],
      "name": "totalWeight",
      "outputs": [
        {
          "internalType": "uint256",
          "name": "",
          "type": "uint256"
        }
      ],
      "stateMutability": "view",
      "type": "function"
    },
    {
      "inputs": [
        {
          "internalType": "address",
          "name": "",
          "type": "address"
        }
      ],
      "name": "usedWeights",
      "outputs": [
        {
          "internalType": "uint256",
          "name": "",
          "type": "uint256"
        }
      ],
      "stateMutability": "view",
      "type": "function"
    },
    {
      "inputs": [],
      "name": "veAxial",
      "outputs": [
        {
          "internalType": "contract AccruingStake",
          "name": "",
          "type": "address"
        }
      ],
      "stateMutability": "view",
      "type": "function"
    },
    {
      "inputs": [
        {
          "internalType": "address[]",
          "name": "_tokenVote",
          "type": "address[]"
        },
        {
          "internalType": "uint256[]",
          "name": "_weights",
          "type": "uint256[]"
        }
      ],
      "name": "vote",
      "outputs": [],
      "stateMutability": "nonpayable",
      "type": "function"
    },
    {
      "inputs": [
        {
          "internalType": "address",
          "name": "",
          "type": "address"
        },
        {
          "internalType": "address",
          "name": "",
          "type": "address"
        }
      ],
      "name": "votes",
      "outputs": [
        {
          "internalType": "uint256",
          "name": "",
          "type": "uint256"
        }
      ],
      "stateMutability": "view",
      "type": "function"
    },
    {
      "inputs": [
        {
          "internalType": "address",
          "name": "",
          "type": "address"
        }
      ],
      "name": "weights",
      "outputs": [
        {
          "internalType": "uint256",
          "name": "",
          "type": "uint256"
        }
      ],
      "stateMutability": "view",
      "type": "function"
    }
  ],
  "transactionHash": "0x9ad27c22012e7627856f8a735b997cf40e3d06ccb5b1908fc9bbc0d177aec419",
  "args": [
    "0x44A4b9E2A69d86BA382a511f845CbF2E31286770",
    "0x0708F10F657b16ABE18954361E96a641b217648B",
    "0xb7819A8714fCa85239E4b881291819A79Aa703E4",
    "0xeD8583AD6e9A266f38866a1E8058436a4b742D57"
  ],
  "numDeployments": 6,
  "solcInputHash": "f2f8d0e677e72cb537febd167fc9e0c4",
  "bytecode": "0x61010060405260006003553480156200001757600080fd5b50604051620058f8380380620058f88339810160408190526200003a91620000d9565b600080546001600160a01b0319166001600160a01b038681169190911790915583811660a052828116608052811660e0526040516200007990620000ae565b604051809103906000f08015801562000096573d6000803e3d6000fd5b506001600160a01b031660c052506200013692505050565b610b778062004d8183390190565b80516001600160a01b0381168114620000d457600080fd5b919050565b60008060008060808587031215620000f057600080fd5b620000fb85620000bc565b93506200010b60208601620000bc565b92506200011b60408601620000bc565b91506200012b60608601620000bc565b905092959194509250565b60805160a05160c05160e051614bd9620001a8600039600081816106100152610ffb015260008181610588015281816111d10152818161126c01526112a901526000818161029501528181610aa301528181610ada0152610d7a01526000818161051401526117c50152614bd96000f3fe60806040523480156200001157600080fd5b5060043610620002545760003560e01c8063a7cac8461162000149578063d826f88f11620000c7578063f2a1a8ed1162000086578063f2a1a8ed14620005b4578063f315df8614620005cb578063f39c38a014620005e2578063f40485a214620005f6578063fcd5189b146200060a57600080fd5b8063d826f88f1462000564578063e07a3c98146200056e578063e52253811462000578578063ed4355b81462000582578063f106845414620005aa57600080fd5b8063b1c6f0e91162000114578063b1c6f0e9146200049c578063b9a09fd514620004cb578063bdcf150814620004f7578063ca3e3c03146200050e578063cad1b906146200053657600080fd5b8063a7cac8461462000441578063ab033ea91462000464578063ae495365146200047b578063b1a997ac146200048557600080fd5b80637625391a11620001d75780638d06051911620001a25780638d06051914620003d957806396c82e5714620003f05780639d63848a14620003fa5780639da882ac1462000413578063a2d9f4dc146200042a57600080fd5b80637625391a146200038a5780637b66665314620003a15780638283639114620003b8578063880f403914620003c257600080fd5b8063266f803a1162000224578063266f803a14620002e55780635aa6e67514620003115780636848c2bd14620003255780636a2385e8146200033c5780636f816a20146200037357600080fd5b80622f8de4146200025957806303e9f23b146200028f5780631f7b6d3214620002d0578063238efcbc14620002d9575b600080fd5b6200027c6200026a36600462002003565b600f6020526000908152604090205481565b6040519081526020015b60405180910390f35b620002b77f000000000000000000000000000000000000000000000000000000000000000081565b6040516001600160a01b03909116815260200162000286565b6008546200027c565b620002e362000632565b005b620002b7620002f636600462002003565b600a602052600090815260409020546001600160a01b031681565b600054620002b7906001600160a01b031681565b620002e36200033636600462002003565b620006b6565b620003626200034d36600462002003565b60106020526000908152604090205460ff1681565b604051901515815260200162000286565b620002e36200038436600462002070565b62000783565b620002e36200039b366004620020e3565b6200084a565b620002e3620003b236600462002106565b62000b7e565b620002e362000c51565b620002e3620003d336600462002003565b62000e09565b620002e3620003ea3660046200213e565b62000e5a565b6200027c60045481565b6200040462000f1b565b60405162000286919062002158565b620002e36200042436600462002003565b62000f7f565b620002e36200043b36600462002003565b620010cf565b6200027c6200045236600462002003565b600b6020526000908152604090205481565b620002e36200047536600462002003565b62001123565b620002e362001172565b620002e36200049636600462002003565b62001388565b620002b7620004ad36600462002003565b6001600160a01b039081166000908152600960205260409020541690565b620002b7620004dc36600462002003565b6009602052600090815260409020546001600160a01b031681565b620002e36200050836600462002003565b620014f6565b620002b77f000000000000000000000000000000000000000000000000000000000000000081565b6200027c6200054736600462002106565b600d60209081526000928352604080842090915290825290205481565b620002e3620015fe565b6200027c61546081565b620002e36200160b565b620002b77f000000000000000000000000000000000000000000000000000000000000000081565b6200027c60035481565b620002b7620005c5366004620021a7565b6200170f565b620002e3620005dc36600462002003565b62001748565b600154620002b7906001600160a01b031681565b600254620002b7906001600160a01b031681565b620002b77f000000000000000000000000000000000000000000000000000000000000000081565b6001546001600160a01b03163314620006925760405162461bcd60e51b815260206004820152601d60248201527f616363657074476f7665726e616e63653a202170656e64696e67476f7600000060448201526064015b60405180910390fd5b600154600080546001600160a01b0319166001600160a01b03909216919091179055565b6000546001600160a01b03163314620006e35760405162461bcd60e51b81526004016200068990620021d4565b6001600160a01b03818116600090815260096020526040902054166200073d5760405162461bcd60e51b815260206004820152600e60248201526d191bd95cc81b9bdd08195e1a5cdd60921b604482015260640162000689565b6001600160a01b0390811660009081526009602081815260408084208054600a8452919094208054919095166001600160a01b0319918216179094555280549091169055565b828114620007d45760405162461bcd60e51b815260206004820181905260248201527f7765696768742f746f6b656e766f7465206c656e677468206d69736d61746368604482015260640162000689565b6200084433858580806020026020016040519081016040528093929190818152602001838360200280828437600092019190915250506040805160208089028281018201909352888252909350889250879182918501908490808284376000920191909152506200179692505050565b50505050565b3360009081526010602052604090205460ff16806200087357506000546001600160a01b031633145b620008925760405162461bcd60e51b81526004016200068990620021d4565b808210620008d05760405162461bcd60e51b815260206004820152600a6024820152691898590817dcdd185c9d60b21b604482015260640162000689565b6008548111156200090f5760405162461bcd60e51b81526020600482015260086024820152671898590817d95b9960c21b604482015260640162000689565b4261546060075462000922919062002217565b1015620009615760405162461bcd60e51b815260206004820152600c60248201526b1b1bd8dac8195e1c1a5c995960a21b604482015260640162000689565b620009956040518060400160405280600e81526020016d6c6f636b656442616c616e63653d60901b81525060065462001a1f565b620009cd604051806040016040528060128152602001716c6f636b6564546f74616c5765696768743d60701b81525060055462001a1f565b6000600654118015620009e257506000600554115b1562000b7a57815b8181101562000b785760006008828154811062000a0b5762000a0b62002232565b60009182526020808320909101546001600160a01b0390811680845260098352604080852054600454600c909552908520546006549296509216939262000a6092909162000a599162001a68565b9062001a7d565b905062000a8e604051806040016040528060088152602001675f7265776172643d60c01b8152508262001a1f565b801562000b5f5762000acc6001600160a01b037f00000000000000000000000000000000000000000000000000000000000000001683600062001a8b565b62000b026001600160a01b037f000000000000000000000000000000000000000000000000000000000000000016838362001a8b565b604051633c6b16ab60e01b8152600481018290526001600160a01b03831690633c6b16ab90602401600060405180830381600087803b15801562000b4557600080fd5b505af115801562000b5a573d6000803e3d6000fd5b505050505b505050808062000b6f9062002248565b915050620009ea565b505b5050565b6000546001600160a01b0316331462000bab5760405162461bcd60e51b81526004016200068990620021d4565b6001600160a01b03818116600090815260096020526040902054161562000be65760405162461bcd60e51b8152600401620006899062002266565b6001600160a01b0390811660008181526009602052604081208054939094166001600160a01b0319938416179093556008805460018101825593527ff3f7a9fe364faab93b216da50a3214154f22a0a2b415b23a84c8169e8b636ee390920180549091169091179055565b3360009081526010602052604090205460ff168062000c7a57506000546001600160a01b031633145b62000c995760405162461bcd60e51b81526004016200068990620021d4565b60045460055560005b60085481101562000d5a57600b60006008838154811062000cc75762000cc762002232565b9060005260206000200160009054906101000a90046001600160a01b03166001600160a01b03166001600160a01b0316815260200190815260200160002054600c60006008848154811062000d205762000d2062002232565b60009182526020808320909101546001600160a01b031683528201929092526040019020558062000d518162002248565b91505062000ca2565b5062000d656200160b565b6040516370a0823160e01b81523060048201527f00000000000000000000000000000000000000000000000000000000000000006001600160a01b0316906370a082319060240160206040518083038186803b15801562000dc557600080fd5b505afa15801562000dda573d6000803e3d6000fd5b505050506040513d601f19601f8201168201806040525081019062000e00919062002286565b60065542600755565b6000546001600160a01b0316331462000e365760405162461bcd60e51b81526004016200068990620022a0565b6001600160a01b03166000908152601060205260409020805460ff19166001179055565b6000546001600160a01b0316331462000e875760405162461bcd60e51b81526004016200068990620022a0565b6003541562000ed95760405162461bcd60e51b815260206004820152601860248201527f7069642068617320616c7265616479206265656e207365740000000000000000604482015260640162000689565b8062000f165760405162461bcd60e51b815260206004820152600b60248201526a1a5b9d985b1a59081c1a5960aa1b604482015260640162000689565b600355565b6060600880548060200260200160405190810160405280929190818152602001828054801562000f7557602002820191906000526020600020905b81546001600160a01b0316815260019091019060200180831162000f56575b5050505050905090565b6000546001600160a01b0316331462000fac5760405162461bcd60e51b81526004016200068990620021d4565b6001600160a01b03818116600090815260096020526040902054161562000fe75760405162461bcd60e51b8152600401620006899062002266565b60005460405182916001600160a01b0316907f000000000000000000000000000000000000000000000000000000000000000090620010269062001fa3565b6001600160a01b03938416815291831660208301529091166040820152606001604051809103906000f08015801562001063573d6000803e3d6000fd5b506001600160a01b0391821660008181526009602052604081208054939094166001600160a01b0319938416179093556008805460018101825593527ff3f7a9fe364faab93b216da50a3214154f22a0a2b415b23a84c8169e8b636ee390920180549091169091179055565b6000546001600160a01b03163314620010fc5760405162461bcd60e51b81526004016200068990620022a0565b600280546001600160a01b0319166001600160a01b03929092169190911790556000600355565b6000546001600160a01b03163314620011505760405162461bcd60e51b81526004016200068990620022a0565b600180546001600160a01b0319166001600160a01b0392909216919091179055565b600354620011b95760405162461bcd60e51b81526020600482015260136024820152721c1a59081b9bdd081a5b9a5d1a585b1a5e9959606a1b604482015260640162000689565b6040516370a0823160e01b81523060048201526000907f00000000000000000000000000000000000000000000000000000000000000006001600160a01b0316906370a082319060240160206040518083038186803b1580156200121c57600080fd5b505afa15801562001231573d6000803e3d6000fd5b505050506040513d601f19601f8201168201806040525081019062001257919062002286565b60025490915062001297906001600160a01b037f000000000000000000000000000000000000000000000000000000000000000081169116600062001a8b565b600254620012d3906001600160a01b037f0000000000000000000000000000000000000000000000000000000000000000811691168362001a8b565b620013146040518060400160405280601c81526020017f676175676550726f7879417869616c44756d6d7942616c616e63653d000000008152508262001a1f565b600254600354604051631c57762b60e31b81526001600160a01b039092169163e2bbb1589162001351918590600401918252602082015260400190565b600060405180830381600087803b1580156200136c57600080fd5b505af115801562001381573d6000803e3d6000fd5b5050505050565b6001600160a01b0381166000908152600e6020908152604080832080548251818502810185019093528083529192909190830182828015620013f457602002820191906000526020600020905b81546001600160a01b03168152600190910190602001808311620013d5575b5050505050905060008151905060008167ffffffffffffffff8111156200141f576200141f620022d7565b60405190808252806020026020018201604052801562001449578160200160208202803683370190505b50905060005b82811015620014e8576001600160a01b0385166000908152600d6020526040812085519091908690849081106200148a576200148a62002232565b60200260200101516001600160a01b03166001600160a01b0316815260200190815260200160002054828281518110620014c857620014c862002232565b602090810291909101015280620014df8162002248565b9150506200144f565b506200084484848362001796565b6000546001600160a01b03163314620015235760405162461bcd60e51b81526004016200068990620021d4565b6001600160a01b0381811660009081526009602052604090205416156200155e5760405162461bcd60e51b8152600401620006899062002266565b6001600160a01b038181166000908152600a602052604090205416620015b85760405162461bcd60e51b815260206004820152600e60248201526d1b9bdd0819195c1c9958d85d195960921b604482015260640162000689565b6001600160a01b039081166000908152600a60208181526040808420805460098452919094208054919095166001600160a01b0319918216179094555280549091169055565b620016093362001bda565b565b6002546003546040516393f1a40b60e01b815260048101919091523060248201526000916001600160a01b0316906393f1a40b90604401604080518083038186803b1580156200165a57600080fd5b505afa1580156200166f573d6000803e3d6000fd5b505050506040513d601f19601f82011682018060405250810190620016959190620022ed565b50600254600354604051630441a3e760e41b81526004810191909152602481018390529192506001600160a01b03169063441a3e7090604401600060405180830381600087803b158015620016e957600080fd5b505af1158015620016fe573d6000803e3d6000fd5b505050506200170c62001172565b50565b600e60205281600052604060002081815481106200172c57600080fd5b6000918252602090912001546001600160a01b03169150829050565b6000546001600160a01b03163314620017755760405162461bcd60e51b81526004016200068990620022a0565b6001600160a01b03166000908152601060205260409020805460ff19169055565b620017a18362001bda565b8151604051631776451f60e21b81526001600160a01b0385811660048301526000917f000000000000000000000000000000000000000000000000000000000000000090911690635dd9147c9060240160206040518083038186803b1580156200180a57600080fd5b505afa1580156200181f573d6000803e3d6000fd5b505050506040513d601f19601f8201168201806040525081019062001845919062002286565b905060008060005b848110156200189e57620018878682815181106200186f576200186f62002232565b60200260200101518462001cfb90919063ffffffff16565b925080620018958162002248565b9150506200184d565b5060005b84811015620019fa576000878281518110620018c257620018c262002232565b6020908102919091018101516001600160a01b038082166000908152600990935260408320548a519294501691906200192a90879062000a59908a908d908990811062001913576200191362002232565b602002602001015162001a6890919063ffffffff16565b90506001600160a01b03821615620019e15762001948858262001cfb565b6004549095506200195a908262001cfb565b6004556001600160a01b0383166000908152600b602052604090205462001982908262001cfb565b6001600160a01b038085166000818152600b6020908152604080832095909555928f16808252600e845284822080546001810182559083528483200180546001600160a01b031916841790558152600d83528381209181529152208190555b5050508080620019f19062002248565b915050620018a2565b506001600160a01b039096166000908152600f60205260409020959095555050505050565b62000b7a828260405160240162001a389291906200236f565b60408051601f198184030181529190526020810180516001600160e01b03166309710a9d60e41b17905262001d09565b600062001a76828462002393565b9392505050565b600062001a768284620023b5565b80158062001b195750604051636eb1769f60e11b81523060048201526001600160a01b03838116602483015284169063dd62ed3e9060440160206040518083038186803b15801562001adc57600080fd5b505afa15801562001af1573d6000803e3d6000fd5b505050506040513d601f19601f8201168201806040525081019062001b17919062002286565b155b62001b865760405162461bcd60e51b815260206004820152603660248201527f5361666545524332303a20617070726f76652066726f6d206e6f6e2d7a65726f60448201527520746f206e6f6e2d7a65726f20616c6c6f77616e636560501b606482015260840162000689565b604080516001600160a01b038416602482015260448082018490528251808303909101815260649091019091526020810180516001600160e01b031663095ea7b360e01b17905262000b7890849062001d2a565b6001600160a01b0381166000908152600e60205260408120805490915b8181101562001cd757600083828154811062001c175762001c1762002232565b60009182526020808320909101546001600160a01b038881168452600d8352604080852091909216808552925290912054909150801562001cbf5760045462001c61908262001e03565b6004556001600160a01b0382166000908152600b602052604090205462001c89908262001e03565b6001600160a01b038084166000818152600b6020908152604080832095909555928a168152600d83528381209181529152908120555b5050808062001cce9062002248565b91505062001bf7565b506001600160a01b0383166000908152600e6020526040812062000b789162001fb1565b600062001a76828462002217565b80516a636f6e736f6c652e6c6f67602083016000808483855afa5050505050565b600062001d81826040518060400160405280602081526020017f5361666545524332303a206c6f772d6c6576656c2063616c6c206661696c6564815250856001600160a01b031662001e119092919063ffffffff16565b80519091501562000b78578080602001905181019062001da29190620023d8565b62000b785760405162461bcd60e51b815260206004820152602a60248201527f5361666545524332303a204552433230206f7065726174696f6e20646964206e6044820152691bdd081cdd58d8d9595960b21b606482015260840162000689565b600062001a768284620023fc565b606062001e22848460008562001e2a565b949350505050565b60608247101562001e8d5760405162461bcd60e51b815260206004820152602660248201527f416464726573733a20696e73756666696369656e742062616c616e636520666f6044820152651c8818d85b1b60d21b606482015260840162000689565b6001600160a01b0385163b62001ee65760405162461bcd60e51b815260206004820152601d60248201527f416464726573733a2063616c6c20746f206e6f6e2d636f6e7472616374000000604482015260640162000689565b600080866001600160a01b0316858760405162001f04919062002416565b60006040518083038185875af1925050503d806000811462001f43576040519150601f19603f3d011682016040523d82523d6000602084013e62001f48565b606091505b509150915062001f5a82828662001f65565b979650505050505050565b6060831562001f7657508162001a76565b82511562001f875782518084602001fd5b8160405162461bcd60e51b815260040162000689919062002434565b61275a806200244a83390190565b50805460008255906000526020600020908101906200170c91905b8082111562001fe2576000815560010162001fcc565b5090565b80356001600160a01b038116811462001ffe57600080fd5b919050565b6000602082840312156200201657600080fd5b62001a768262001fe6565b60008083601f8401126200203457600080fd5b50813567ffffffffffffffff8111156200204d57600080fd5b6020830191508360208260051b85010111156200206957600080fd5b9250929050565b600080600080604085870312156200208757600080fd5b843567ffffffffffffffff80821115620020a057600080fd5b620020ae8883890162002021565b90965094506020870135915080821115620020c857600080fd5b50620020d78782880162002021565b95989497509550505050565b60008060408385031215620020f757600080fd5b50508035926020909101359150565b600080604083850312156200211a57600080fd5b620021258362001fe6565b9150620021356020840162001fe6565b90509250929050565b6000602082840312156200215157600080fd5b5035919050565b6020808252825182820181905260009190848201906040850190845b818110156200219b5783516001600160a01b03168352928401929184019160010162002174565b50909695505050505050565b60008060408385031215620021bb57600080fd5b620021c68362001fe6565b946020939093013593505050565b6020808252601390820152723ab730baba3437b934bd32b21039b2b73232b960691b604082015260600190565b634e487b7160e01b600052601160045260246000fd5b600082198211156200222d576200222d62002201565b500190565b634e487b7160e01b600052603260045260246000fd5b60006000198214156200225f576200225f62002201565b5060010190565b60208082526006908201526565786973747360d01b604082015260600190565b6000602082840312156200229957600080fd5b5051919050565b6020808252601f908201527f756e617574686f72697a65642073656e6465722028676f7665726e616e636500604082015260600190565b634e487b7160e01b600052604160045260246000fd5b600080604083850312156200230157600080fd5b505080516020909101519092909150565b60005b838110156200232f57818101518382015260200162002315565b83811115620008445750506000910152565b600081518084526200235b81602086016020860162002312565b601f01601f19169290920160200192915050565b60408152600062002384604083018562002341565b90508260208301529392505050565b6000816000190483118215151615620023b057620023b062002201565b500290565b600082620023d357634e487b7160e01b600052601260045260246000fd5b500490565b600060208284031215620023eb57600080fd5b8151801515811462001a7657600080fd5b60008282101562002411576200241162002201565b500390565b600082516200242a81846020870162002312565b9190910192915050565b60208152600062001a7660208301846200234156fe60c06040523480156200001157600080fd5b506040516200275a3803806200275a8339810160408190526200003491620000e5565b600160028190556001600160a01b0393841660a052600480546001600160a01b0319908116331790915560008054948616948216949094178455919093166080526003805493840181559091527fc2575a0e9e593c00f959f8c92f12db2869c3395a3b0502d05e2516446f71f85b909101805490911673cf8419a615c57511807236751c0af38db4ba33511790556200012f565b80516001600160a01b0381168114620000e057600080fd5b919050565b600080600060608486031215620000fb57600080fd5b6200010684620000c8565b92506200011660208501620000c8565b91506200012660408501620000c8565b90509250925092565b60805160a0516125e262000178600039600081816105670152818161181101528181611c8d0152611eeb0152600081816104a101528181611698015261171a01526125e26000f3fe608060405234801561001057600080fd5b506004361061025e5760003560e01c8063789ef0e011610146578063b6b55f25116100c3578063e35c1e2711610087578063e35c1e27146105b1578063e70b9e27146105bb578063e9fad8ee146105e6578063f1229777146105ee578063f39c38a014610601578063f49017721461061457600080fd5b8063b6b55f251461053c578063ca1c9b751461054f578063cbdf382c14610562578063da09d19d14610589578063de5f6268146105a957600080fd5b806396c551751161010a57806396c55175146104c35780639ce43f90146104d6578063a500fa4b146104f6578063ab033ea914610516578063b67c60241461052957600080fd5b8063789ef0e0146104535780637bb7bed114610466578063853828b6146104795780638b473ce8146104815780638ebdcfc61461049c57600080fd5b806336efd16f116101df5780635aa6e675116101a35780635aa6e675146103b357806362b009d9146103c6578063638634ee146103d95780637035ab98146103ec57806370a082311461041757806370fbc10a1461044057600080fd5b806336efd16f1461035d5780633c6b16ab146103705780633c6f778c146103835780633d3b26031461038b57806345b35f56146103ab57600080fd5b8063238efcbc11610226578063238efcbc146102ce57806323cb2390146102d65780632ce9aead146102e95780632e1a7d4d14610309578063348701dc1461031c57600080fd5b80630dc071121461026357806318160ddd146102965780631c1f78eb1461029e5780631c4b774b146102a6578063211dc32d146102bb575b600080fd5b610283610271366004612271565b600d6020526000908152604090205481565b6040519081526020015b60405180910390f35b600c54610283565b610283610627565b6102b96102b436600461228c565b610679565b005b6102836102c93660046122a5565b6109a3565b6102b9610aa5565b6102b96102e43660046122a5565b610b23565b6102836102f7366004612271565b60076020526000908152604090205481565b6102b961031736600461228c565b610c66565b61034561032a366004612271565b6010602052600090815260409020546001600160a01b031681565b6040516001600160a01b03909116815260200161028d565b6102b961036b3660046122d8565b610c72565b6102b961037e36600461228c565b610cc4565b600354610283565b610283610399366004612271565b60086020526000908152604090205481565b6102b961109c565b600054610345906001600160a01b031681565b6102b96103d4366004612271565b6110c2565b6102836103e7366004612271565b61110e565b6102836103fa3660046122a5565b600a60209081526000928352604080842090915290825290205481565b610283610425366004612271565b6001600160a01b03166000908152600e602052604090205490565b6102b961044e3660046122fb565b611138565b610283610461366004612271565b611425565b61034561047436600461228c565b611460565b6102b961148a565b61034573cf8419a615c57511807236751c0af38db4ba335181565b6103457f000000000000000000000000000000000000000000000000000000000000000081565b6102b96104d1366004612271565b6114a5565b6102836104e4366004612271565b60096020526000908152604090205481565b610283610504366004612271565b600f6020526000908152604090205481565b6102b9610524366004612271565b611603565b610283610537366004612271565b61164f565b6102b961054a36600461228c565b6117ee565b600454610345906001600160a01b031681565b6103457f000000000000000000000000000000000000000000000000000000000000000081565b610283610597366004612271565b60066020526000908152604090205481565b6102b96117f8565b61028362093a8081565b6102836105c93660046122a5565b600b60209081526000928352604080842090915290825290205481565b6102b9611899565b6102836105fc366004612271565b6118ba565b600154610345906001600160a01b031681565b6102b961062236600461232e565b611a50565b600080600360008154811061063e5761063e6123a3565b60009182526020808320909101546001600160a01b031680835260089091526040909120549091506106739062093a80611a8c565b91505090565b6002805414156106a45760405162461bcd60e51b815260040161069b906123b9565b60405180910390fd5b600280553360005b600354811015610796576000600382815481106106cb576106cb6123a3565b6000918252602090912001546001600160a01b031690506106eb816118ba565b6001600160a01b038083166000908152600960205260409020919091558316156107635761071983826109a3565b6001600160a01b038085166000818152600b60209081526040808320948716808452948252808320959095556009815284822054928252600a815284822093825292909252919020555b61076c8161110e565b6001600160a01b0390911660009081526007602052604090205561078f81612406565b90506106ac565b506000600383815481106107ac576107ac6123a3565b6000918252602090912001546001600160a01b03169050806108105760405162461bcd60e51b815260206004820152601b60248201527f52657761726420746f6b656e20646f6573206e6f742065786973740000000000604482015260640161069b565b336000908152600b602090815260408083206001600160a01b038516845282529182902054825180840190935260078352667265776172643d60c81b918301919091529061085e9082611a9f565b6040516370a0823160e01b81523060048201526000906001600160a01b038416906370a082319060240160206040518083038186803b1580156108a057600080fd5b505afa1580156108b4573d6000803e3d6000fd5b505050506040513d601f19601f820116820180604052508101906108d89190612421565b90506109046040518060400160405280600881526020016762616c616e63653d60c01b81525082611a9f565b811561097f5761091e6001600160a01b0384163384611ae4565b336000818152600b602090815260408083206001600160a01b038816808552908352818420939093558051868152918201929092527f8e0d3fa908fd7ee819155b3ce71e292b601bbeb0cd00d7758b9d226a523cb827910160405180910390a25b5050506001600160a01b0381161561099a5761099a816114a5565b50506001600255565b6001600160a01b038083166000908152600a602090815260408083209385168352928152828220548351808501909452600684526575525054503d60d01b9184019190915290916109f49082611a9f565b6001600160a01b038085166000818152600b6020908152604080832094881680845294825280832054938352600a82528083209483529390529190912054610a9d91670de0b6b3a764000091610a8291610a8e91610a889085908590610a6390610a5d8d6118ba565b90611b47565b6001600160a01b038d166000908152600f602052604090205490611a8c565b90611b53565b90611b5f565b610a9788611425565b90611a8c565b949350505050565b6001546001600160a01b03163314610aff5760405162461bcd60e51b815260206004820152601d60248201527f616363657074476f7665726e616e63653a202170656e64696e67476f76000000604482015260640161069b565b600154600080546001600160a01b0319166001600160a01b03909216919091179055565b6000546001600160a01b03163314610b4d5760405162461bcd60e51b815260040161069b9061243a565b816001600160a01b0381163b610b9d5760405162461bcd60e51b815260206004820152601560248201527411d85d59d94e881b9bdd08184818dbdb9d1c9858dd605a1b604482015260640161069b565b6001600160a01b038381166000908152601060205260409020541615610bfc5760405162461bcd60e51b8152602060048201526014602482015273546f6b656e20616c726561647920696e2075736560601b604482015260640161069b565b506001600160a01b0391821660008181526010602052604081208054949093166001600160a01b0319948516179092556003805460018101825592527fc2575a0e9e593c00f959f8c92f12db2869c3395a3b0502d05e2516446f71f85b9091018054909216179055565b610c6f81611b6b565b50565b6001600160a01b038116301415610cb65760405162461bcd60e51b8152602060048201526008602482015267085858d8dbdd5b9d60c21b604482015260640161069b565b610cc08282611d88565b5050565b6004546001600160a01b03163314610d1e5760405162461bcd60e51b815260206004820181905260248201527f47617567653a206e6f7420646973747269627574696f6e20636f6e7472616374604482015260640161069b565b6000805b600354811015610e0c57600060038281548110610d4157610d416123a3565b6000918252602090912001546001600160a01b03169050610d61816118ba565b6001600160a01b03808316600090815260096020526040902091909155831615610dd957610d8f83826109a3565b6001600160a01b038085166000818152600b60209081526040808320948716808452948252808320959095556009815284822054928252600a815284822093825292909252919020555b610de28161110e565b6001600160a01b03909116600090815260076020526040902055610e0581612406565b9050610d22565b5060006003600081548110610e2357610e236123a3565b6000918252602090912001546004546001600160a01b039182169250610e4d918391163086611fbf565b6001600160a01b0381166000908152600660205260409020544210610e9757610e798362093a80611b53565b6001600160a01b038216600090815260086020526040902055610f11565b6001600160a01b038116600090815260066020526040812054610eba9042611b47565b6001600160a01b03831660009081526008602052604081205491925090610ee2908390611a8c565b9050610ef562093a80610a828784611b5f565b6001600160a01b03841660009081526008602052604090205550505b6040516370a0823160e01b81523060048201526000906001600160a01b038316906370a082319060240160206040518083038186803b158015610f5357600080fd5b505afa158015610f67573d6000803e3d6000fd5b505050506040513d601f19601f82011682018060405250810190610f8b9190612421565b9050610f9a8162093a80611b53565b6001600160a01b03831660009081526008602052604090205411156110015760405162461bcd60e51b815260206004820152601860248201527f50726f76696465642072657761726420746f6f20686967680000000000000000604482015260640161069b565b6001600160a01b0382166000908152600760205260409020429081905561102b9062093a80611b5f565b6001600160a01b038316600081815260066020908152604091829020939093558051878152928301919091527ffb5edb6eb340a01f6a67189edc978df97841c43752c212fc85995ea230017635910160405180910390a150506001600160a01b03811615610cc057610cc0816114a5565b60005b600354811015610c6f576110b281610679565b6110bb81612406565b905061109f565b6000546001600160a01b031633146110ec5760405162461bcd60e51b815260040161069b9061243a565b600480546001600160a01b0319166001600160a01b0392909216919091179055565b6001600160a01b038116600090815260066020526040812054611132904290611ff7565b92915050565b6000805b6003548110156112265760006003828154811061115b5761115b6123a3565b6000918252602090912001546001600160a01b0316905061117b816118ba565b6001600160a01b038083166000908152600960205260409020919091558316156111f3576111a983826109a3565b6001600160a01b038085166000818152600b60209081526040808320948716808452948252808320959095556009815284822054928252600a815284822093825292909252919020555b6111fc8161110e565b6001600160a01b0390911660009081526007602052604090205561121f81612406565b905061113c565b506001600160a01b038481166000908152601060205260409020541633146112905760405162461bcd60e51b815260206004820152601a60248201527f596f7520646f206e6f742068617665207468652072696768742e000000000000604482015260640161069b565b816112dd5760405162461bcd60e51b815260206004820152601b60248201527f43616e6e6f742073657420726577617264207261746520746f20300000000000604482015260640161069b565b6112f26001600160a01b038516333086611fbf565b6040516370a0823160e01b81523060048201526000906001600160a01b038616906370a082319060240160206040518083038186803b15801561133457600080fd5b505afa158015611348573d6000803e3d6000fd5b505050506040513d601f19601f8201168201806040525081019061136c9190612421565b9050600061137a8483612471565b6001600160a01b038716600090815260076020526040902042908190559091506113a49082611b5f565b6001600160a01b03871660008181526006602090815260408083209490945560088152908390208790558251888152908101919091527ffb5edb6eb340a01f6a67189edc978df97841c43752c212fc85995ea230017635910160405180910390a150506001600160a01b0381161561141f5761141f816114a5565b50505050565b600c546001600160a01b0382166000908152600e602052604081205490919061145690670de0b6b3a7640000612493565b6111329190612471565b6003818154811061147057600080fd5b6000918252602090912001546001600160a01b0316905081565b336000908152600e60205260409020546114a390611b6b565b565b6001600160a01b0381166000908152600f6020526040812054905b60035481101561155a576000600382815481106114df576114df6123a3565b60009182526020808320909101546001600160a01b0316808352600d90915260409091205490915015611549576001600160a01b0381166000908152600d602052604090205461152f9084611b47565b6001600160a01b0382166000908152600d60205260409020555b5061155381612406565b90506114c0565b506115648261164f565b6001600160a01b0383166000908152600f602052604081208290559091505b6003548110156115fe576000600382815481106115a2576115a26123a3565b60009182526020808320909101546001600160a01b0316808352600d9091526040909120549091506115d49084611b5f565b6001600160a01b039091166000908152600d60205260409020556115f781612406565b9050611583565b505050565b6000546001600160a01b0316331461162d5760405162461bcd60e51b815260040161069b9061243a565b600180546001600160a01b0319166001600160a01b0392909216919091179055565b6001600160a01b0381166000908152600e6020526040812054806116765750600092915050565b604051639869e13760e01b81526001600160a01b0384811660048301526000917f000000000000000000000000000000000000000000000000000000000000000090911690639869e1379060240160206040518083038186803b1580156116dc57600080fd5b505afa1580156116f0573d6000803e3d6000fd5b505050506040513d601f19601f820116820180604052508101906117149190612421565b905060007f00000000000000000000000000000000000000000000000000000000000000006001600160a01b031663e7812b7f6040518163ffffffff1660e01b815260040160206040518083038186803b15801561177157600080fd5b505afa158015611785573d6000803e3d6000fd5b505050506040513d601f19601f820116820180604052508101906117a99190612421565b9050600081156117cf576117cc82610a8285600c54611a8c90919063ffffffff16565b90505b836117da82826124b2565b6117e49190612471565b9695505050505050565b610c6f8133611d88565b6040516370a0823160e01b81523360048201526114a3907f00000000000000000000000000000000000000000000000000000000000000006001600160a01b0316906370a082319060240160206040518083038186803b15801561185b57600080fd5b505afa15801561186f573d6000803e3d6000fd5b505050506040513d601f19601f820116820180604052508101906118939190612421565b33611d88565b336000908152600e60205260409020546118b290611b6b565b6114a361109c565b6000600c54600014806118e357506001600160a01b0382166000908152600d6020526040902054155b15611926576001600160a01b0382166000908152600d602052604090205461190a9061200d565b506001600160a01b031660009081526009602052604090205490565b6001600160a01b038216600090815260086020908152604080832054600790925282205461196891670de0b6b3a764000091610a9791908290610a5d8961110e565b905061198e60405180604001604052806002815260200161723d60f01b81525082611a9f565b6000600d6000856001600160a01b03166001600160a01b031681526020019081526020016000205490506119dd6040518060400160405280600381526020016264733d60e81b81525082611a9f565b6001600160a01b0384166000908152600d602090815260408083205460088352818420546007909352922054610a9d92611a31929091610a8291670de0b6b3a764000091610a9791908290610a5d8d61110e565b6001600160a01b03861660009081526009602052604090205490611b5f565b60005b818110156115fe57611a7c838383818110611a7057611a706123a3565b90506020020135610679565b611a8581612406565b9050611a53565b6000611a988284612493565b9392505050565b610cc08282604051602401611ab5929190612522565b60408051601f198184030181529190526020810180516001600160e01b03166309710a9d60e41b17905261204e565b6040516001600160a01b0383166024820152604481018290526115fe90849063a9059cbb60e01b906064015b60408051601f198184030181529190526020810180516001600160e01b03166001600160e01b03199093169290921790915261206f565b6000611a988284612544565b6000611a988284612471565b6000611a9882846124b2565b600280541415611b8d5760405162461bcd60e51b815260040161069b906123b9565b600280553360005b600354811015611c7f57600060038281548110611bb457611bb46123a3565b6000918252602090912001546001600160a01b03169050611bd4816118ba565b6001600160a01b03808316600090815260096020526040902091909155831615611c4c57611c0283826109a3565b6001600160a01b038085166000818152600b60209081526040808320948716808452948252808320959095556009815284822054928252600a815284822093825292909252919020555b611c558161110e565b6001600160a01b03909116600090815260076020526040902055611c7881612406565b9050611b95565b50611cb46001600160a01b037f0000000000000000000000000000000000000000000000000000000000000000163384611ae4565b60008211611cf85760405162461bcd60e51b8152602060048201526011602482015270043616e6e6f74207769746864726177203607c1b604482015260640161069b565b600c54611d059083611b47565b600c55336000908152600e6020526040902054611d229083611b47565b336000818152600e6020526040908190209290925590517f7084f5476618d8e60b11ef0d7d3f06914655adb8793e28ff7f018d4c76d505d590611d689085815260200190565b60405180910390a26001600160a01b0381161561099a5761099a816114a5565b600280541415611daa5760405162461bcd60e51b815260040161069b906123b9565b600280558060005b600354811015611e9c57600060038281548110611dd157611dd16123a3565b6000918252602090912001546001600160a01b03169050611df1816118ba565b6001600160a01b03808316600090815260096020526040902091909155831615611e6957611e1f83826109a3565b6001600160a01b038085166000818152600b60209081526040808320948716808452948252808320959095556009815284822054928252600a815284822093825292909252919020555b611e728161110e565b6001600160a01b03909116600090815260076020526040902055611e9581612406565b9050611db2565b5060008311611ede5760405162461bcd60e51b815260206004820152600e60248201526d043616e6e6f74207374616b6520360941b604482015260640161069b565b611f136001600160a01b037f000000000000000000000000000000000000000000000000000000000000000016833086611fbf565b600c54611f209084611b5f565b600c556001600160a01b0382166000908152600e6020526040902054611f469084611b5f565b6001600160a01b0383166000818152600e6020526040908190209290925590517f9e71bc8eea02a63969f509818f2dafb9254532904319f9dbda79b67bd34a5f3d90611f959086815260200190565b60405180910390a26001600160a01b03811615611fb557611fb5816114a5565b5050600160025550565b6040516001600160a01b038085166024830152831660448201526064810182905261141f9085906323b872dd60e01b90608401611b10565b60008183106120065781611a98565b5090919050565b610c6f8160405160240161202391815260200190565b60408051601f198184030181529190526020810180516001600160e01b031663f5b1bba960e01b1790525b80516a636f6e736f6c652e6c6f67602083016000808483855afa5050505050565b60006120c4826040518060400160405280602081526020017f5361666545524332303a206c6f772d6c6576656c2063616c6c206661696c6564815250856001600160a01b03166121419092919063ffffffff16565b8051909150156115fe57808060200190518101906120e2919061255b565b6115fe5760405162461bcd60e51b815260206004820152602a60248201527f5361666545524332303a204552433230206f7065726174696f6e20646964206e6044820152691bdd081cdd58d8d9595960b21b606482015260840161069b565b6060610a9d8484600085856001600160a01b0385163b6121a35760405162461bcd60e51b815260206004820152601d60248201527f416464726573733a2063616c6c20746f206e6f6e2d636f6e7472616374000000604482015260640161069b565b600080866001600160a01b031685876040516121bf919061257d565b60006040518083038185875af1925050503d80600081146121fc576040519150601f19603f3d011682016040523d82523d6000602084013e612201565b606091505b509150915061221182828661221c565b979650505050505050565b6060831561222b575081611a98565b82511561223b5782518084602001fd5b8160405162461bcd60e51b815260040161069b9190612599565b80356001600160a01b038116811461226c57600080fd5b919050565b60006020828403121561228357600080fd5b611a9882612255565b60006020828403121561229e57600080fd5b5035919050565b600080604083850312156122b857600080fd5b6122c183612255565b91506122cf60208401612255565b90509250929050565b600080604083850312156122eb57600080fd5b823591506122cf60208401612255565b60008060006060848603121561231057600080fd5b61231984612255565b95602085013595506040909401359392505050565b6000806020838503121561234157600080fd5b823567ffffffffffffffff8082111561235957600080fd5b818501915085601f83011261236d57600080fd5b81358181111561237c57600080fd5b8660208260051b850101111561239157600080fd5b60209290920196919550909350505050565b634e487b7160e01b600052603260045260246000fd5b6020808252601f908201527f5265656e7472616e637947756172643a207265656e7472616e742063616c6c00604082015260600190565b634e487b7160e01b600052601160045260246000fd5b600060001982141561241a5761241a6123f0565b5060010190565b60006020828403121561243357600080fd5b5051919050565b6020808252601f908201527f756e617574686f72697a65642073656e6465722028676f7665726e616e636500604082015260600190565b60008261248e57634e487b7160e01b600052601260045260246000fd5b500490565b60008160001904831182151516156124ad576124ad6123f0565b500290565b600082198211156124c5576124c56123f0565b500190565b60005b838110156124e55781810151838201526020016124cd565b8381111561141f5750506000910152565b6000815180845261250e8160208601602086016124ca565b601f01601f19169290920160200192915050565b60408152600061253560408301856124f6565b90508260208301529392505050565b600082821015612556576125566123f0565b500390565b60006020828403121561256d57600080fd5b81518015158114611a9857600080fd5b6000825161258f8184602087016124ca565b9190910192915050565b602081526000611a9860208301846124f656fea2646970667358221220770c1757bceb5350fc8f4b7a5784ae6008f1a89b43a75abffa9af174c6ee58de64736f6c63430008090033a2646970667358221220aedbed7b3b9c193e74d33ed71a3fdb9141eee28814e84562b28bfa5fed4f53db64736f6c6343000809003360806040523480156200001157600080fd5b506040518060400160405280600f81526020016e20bc34b0b6223ab6b6bcaa37b5b2b760891b8152506040518060400160405280600381526020016210561160ea1b81525081600390805190602001906200006e9291906200018f565b508051620000849060049060208401906200018f565b505050620000a133670de0b6b3a7640000620000a760201b60201c565b62000299565b6001600160a01b038216620001025760405162461bcd60e51b815260206004820152601f60248201527f45524332303a206d696e7420746f20746865207a65726f206164647265737300604482015260640160405180910390fd5b806002600082825462000116919062000235565b90915550506001600160a01b038216600090815260208190526040812080548392906200014590849062000235565b90915550506040518181526001600160a01b038316906000907fddf252ad1be2c89b69c2b068fc378daa952ba7f163c4a11628f55a4df523b3ef9060200160405180910390a35050565b8280546200019d906200025c565b90600052602060002090601f016020900481019282620001c157600085556200020c565b82601f10620001dc57805160ff19168380011785556200020c565b828001600101855582156200020c579182015b828111156200020c578251825591602001919060010190620001ef565b506200021a9291506200021e565b5090565b5b808211156200021a57600081556001016200021f565b600082198211156200025757634e487b7160e01b600052601160045260246000fd5b500190565b600181811c908216806200027157607f821691505b602082108114156200029357634e487b7160e01b600052602260045260246000fd5b50919050565b6108ce80620002a96000396000f3fe608060405234801561001057600080fd5b50600436106100a95760003560e01c80633950935111610071578063395093511461012357806370a082311461013657806395d89b411461015f578063a457c2d714610167578063a9059cbb1461017a578063dd62ed3e1461018d57600080fd5b806306fdde03146100ae578063095ea7b3146100cc57806318160ddd146100ef57806323b872dd14610101578063313ce56714610114575b600080fd5b6100b66101c6565b6040516100c3919061070b565b60405180910390f35b6100df6100da36600461077c565b610258565b60405190151581526020016100c3565b6002545b6040519081526020016100c3565b6100df61010f3660046107a6565b610270565b604051601281526020016100c3565b6100df61013136600461077c565b610294565b6100f36101443660046107e2565b6001600160a01b031660009081526020819052604090205490565b6100b66102d3565b6100df61017536600461077c565b6102e2565b6100df61018836600461077c565b610379565b6100f361019b366004610804565b6001600160a01b03918216600090815260016020908152604080832093909416825291909152205490565b6060600380546101d590610837565b80601f016020809104026020016040519081016040528092919081815260200182805461020190610837565b801561024e5780601f106102235761010080835404028352916020019161024e565b820191906000526020600020905b81548152906001019060200180831161023157829003601f168201915b5050505050905090565b600033610266818585610387565b5060019392505050565b60003361027e8582856104ab565b61028985858561053d565b506001949350505050565b3360008181526001602090815260408083206001600160a01b038716845290915281205490919061026690829086906102ce908790610872565b610387565b6060600480546101d590610837565b3360008181526001602090815260408083206001600160a01b03871684529091528120549091908381101561036c5760405162461bcd60e51b815260206004820152602560248201527f45524332303a2064656372656173656420616c6c6f77616e63652062656c6f77604482015264207a65726f60d81b60648201526084015b60405180910390fd5b6102898286868403610387565b60003361026681858561053d565b6001600160a01b0383166103e95760405162461bcd60e51b8152602060048201526024808201527f45524332303a20617070726f76652066726f6d20746865207a65726f206164646044820152637265737360e01b6064820152608401610363565b6001600160a01b03821661044a5760405162461bcd60e51b815260206004820152602260248201527f45524332303a20617070726f766520746f20746865207a65726f206164647265604482015261737360f01b6064820152608401610363565b6001600160a01b0383811660008181526001602090815260408083209487168084529482529182902085905590518481527f8c5be1e5ebec7d5bd14f71427d1e84f3dd0314c0f7b2291e5b200ac8c7c3b925910160405180910390a3505050565b6001600160a01b038381166000908152600160209081526040808320938616835292905220546000198114610537578181101561052a5760405162461bcd60e51b815260206004820152601d60248201527f45524332303a20696e73756666696369656e7420616c6c6f77616e63650000006044820152606401610363565b6105378484848403610387565b50505050565b6001600160a01b0383166105a15760405162461bcd60e51b815260206004820152602560248201527f45524332303a207472616e736665722066726f6d20746865207a65726f206164604482015264647265737360d81b6064820152608401610363565b6001600160a01b0382166106035760405162461bcd60e51b815260206004820152602360248201527f45524332303a207472616e7366657220746f20746865207a65726f206164647260448201526265737360e81b6064820152608401610363565b6001600160a01b0383166000908152602081905260409020548181101561067b5760405162461bcd60e51b815260206004820152602660248201527f45524332303a207472616e7366657220616d6f756e7420657863656564732062604482015265616c616e636560d01b6064820152608401610363565b6001600160a01b038085166000908152602081905260408082208585039055918516815290812080548492906106b2908490610872565b92505081905550826001600160a01b0316846001600160a01b03167fddf252ad1be2c89b69c2b068fc378daa952ba7f163c4a11628f55a4df523b3ef846040516106fe91815260200190565b60405180910390a3610537565b600060208083528351808285015260005b818110156107385785810183015185820160400152820161071c565b8181111561074a576000604083870101525b50601f01601f1916929092016040019392505050565b80356001600160a01b038116811461077757600080fd5b919050565b6000806040838503121561078f57600080fd5b61079883610760565b946020939093013593505050565b6000806000606084860312156107bb57600080fd5b6107c484610760565b92506107d260208501610760565b9150604084013590509250925092565b6000602082840312156107f457600080fd5b6107fd82610760565b9392505050565b6000806040838503121561081757600080fd5b61082083610760565b915061082e60208401610760565b90509250929050565b600181811c9082168061084b57607f821691505b6020821081141561086c57634e487b7160e01b600052602260045260246000fd5b50919050565b6000821982111561089357634e487b7160e01b600052601160045260246000fd5b50019056fea2646970667358221220dc21b4441b38c938fc91a0f4795af36f7984042d25b03882234d90ca5fb6b60b64736f6c63430008090033",
  "devdoc": {
    "kind": "dev",
    "methods": {
      "addDeployer(address)": {
        "details": "deployers can call distribute function"
      },
      "setGovernance(address)": {
        "params": {
          "_governance": "new governance address to set"
        }
      },
      "vote(address[],uint256[])": {
        "params": {
          "_tokenVote": ": the array of tokens which will recieve tokens",
          "_weights": ": the weights to associate with the tokens listed in _tokenVote"
        }
      }
    },
    "stateVariables": {
      "deprecated": {
        "details": "token => gauge"
      },
      "gauges": {
        "details": "token -> gauge"
      },
      "lockedWeights": {
        "details": "token => weight"
      },
      "tokenVote": {
        "details": "msg.sender => token"
      },
      "usedWeights": {
        "details": "msg.sender => total voting weight of user"
      },
      "veAxial": {
        "details": "This could be an address instead, as we do not use it other than passing the address to the Gauge constructor"
      },
      "votes": {
        "details": "msg.sender => token => votes"
      },
      "weights": {
        "details": "token => weight"
      }
    },
    "version": 1
  },
  "userdoc": {
    "kind": "user",
    "methods": {
      "Axial()": {
        "notice": "the Axial token contraxt"
      },
      "DISTRIBUTION_DEADLINE()": {
        "notice": "max time allowed to pass before distribution (6 hours)"
      },
      "MCAV2()": {
        "notice": "Master Chef Axial V2 contract"
      },
      "acceptGovernance()": {
        "notice": "Allows pendingGovernance to accept their role as governance (protection pattern)"
      },
      "addDeployer(address)": {
        "notice": "adds the specified address to the list of deployers"
      },
      "addGauge(address)": {
        "notice": "Add new token gauge"
      },
      "axialDummyToken()": {
        "notice": "dummy token required for masterchef deposits and withdrawals"
      },
      "collect()": {
        "notice": "Collects AXIAL from MCAV2 for distribution"
      },
      "depositDummyToken()": {
        "notice": "Deposits Axial dummy token into MCAV2"
      },
      "deprecateGauge(address)": {
        "notice": "Deprecate existing gauge"
      },
      "distribute(uint256,uint256)": {
        "notice": "Distribute tokens to gauges"
      },
      "getGauge(address)": {
        "notice": "returns the gauge for the specifi(AccruingStake)"
      },
      "governance()": {
        "notice": "address of the governance contract"
      },
      "length()": {
        "notice": "returns the number of tokens currently being voted on"
      },
      "migrateGauge(address,address)": {
        "notice": "Add existing gauge"
      },
      "poke(address)": {
        "notice": "Adjust _owner's votes according to latest _owner's SAXIAL balance"
      },
      "preDistribute()": {
        "notice": "collect AXIAL and update lock information"
      },
      "removeDeployer(address)": {
        "notice": "removes the specified address from the list of deployers"
      },
      "renewGauge(address)": {
        "notice": "Bring Deprecated gauge back into use"
      },
      "reset()": {
        "notice": "Reset votes of msg.sender to 0"
      },
      "sAxial()": {
        "notice": "token for voting on Axial distribution to pools - SAXIAL"
      },
      "setGovernance(address)": {
        "notice": "Allows governance to change governance (for future upgradability)"
      },
      "setMasterChef(address)": {
        "notice": "Sets new MCAV2 address.  Useful for debugging."
      },
      "setPID(uint256)": {
        "notice": "Sets MCAV2 PID"
      },
      "tokens()": {
        "notice": "returns the list of tokens that are currently being voted on"
      },
      "veAxial()": {
        "notice": "token to allow boosting rewards - VEAXIAL"
      },
      "vote(address[],uint256[])": {
        "notice": "Vote with SAXIAL on a gauge, removing any previous votes"
      }
    },
    "version": 1
  },
  "storageLayout": {
    "storage": [
      {
        "astId": 7102,
        "contract": "contracts/GaugeProxy.sol:GaugeProxy",
        "label": "governance",
        "offset": 0,
        "slot": "0",
        "type": "t_address"
      },
      {
        "astId": 7104,
        "contract": "contracts/GaugeProxy.sol:GaugeProxy",
        "label": "pendingGovernance",
        "offset": 0,
        "slot": "1",
        "type": "t_address"
      },
      {
        "astId": 4108,
        "contract": "contracts/GaugeProxy.sol:GaugeProxy",
        "label": "MCAV2",
        "offset": 0,
        "slot": "2",
        "type": "t_contract(IMasterChef)7097"
      },
      {
        "astId": 4131,
        "contract": "contracts/GaugeProxy.sol:GaugeProxy",
        "label": "pid",
        "offset": 0,
        "slot": "3",
        "type": "t_uint256"
      },
      {
        "astId": 4133,
        "contract": "contracts/GaugeProxy.sol:GaugeProxy",
        "label": "totalWeight",
        "offset": 0,
        "slot": "4",
        "type": "t_uint256"
      },
      {
        "astId": 4135,
        "contract": "contracts/GaugeProxy.sol:GaugeProxy",
        "label": "lockedTotalWeight",
        "offset": 0,
        "slot": "5",
        "type": "t_uint256"
      },
      {
        "astId": 4137,
        "contract": "contracts/GaugeProxy.sol:GaugeProxy",
        "label": "lockedBalance",
        "offset": 0,
        "slot": "6",
        "type": "t_uint256"
      },
      {
        "astId": 4139,
        "contract": "contracts/GaugeProxy.sol:GaugeProxy",
        "label": "locktime",
        "offset": 0,
        "slot": "7",
        "type": "t_uint256"
      },
      {
        "astId": 4142,
        "contract": "contracts/GaugeProxy.sol:GaugeProxy",
        "label": "_tokens",
        "offset": 0,
        "slot": "8",
        "type": "t_array(t_address)dyn_storage"
      },
      {
        "astId": 4147,
        "contract": "contracts/GaugeProxy.sol:GaugeProxy",
        "label": "gauges",
        "offset": 0,
        "slot": "9",
        "type": "t_mapping(t_address,t_address)"
      },
      {
        "astId": 4152,
        "contract": "contracts/GaugeProxy.sol:GaugeProxy",
        "label": "deprecated",
        "offset": 0,
        "slot": "10",
        "type": "t_mapping(t_address,t_address)"
      },
      {
        "astId": 4157,
        "contract": "contracts/GaugeProxy.sol:GaugeProxy",
        "label": "weights",
        "offset": 0,
        "slot": "11",
        "type": "t_mapping(t_address,t_uint256)"
      },
      {
        "astId": 4162,
        "contract": "contracts/GaugeProxy.sol:GaugeProxy",
        "label": "lockedWeights",
        "offset": 0,
        "slot": "12",
        "type": "t_mapping(t_address,t_uint256)"
      },
      {
        "astId": 4169,
        "contract": "contracts/GaugeProxy.sol:GaugeProxy",
        "label": "votes",
        "offset": 0,
        "slot": "13",
        "type": "t_mapping(t_address,t_mapping(t_address,t_uint256))"
      },
      {
        "astId": 4175,
        "contract": "contracts/GaugeProxy.sol:GaugeProxy",
        "label": "tokenVote",
        "offset": 0,
        "slot": "14",
        "type": "t_mapping(t_address,t_array(t_address)dyn_storage)"
      },
      {
        "astId": 4180,
        "contract": "contracts/GaugeProxy.sol:GaugeProxy",
        "label": "usedWeights",
        "offset": 0,
        "slot": "15",
        "type": "t_mapping(t_address,t_uint256)"
      },
      {
        "astId": 4184,
        "contract": "contracts/GaugeProxy.sol:GaugeProxy",
        "label": "deployers",
        "offset": 0,
        "slot": "16",
        "type": "t_mapping(t_address,t_bool)"
      }
    ],
    "types": {
      "t_address": {
        "encoding": "inplace",
        "label": "address",
        "numberOfBytes": "20"
      },
      "t_array(t_address)dyn_storage": {
        "base": "t_address",
        "encoding": "dynamic_array",
        "label": "address[]",
        "numberOfBytes": "32"
      },
      "t_bool": {
        "encoding": "inplace",
        "label": "bool",
        "numberOfBytes": "1"
      },
      "t_contract(IMasterChef)7097": {
        "encoding": "inplace",
        "label": "contract IMasterChef",
        "numberOfBytes": "20"
      },
      "t_mapping(t_address,t_address)": {
        "encoding": "mapping",
        "key": "t_address",
        "label": "mapping(address => address)",
        "numberOfBytes": "32",
        "value": "t_address"
      },
      "t_mapping(t_address,t_array(t_address)dyn_storage)": {
        "encoding": "mapping",
        "key": "t_address",
        "label": "mapping(address => address[])",
        "numberOfBytes": "32",
        "value": "t_array(t_address)dyn_storage"
      },
      "t_mapping(t_address,t_bool)": {
        "encoding": "mapping",
        "key": "t_address",
        "label": "mapping(address => bool)",
        "numberOfBytes": "32",
        "value": "t_bool"
      },
      "t_mapping(t_address,t_mapping(t_address,t_uint256))": {
        "encoding": "mapping",
        "key": "t_address",
        "label": "mapping(address => mapping(address => uint256))",
        "numberOfBytes": "32",
        "value": "t_mapping(t_address,t_uint256)"
      },
      "t_mapping(t_address,t_uint256)": {
        "encoding": "mapping",
        "key": "t_address",
        "label": "mapping(address => uint256)",
        "numberOfBytes": "32",
        "value": "t_uint256"
      },
      "t_uint256": {
        "encoding": "inplace",
        "label": "uint256",
        "numberOfBytes": "32"
      }
    }
  }
}