{
  "address": "0xe9F07E9129FB2647A7d5F44EFF58fE973446EdD8",
  "abi": [
    {
      "inputs": [
        {
          "internalType": "address",
          "name": "_sAXIAL",
          "type": "address"
        }
      ],
      "stateMutability": "nonpayable",
      "type": "constructor"
    },
    {
      "anonymous": false,
      "inputs": [
        {
          "indexed": false,
          "internalType": "uint256",
          "name": "newExecutionDelay",
          "type": "uint256"
        }
      ],
      "name": "ExecutionDelayChanged",
      "type": "event"
    },
    {
      "anonymous": false,
      "inputs": [
        {
          "indexed": false,
          "internalType": "uint256",
          "name": "newMinimumVotingPeriod",
          "type": "uint256"
        }
      ],
      "name": "MinimumVotingPeriodChanged",
      "type": "event"
    },
    {
      "anonymous": false,
      "inputs": [
        {
          "indexed": false,
          "internalType": "uint256",
          "name": "proposalId",
          "type": "uint256"
        },
        {
          "indexed": false,
          "internalType": "address",
          "name": "voter",
          "type": "address"
        },
        {
          "indexed": false,
          "internalType": "uint256",
          "name": "support",
          "type": "uint256"
        },
        {
          "indexed": false,
          "internalType": "uint256",
          "name": "votes",
          "type": "uint256"
        }
      ],
      "name": "NewVote",
      "type": "event"
    },
    {
      "anonymous": false,
      "inputs": [
        {
          "indexed": true,
          "internalType": "address",
          "name": "previousOwner",
          "type": "address"
        },
        {
          "indexed": true,
          "internalType": "address",
          "name": "newOwner",
          "type": "address"
        }
      ],
      "name": "OwnershipTransferred",
      "type": "event"
    },
    {
      "anonymous": false,
      "inputs": [
        {
          "indexed": false,
          "internalType": "uint256",
          "name": "proposalId",
          "type": "uint256"
        },
        {
          "indexed": false,
          "internalType": "address",
          "name": "proposer",
          "type": "address"
        },
        {
          "indexed": false,
          "internalType": "string",
          "name": "title",
          "type": "string"
        }
      ],
      "name": "ProposalCreated",
      "type": "event"
    },
    {
      "anonymous": false,
      "inputs": [
        {
          "indexed": false,
          "internalType": "uint256",
          "name": "proposalId",
          "type": "uint256"
        },
        {
          "indexed": false,
          "internalType": "address",
          "name": "executor",
          "type": "address"
        }
      ],
      "name": "ProposalExecuted",
      "type": "event"
    },
    {
      "anonymous": false,
      "inputs": [
        {
          "indexed": false,
          "internalType": "uint256",
          "name": "newProposalThreshold",
          "type": "uint256"
        }
      ],
      "name": "ProposalThresholdChanged",
      "type": "event"
    },
    {
      "anonymous": false,
      "inputs": [
        {
          "indexed": false,
          "internalType": "uint256",
          "name": "newQuorumVotes",
          "type": "uint256"
        }
      ],
      "name": "QuorumVotesChanges",
      "type": "event"
    },
    {
      "inputs": [],
      "name": "EXECUTION_DELAY_MAXIMUM",
      "outputs": [
        {
          "internalType": "uint256",
          "name": "",
          "type": "uint256"
        }
      ],
      "stateMutability": "view",
      "type": "function"
    },
    {
      "inputs": [],
      "name": "EXECUTION_DELAY_MINIMUM",
      "outputs": [
        {
          "internalType": "uint256",
          "name": "",
          "type": "uint256"
        }
      ],
      "stateMutability": "view",
      "type": "function"
    },
    {
      "inputs": [],
      "name": "EXPIRATION_PERIOD",
      "outputs": [
        {
          "internalType": "uint256",
          "name": "",
          "type": "uint256"
        }
      ],
      "stateMutability": "view",
      "type": "function"
    },
    {
      "inputs": [],
      "name": "PROPOSAL_THRESHOLD_MAXIMUM",
      "outputs": [
        {
          "internalType": "uint256",
          "name": "",
          "type": "uint256"
        }
      ],
      "stateMutability": "view",
      "type": "function"
    },
    {
      "inputs": [],
      "name": "PROPOSAL_THRESHOLD_MINIMUM",
      "outputs": [
        {
          "internalType": "uint256",
          "name": "",
          "type": "uint256"
        }
      ],
      "stateMutability": "view",
      "type": "function"
    },
    {
      "inputs": [],
      "name": "QUORUM_VOTES_MAXIMUM",
      "outputs": [
        {
          "internalType": "uint256",
          "name": "",
          "type": "uint256"
        }
      ],
      "stateMutability": "view",
      "type": "function"
    },
    {
      "inputs": [],
      "name": "QUORUM_VOTES_MINIMUM",
      "outputs": [
        {
          "internalType": "uint256",
          "name": "",
          "type": "uint256"
        }
      ],
      "stateMutability": "view",
      "type": "function"
    },
    {
      "inputs": [],
      "name": "VOTING_PERIOD_MAXIMUM",
      "outputs": [
        {
          "internalType": "uint256",
          "name": "",
          "type": "uint256"
        }
      ],
      "stateMutability": "view",
      "type": "function"
    },
    {
      "inputs": [],
      "name": "VOTING_PERIOD_MINIMUM",
      "outputs": [
        {
          "internalType": "uint256",
          "name": "",
          "type": "uint256"
        }
      ],
      "stateMutability": "view",
      "type": "function"
    },
    {
      "inputs": [
        {
          "internalType": "string[]",
          "name": "_labels",
          "type": "string[]"
        },
        {
          "internalType": "address[]",
          "name": "_targets",
          "type": "address[]"
        },
        {
          "internalType": "uint256[]",
          "name": "_values",
          "type": "uint256[]"
        },
        {
          "internalType": "bytes[]",
          "name": "_data",
          "type": "bytes[]"
        }
      ],
      "name": "constructProposalExecutionContexts",
      "outputs": [
        {
          "components": [
            {
              "internalType": "uint256",
              "name": "length",
              "type": "uint256"
            },
            {
              "components": [
                {
                  "internalType": "string",
                  "name": "label",
                  "type": "string"
                },
                {
                  "internalType": "address",
                  "name": "target",
                  "type": "address"
                },
                {
                  "internalType": "uint256",
                  "name": "value",
                  "type": "uint256"
                },
                {
                  "internalType": "bytes",
                  "name": "data",
                  "type": "bytes"
                }
              ],
              "internalType": "struct Governance.ProposalExecutionContext[]",
              "name": "contexts",
              "type": "tuple[]"
            }
          ],
          "internalType": "struct Governance.ProposalExecutionContextList",
          "name": "",
          "type": "tuple"
        }
      ],
      "stateMutability": "pure",
      "type": "function"
    },
    {
      "inputs": [
        {
          "internalType": "string",
          "name": "_title",
          "type": "string"
        },
        {
          "internalType": "string",
          "name": "_metadata",
          "type": "string"
        },
        {
          "internalType": "uint256",
          "name": "_votingPeriod",
          "type": "uint256"
        },
        {
          "internalType": "bool",
          "name": "_isBoolean",
          "type": "bool"
        }
      ],
      "name": "constructProposalMetadata",
      "outputs": [
        {
          "components": [
            {
              "internalType": "string",
              "name": "title",
              "type": "string"
            },
            {
              "internalType": "string",
              "name": "metadata",
              "type": "string"
            },
            {
              "internalType": "address",
              "name": "proposer",
              "type": "address"
            },
            {
              "internalType": "address",
              "name": "executor",
              "type": "address"
            },
            {
              "internalType": "uint256",
              "name": "startTime",
              "type": "uint256"
            },
            {
              "internalType": "uint256",
              "name": "votingPeriod",
              "type": "uint256"
            },
            {
              "internalType": "uint256",
              "name": "quorumVotes",
              "type": "uint256"
            },
            {
              "internalType": "uint256",
              "name": "executionDelay",
              "type": "uint256"
            },
            {
              "internalType": "uint256[]",
              "name": "votes",
              "type": "uint256[]"
            },
            {
              "internalType": "bool",
              "name": "isBoolean",
              "type": "bool"
            },
            {
              "components": [
                {
                  "internalType": "uint256",
                  "name": "length",
                  "type": "uint256"
                },
                {
                  "components": [
                    {
                      "internalType": "string",
                      "name": "label",
                      "type": "string"
                    },
                    {
                      "internalType": "address",
                      "name": "target",
                      "type": "address"
                    },
                    {
                      "internalType": "uint256",
                      "name": "value",
                      "type": "uint256"
                    },
                    {
                      "internalType": "bytes",
                      "name": "data",
                      "type": "bytes"
                    }
                  ],
                  "internalType": "struct Governance.ProposalExecutionContext[]",
                  "name": "contexts",
                  "type": "tuple[]"
                }
              ],
              "internalType": "struct Governance.ProposalExecutionContextList",
              "name": "executionContexts",
              "type": "tuple"
            }
          ],
          "internalType": "struct Governance.Proposal",
          "name": "",
          "type": "tuple"
        }
      ],
      "stateMutability": "pure",
      "type": "function"
    },
    {
      "inputs": [
        {
          "internalType": "uint256",
          "name": "_proposalId",
          "type": "uint256"
        }
      ],
      "name": "execute",
      "outputs": [
        {
          "internalType": "bytes[]",
          "name": "",
          "type": "bytes[]"
        }
      ],
      "stateMutability": "payable",
      "type": "function"
    },
    {
      "inputs": [],
      "name": "executionDelay",
      "outputs": [
        {
          "internalType": "uint256",
          "name": "",
          "type": "uint256"
        }
      ],
      "stateMutability": "view",
      "type": "function"
    },
    {
      "inputs": [
        {
          "internalType": "uint256",
          "name": "_proposalId",
          "type": "uint256"
        },
        {
          "internalType": "address",
          "name": "_voter",
          "type": "address"
        }
      ],
      "name": "getReceipt",
      "outputs": [
        {
          "components": [
            {
              "internalType": "bool",
              "name": "hasVoted",
              "type": "bool"
            },
            {
              "internalType": "uint256",
              "name": "support",
              "type": "uint256"
            },
            {
              "internalType": "uint256",
              "name": "votes",
              "type": "uint256"
            }
          ],
          "internalType": "struct Governance.Receipt",
          "name": "",
          "type": "tuple"
        }
      ],
      "stateMutability": "view",
      "type": "function"
    },
    {
      "inputs": [
        {
          "internalType": "address",
          "name": "",
          "type": "address"
        }
      ],
      "name": "lastProposalByAddress",
      "outputs": [
        {
          "internalType": "uint256",
          "name": "",
          "type": "uint256"
        }
      ],
      "stateMutability": "view",
      "type": "function"
    },
    {
      "inputs": [],
      "name": "minimumVotingPeriod",
      "outputs": [
        {
          "internalType": "uint256",
          "name": "",
          "type": "uint256"
        }
      ],
      "stateMutability": "view",
      "type": "function"
    },
    {
      "inputs": [],
      "name": "owner",
      "outputs": [
        {
          "internalType": "address",
          "name": "",
          "type": "address"
        }
      ],
      "stateMutability": "view",
      "type": "function"
    },
    {
      "inputs": [],
      "name": "proposalCount",
      "outputs": [
        {
          "internalType": "uint256",
          "name": "",
          "type": "uint256"
        }
      ],
      "stateMutability": "view",
      "type": "function"
    },
    {
      "inputs": [],
      "name": "proposalThreshold",
      "outputs": [
        {
          "internalType": "uint256",
          "name": "",
          "type": "uint256"
        }
      ],
      "stateMutability": "view",
      "type": "function"
    },
    {
      "inputs": [
        {
          "internalType": "uint256",
          "name": "",
          "type": "uint256"
        }
      ],
      "name": "proposals",
      "outputs": [
        {
          "internalType": "string",
          "name": "title",
          "type": "string"
        },
        {
          "internalType": "string",
          "name": "metadata",
          "type": "string"
        },
        {
          "internalType": "address",
          "name": "proposer",
          "type": "address"
        },
        {
          "internalType": "address",
          "name": "executor",
          "type": "address"
        },
        {
          "internalType": "uint256",
          "name": "startTime",
          "type": "uint256"
        },
        {
          "internalType": "uint256",
          "name": "votingPeriod",
          "type": "uint256"
        },
        {
          "internalType": "uint256",
          "name": "quorumVotes",
          "type": "uint256"
        },
        {
          "internalType": "uint256",
          "name": "executionDelay",
          "type": "uint256"
        },
        {
          "internalType": "bool",
          "name": "isBoolean",
          "type": "bool"
        },
        {
          "components": [
            {
              "internalType": "uint256",
              "name": "length",
              "type": "uint256"
            },
            {
              "components": [
                {
                  "internalType": "string",
                  "name": "label",
                  "type": "string"
                },
                {
                  "internalType": "address",
                  "name": "target",
                  "type": "address"
                },
                {
                  "internalType": "uint256",
                  "name": "value",
                  "type": "uint256"
                },
                {
                  "internalType": "bytes",
                  "name": "data",
                  "type": "bytes"
                }
              ],
              "internalType": "struct Governance.ProposalExecutionContext[]",
              "name": "contexts",
              "type": "tuple[]"
            }
          ],
          "internalType": "struct Governance.ProposalExecutionContextList",
          "name": "executionContexts",
          "type": "tuple"
        }
      ],
      "stateMutability": "view",
      "type": "function"
    },
    {
      "inputs": [
        {
          "components": [
            {
              "internalType": "string",
              "name": "title",
              "type": "string"
            },
            {
              "internalType": "string",
              "name": "metadata",
              "type": "string"
            },
            {
              "internalType": "address",
              "name": "proposer",
              "type": "address"
            },
            {
              "internalType": "address",
              "name": "executor",
              "type": "address"
            },
            {
              "internalType": "uint256",
              "name": "startTime",
              "type": "uint256"
            },
            {
              "internalType": "uint256",
              "name": "votingPeriod",
              "type": "uint256"
            },
            {
              "internalType": "uint256",
              "name": "quorumVotes",
              "type": "uint256"
            },
            {
              "internalType": "uint256",
              "name": "executionDelay",
              "type": "uint256"
            },
            {
              "internalType": "uint256[]",
              "name": "votes",
              "type": "uint256[]"
            },
            {
              "internalType": "bool",
              "name": "isBoolean",
              "type": "bool"
            },
            {
              "components": [
                {
                  "internalType": "uint256",
                  "name": "length",
                  "type": "uint256"
                },
                {
                  "components": [
                    {
                      "internalType": "string",
                      "name": "label",
                      "type": "string"
                    },
                    {
                      "internalType": "address",
                      "name": "target",
                      "type": "address"
                    },
                    {
                      "internalType": "uint256",
                      "name": "value",
                      "type": "uint256"
                    },
                    {
                      "internalType": "bytes",
                      "name": "data",
                      "type": "bytes"
                    }
                  ],
                  "internalType": "struct Governance.ProposalExecutionContext[]",
                  "name": "contexts",
                  "type": "tuple[]"
                }
              ],
              "internalType": "struct Governance.ProposalExecutionContextList",
              "name": "executionContexts",
              "type": "tuple"
            }
          ],
          "internalType": "struct Governance.Proposal",
          "name": "_metaData",
          "type": "tuple"
        },
        {
          "components": [
            {
              "internalType": "uint256",
              "name": "length",
              "type": "uint256"
            },
            {
              "components": [
                {
                  "internalType": "string",
                  "name": "label",
                  "type": "string"
                },
                {
                  "internalType": "address",
                  "name": "target",
                  "type": "address"
                },
                {
                  "internalType": "uint256",
                  "name": "value",
                  "type": "uint256"
                },
                {
                  "internalType": "bytes",
                  "name": "data",
                  "type": "bytes"
                }
              ],
              "internalType": "struct Governance.ProposalExecutionContext[]",
              "name": "contexts",
              "type": "tuple[]"
            }
          ],
          "internalType": "struct Governance.ProposalExecutionContextList",
          "name": "_executionContexts",
          "type": "tuple"
        }
      ],
      "name": "propose",
      "outputs": [],
      "stateMutability": "nonpayable",
      "type": "function"
    },
    {
      "inputs": [],
      "name": "quorumVotes",
      "outputs": [
        {
          "internalType": "uint256",
          "name": "",
          "type": "uint256"
        }
      ],
      "stateMutability": "view",
      "type": "function"
    },
    {
      "inputs": [
        {
          "internalType": "uint256",
          "name": "",
          "type": "uint256"
        },
        {
          "internalType": "address",
          "name": "",
          "type": "address"
        }
      ],
      "name": "receipts",
      "outputs": [
        {
          "internalType": "bool",
          "name": "hasVoted",
          "type": "bool"
        },
        {
          "internalType": "uint256",
          "name": "support",
          "type": "uint256"
        },
        {
          "internalType": "uint256",
          "name": "votes",
          "type": "uint256"
        }
      ],
      "stateMutability": "view",
      "type": "function"
    },
    {
      "inputs": [],
      "name": "renounceOwnership",
      "outputs": [],
      "stateMutability": "nonpayable",
      "type": "function"
    },
    {
      "inputs": [],
      "name": "sAXIAL",
      "outputs": [
        {
          "internalType": "contract IsAxial",
          "name": "",
          "type": "address"
        }
      ],
      "stateMutability": "view",
      "type": "function"
    },
    {
      "inputs": [
        {
          "internalType": "uint256",
          "name": "_seconds",
          "type": "uint256"
        }
      ],
      "name": "setExecutionDelay",
      "outputs": [],
      "stateMutability": "nonpayable",
      "type": "function"
    },
    {
      "inputs": [
        {
          "internalType": "uint256",
          "name": "_seconds",
          "type": "uint256"
        }
      ],
      "name": "setMinimumVotingPeriod",
      "outputs": [],
      "stateMutability": "nonpayable",
      "type": "function"
    },
    {
      "inputs": [
        {
          "internalType": "uint256",
          "name": "_votes",
          "type": "uint256"
        }
      ],
      "name": "setProposalThreshold",
      "outputs": [],
      "stateMutability": "nonpayable",
      "type": "function"
    },
    {
      "inputs": [
        {
          "internalType": "uint256",
          "name": "_votes",
          "type": "uint256"
        }
      ],
      "name": "setQuorumVotes",
      "outputs": [],
      "stateMutability": "nonpayable",
      "type": "function"
    },
    {
      "inputs": [
        {
          "internalType": "uint256",
          "name": "_proposalId",
          "type": "uint256"
        }
      ],
      "name": "state",
      "outputs": [
        {
          "internalType": "enum Governance.ProposalState",
          "name": "",
          "type": "uint8"
        }
      ],
      "stateMutability": "view",
      "type": "function"
    },
    {
      "inputs": [
        {
          "internalType": "address",
          "name": "newOwner",
          "type": "address"
        }
      ],
      "name": "transferOwnership",
      "outputs": [],
      "stateMutability": "nonpayable",
      "type": "function"
    },
    {
      "inputs": [
        {
          "internalType": "uint256",
          "name": "_proposalId",
          "type": "uint256"
        },
        {
          "internalType": "uint256",
          "name": "_support",
          "type": "uint256"
        }
      ],
      "name": "vote",
      "outputs": [],
      "stateMutability": "nonpayable",
      "type": "function"
    }
  ],
  "transactionHash": "0xc7ec687676f9352a556389f82c82fa0e5a57caeb2290ffc436f6466692e18432",
  "args": [
    "0xb7819A8714fCa85239E4b881291819A79Aa703E4"
  ],
  "numDeployments": 1,
  "solcInputHash": "e27f9ad56464dba9ff2a812a71250941",
  "bytecode": "0x60806040526203f48060025562015180600355620493e0600455620186a06005553480156200002d57600080fd5b5060405162003493380380620034938339810160408190526200005091620000d8565b6001600055620000603362000086565b600a80546001600160a01b0319166001600160a01b03929092169190911790556200010a565b600180546001600160a01b038381166001600160a01b0319831681179093556040519116919082907f8be0079c531659141344cd1fd0a4f28419497f9722a3daafe3b4186f6b6457e090600090a35050565b600060208284031215620000eb57600080fd5b81516001600160a01b03811681146200010357600080fd5b9392505050565b613379806200011a6000396000f3fe6080604052600436106101e35760003560e01c80638ac56a5311610102578063da35c66411610095578063ece40cc111610064578063ece40cc1146105a2578063f2fde38b146105c2578063fdfd7d44146105e2578063fe0d94c11461060257600080fd5b8063da35c66414610513578063e23a9a5214610529578063e4917d9f1461056d578063ea014f481461058d57600080fd5b8063b1c360ed116100d1578063b1c360ed146104b0578063b384abef146104c6578063b58131b0146104e6578063ca75960b146104fc57600080fd5b80638ac56a531461043b5780638b257989146104525780638da5cb5b146104685780638e19855e1461049a57600080fd5b80635a1daf731161017a578063715018a611610149578063715018a6146103c15780637ba456af146103d65780637cc7b87a146103ee57806387ce23f51461040e57600080fd5b80635a1daf731461026d578063645c71511461036657806368c671431461037d5780636dedc06e146103aa57600080fd5b806334e5e95a116101b657806334e5e95a1461028457806338249a49146102b15780633e4f49e6146102d15780634178b249146102fe57600080fd5b8063013cf08b146101e857806302ec8f9e1461022757806324bc1a64146102495780632e54929c1461026d575b600080fd5b3480156101f457600080fd5b50610208610203366004612638565b610622565b60405161021e9a9998979695949392919061274e565b60405180910390f35b34801561023357600080fd5b50610247610242366004612638565b610949565b005b34801561025557600080fd5b5061025f60045481565b60405190815260200161021e565b34801561027957600080fd5b5061025f62278d0081565b34801561029057600080fd5b506102a461029f366004612835565b610a7b565b60405161021e91906128f7565b3480156102bd57600080fd5b506102476102cc366004612638565b610b16565b3480156102dd57600080fd5b506102f16102ec366004612638565b610c47565b60405161021e9190612a04565b34801561030a57600080fd5b50610349610319366004612a43565b600860209081526000928352604080842090915290825290208054600182015460029092015460ff909116919083565b60408051931515845260208401929092529082015260600161021e565b34801561037257600080fd5b5061025f620186a081565b34801561038957600080fd5b5061025f610398366004612a6f565b60096020526000908152604090205481565b3480156103b657600080fd5b5061025f6201518081565b3480156103cd57600080fd5b50610247611211565b3480156103e257600080fd5b5061025f630112a88081565b3480156103fa57600080fd5b50610247610409366004612d9e565b611247565b34801561041a57600080fd5b5061042e610429366004612f42565b6117da565b60405161021e9190613005565b34801561044757600080fd5b5061025f6298968081565b34801561045e57600080fd5b5061025f60035481565b34801561047457600080fd5b506001546001600160a01b03165b6040516001600160a01b03909116815260200161021e565b3480156104a657600080fd5b5061025f61c35081565b3480156104bc57600080fd5b5061025f60025481565b3480156104d257600080fd5b506102476104e1366004613018565b611a42565b3480156104f257600080fd5b5061025f60055481565b34801561050857600080fd5b5061025f6212750081565b34801561051f57600080fd5b5061025f60065481565b34801561053557600080fd5b50610549610544366004612a43565b611c92565b6040805182511515815260208084015190820152918101519082015260600161021e565b34801561057957600080fd5b50610247610588366004612638565b611d07565b34801561059957600080fd5b5061025f601e81565b3480156105ae57600080fd5b506102476105bd366004612638565b611e2c565b3480156105ce57600080fd5b506102476105dd366004612a6f565b611f58565b3480156105ee57600080fd5b50600a54610482906001600160a01b031681565b610615610610366004612638565b611ff3565b60405161021e919061303a565b60076020526000908152604090208054819061063d9061309c565b80601f01602080910402602001604051908101604052809291908181526020018280546106699061309c565b80156106b65780601f1061068b576101008083540402835291602001916106b6565b820191906000526020600020905b81548152906001019060200180831161069957829003601f168201915b5050505050908060010180546106cb9061309c565b80601f01602080910402602001604051908101604052809291908181526020018280546106f79061309c565b80156107445780601f1061071957610100808354040283529160200191610744565b820191906000526020600020905b81548152906001019060200180831161072757829003601f168201915b505050506002830154600384015460048501546005860154600687015460078801546009890154604080518082018252600a8c0180548252600b8d01805484516020808302820181019096528181529d9e6001600160a01b039c8d169e9c909b169c50989a97999698959760ff909516969592949193808601939060009084015b8282101561093c57838290600052602060002090600402016040518060800160405290816000820180546107f89061309c565b80601f01602080910402602001604051908101604052809291908181526020018280546108249061309c565b80156108715780601f1061084657610100808354040283529160200191610871565b820191906000526020600020905b81548152906001019060200180831161085457829003601f168201915b505050918352505060018201546001600160a01b03166020820152600282015460408201526003820180546060909201916108ab9061309c565b80601f01602080910402602001604051908101604052809291908181526020018280546108d79061309c565b80156109245780601f106108f957610100808354040283529160200191610924565b820191906000526020600020905b81548152906001019060200180831161090757829003601f168201915b505050505081525050815260200190600101906107c5565b505050508152505090508a565b6001546001600160a01b0316331461097c5760405162461bcd60e51b8152600401610973906130d7565b60405180910390fd5b620186a08110156109dd5760405162461bcd60e51b815260206004820152602560248201527f476f7665726e616e63653a3a73657451756f72756d566f7465733a20544f4f5f60448201526414d350531360da1b6064820152608401610973565b630112a880811115610a3f5760405162461bcd60e51b815260206004820152602560248201527f476f7665726e616e63653a3a73657451756f72756d566f7465733a20544f4f5f6044820152644c4152474560d81b6064820152608401610973565b60048190556040518181527f4d82feec215c8e1f4d904b7268dd6499d866a96685c31f1e394e6663715f76e1906020015b60405180910390a150565b610a836124dd565b610a8b6124dd565b87878080601f016020809104026020016040519081016040528093929190818152602001838380828437600092019190915250505090825250604080516020601f8801819004810282018101909252868152908790879081908401838280828437600092019190915250505050602082015260a0810193909352501515610120820152949350505050565b6001546001600160a01b03163314610b405760405162461bcd60e51b8152600401610973906130d7565b62015180811015610ba95760405162461bcd60e51b815260206004820152602d60248201527f476f7665726e616e63653a3a7365744d696e696d756d566f74696e675065726960448201526c1bd90e881513d3d7d4d3505313609a1b6064820152608401610973565b62278d00811115610c125760405162461bcd60e51b815260206004820152602d60248201527f476f7665726e616e63653a3a7365744d696e696d756d566f74696e675065726960448201526c6f643a20544f4f5f4c4152474560981b6064820152608401610973565b60028190556040518181527ff4f36c6d71e6dce23fde1248bfb40024041297ac1665de2840339f8a6b32e54590602001610a70565b60006006548210610ca95760405162461bcd60e51b815260206004820152602660248201527f476f7665726e616e63653a3a73746174653a20696e76616c69642070726f706f6044820152651cd85b081a5960d21b6064820152608401610973565b60008281526007602052604080822081516101608101909252805482908290610cd19061309c565b80601f0160208091040260200160405190810160405280929190818152602001828054610cfd9061309c565b8015610d4a5780601f10610d1f57610100808354040283529160200191610d4a565b820191906000526020600020905b815481529060010190602001808311610d2d57829003601f168201915b50505050508152602001600182018054610d639061309c565b80601f0160208091040260200160405190810160405280929190818152602001828054610d8f9061309c565b8015610ddc5780601f10610db157610100808354040283529160200191610ddc565b820191906000526020600020905b815481529060010190602001808311610dbf57829003601f168201915b505050918352505060028201546001600160a01b0390811660208084019190915260038401549091166040808401919091526004840154606084015260058401546080840152600684015460a0840152600784015460c084015260088401805482518185028101850190935280835260e0909401939192909190830182828015610e8557602002820191906000526020600020905b815481526020019060010190808311610e71575b5050509183525050600982015460ff161515602080830191909152604080518082018252600a850180548252600b86018054845181870281018701865281815294909601959294919385830193909260009084015b828210156110515783829060005260206000209060040201604051806080016040529081600082018054610f0d9061309c565b80601f0160208091040260200160405190810160405280929190818152602001828054610f399061309c565b8015610f865780601f10610f5b57610100808354040283529160200191610f86565b820191906000526020600020905b815481529060010190602001808311610f6957829003601f168201915b505050918352505060018201546001600160a01b0316602082015260028201546040820152600382018054606090920191610fc09061309c565b80601f0160208091040260200160405190810160405280929190818152602001828054610fec9061309c565b80156110395780601f1061100e57610100808354040283529160200191611039565b820191906000526020600020905b81548152906001019060200180831161101c57829003601f168201915b50505050508152505081526020019060010190610eda565b5050509152505090525060a0810151608082015191925061107191613122565b42116110805750600092915050565b60608101516001600160a01b03161561109c5750600492915050565b806101200151801561111857508061010001516000815181106110c1576110c161313a565b60200260200101518161010001516001815181106110e1576110e161313a565b602002602001015111158061111857508060c0015181610100015160018151811061110e5761110e61313a565b6020026020010151105b156111265750600192915050565b80610120015161119457600160005b82610100015151811015611181578260c00151836101000151828151811061115f5761115f61313a565b60200260200101511061117157600091505b61117a81613150565b9050611135565b508015611192575060019392505050565b505b8060e001518160a0015182608001516111ad9190613122565b6111b79190613122565b4210156111c75750600292915050565b621275008160e001518260a0015183608001516111e49190613122565b6111ee9190613122565b6111f89190613122565b4210156112085750600392915050565b50600592915050565b6001546001600160a01b0316331461123b5760405162461bcd60e51b8152600401610973906130d7565b611245600061248b565b565b6020810151518151146112bb5760405162461bcd60e51b815260206004820152603660248201527f476f7665726e616e63653a3a70726f706f73653a204d616c666f726d656420656044820152751e1958dd5d1a5bdb8818dbdb9d195e1d1cc81b1a5cdd60521b6064820152608401610973565b6002548260a0015110156113265760405162461bcd60e51b815260206004820152602c60248201527f476f7665726e616e63653a3a70726f706f73653a20766f74696e67207065726960448201526b1bd9081d1bdbc81cda1bdc9d60a21b6064820152608401610973565b62278d008260a0015111156113915760405162461bcd60e51b815260206004820152602b60248201527f476f7665726e616e63653a3a70726f706f73653a20766f74696e67207065726960448201526a6f6420746f6f206c6f6e6760a81b6064820152608401610973565b3360009081526009602052604090205480156114775760006113b282610c47565b905060048160058111156113c8576113c86129ee565b14806113e5575060018160058111156113e3576113e36129ee565b145b80611401575060058160058111156113ff576113ff6129ee565b145b611475576040805162461bcd60e51b81526020600482015260248101919091527f476f7665726e616e63653a3a70726f706f73653a2070726f706f73657220616c60448201527f72656164792068617320612070726f706f73616c20696e2070726f67726573736064820152608401610973565b505b600a546040516370a0823160e01b81523360048201526000916001600160a01b0316906370a082319060240160206040518083038186803b1580156114bb57600080fd5b505afa1580156114cf573d6000803e3d6000fd5b505050506040513d601f19601f820116820180604052508101906114f3919061316b565b9050600554811161156c5760405162461bcd60e51b815260206004820152603c60248201527f476f7665726e616e63653a3a70726f706f73653a2070726f706f73657220766f60448201527f7465732062656c6f772070726f706f73616c207468726573686f6c64000000006064820152608401610973565b60608461012001516115c25783516001600160401b0381111561159157611591612a91565b6040519080825280602002602001820160405280156115ba578160200160208202803683370190505b5090506115e3565b60408051600280825260608201835290916020830190803683370190505090505b600654600090815260076020908152604090912086518051919261160c92849290910190612565565b5060208087015180516116259260018501920190612565565b506002810180546001600160a01b03199081163317909155600380830180549092169091554260048084019190915560a08801516005840155546006830155546007820155815161167f90600883019060208501906125e9565b5061012086015160098201805460ff191691151591909117905560005b85518110156117585781600a01600101866020015182815181106116c2576116c261313a565b6020908102919091018101518254600181018455600093845292829020815180519294600402909101926116fb92849290910190612565565b506020828101516001830180546001600160a01b0319166001600160a01b0390921691909117905560408301516002830155606083015180516117449260038501920190612565565b5050508061175190613150565b905061169c565b508451600a820155600680543360009081526009602052604081208290559061178090613150565b9091555060065460028201546040517f7585f467599d0f008985f231af99293be388626ac16ca59505c2f8f88969cd63926117ca9290916001600160a01b03909116908590613184565b60405180910390a1505050505050565b60408051808201909152600081526060602082015287861480156117fd57508584145b801561180857508382145b61183e5760405162461bcd60e51b8152602060048201526007602482015266042d8cadccee8d60cb1b6044820152606401610973565b60408051808201909152606060208201528881528890816001600160401b0381111561186c5761186c612a91565b6040519080825280602002602001820160405280156118d157816020015b6118be60405180608001604052806060815260200160006001600160a01b0316815260200160008152602001606081525090565b81526020019060019003908161188a5790505b50602082015260005b82811015611a3357600060405180608001604052808e8e858181106119015761190161313a565b90506020028101906119139190613220565b8080601f0160208091040260200160405190810160405280939291908181526020018383808284376000920191909152505050908252506020018c8c8581811061195f5761195f61313a565b90506020020160208101906119749190612a6f565b6001600160a01b031681526020018a8a858181106119945761199461313a565b9050602002013581526020018888858181106119b2576119b261313a565b90506020028101906119c49190613220565b8080601f016020809104026020016040519081016040528093929190818152602001838380828437600092019190915250505091525060208401518051919250829184908110611a1657611a1661313a565b60200260200101819052505080611a2c90613150565b90506118da565b509a9950505050505050505050565b60026000541415611a955760405162461bcd60e51b815260206004820152601f60248201527f5265656e7472616e637947756172643a207265656e7472616e742063616c6c006044820152606401610973565b60026000908155611aa583610c47565b6005811115611ab657611ab66129ee565b14611b0e5760405162461bcd60e51b815260206004820152602260248201527f476f7665726e616e63653a3a766f74653a20766f74696e6720697320636c6f73604482015261195960f21b6064820152608401610973565b600082815260076020908152604080832060088352818420338086529352818420600a5492516370a0823160e01b815260048101949094529093909290916001600160a01b0316906370a082319060240160206040518083038186803b158015611b7757600080fd5b505afa158015611b8b573d6000803e3d6000fd5b505050506040513d601f19601f82011682018060405250810190611baf919061316b565b825490915060ff1615611bf957816002015483600801836001015481548110611bda57611bda61313a565b906000526020600020016000828254611bf39190613266565b90915550505b80836008018581548110611c0f57611c0f61313a565b906000526020600020016000828254611c289190613122565b9091555050815460ff191660019081178355820184905560408051868152336020820152908101859052606081018290527f30fc966e088e5d91399acda87c233b87ed99de5ab4e137c1fbc19a3bb9a87bff9060800160405180910390a150506001600055505050565b611cb8604051806060016040528060001515815260200160008152602001600081525090565b5060009182526008602090815260408084206001600160a01b03939093168452918152918190208151606081018352815460ff1615158152600182015493810193909352600201549082015290565b6001546001600160a01b03163314611d315760405162461bcd60e51b8152600401610973906130d7565b601e811015611d935760405162461bcd60e51b815260206004820152602860248201527f476f7665726e616e63653a3a736574457865637574696f6e44656c61793a205460448201526713d3d7d4d350531360c21b6064820152608401610973565b62278d00811115611df75760405162461bcd60e51b815260206004820152602860248201527f476f7665726e616e63653a3a736574457865637574696f6e44656c61793a20546044820152674f4f5f4c4152474560c01b6064820152608401610973565b60038190556040518181527f193d917ecb8a5c0270b102b28be14cc9ee25763c29c0b87e980a0bc65d485e7590602001610a70565b6001546001600160a01b03163314611e565760405162461bcd60e51b8152600401610973906130d7565b61c350811015611ebc5760405162461bcd60e51b815260206004820152602b60248201527f476f7665726e616e63653a3a73657450726f706f73616c5468726573686f6c6460448201526a0e881513d3d7d4d350531360aa1b6064820152608401610973565b62989680811115611f235760405162461bcd60e51b815260206004820152602b60248201527f476f7665726e616e63653a3a73657450726f706f73616c5468726573686f6c6460448201526a3a20544f4f5f4c4152474560a81b6064820152608401610973565b60058190556040518181527f0553c1e1d490599cc62884d38bddf3b538bf26581e3d5a830cb2aa0a54fc563390602001610a70565b6001546001600160a01b03163314611f825760405162461bcd60e51b8152600401610973906130d7565b6001600160a01b038116611fe75760405162461bcd60e51b815260206004820152602660248201527f4f776e61626c653a206e6577206f776e657220697320746865207a65726f206160448201526564647265737360d01b6064820152608401610973565b611ff08161248b565b50565b6060600260005414156120485760405162461bcd60e51b815260206004820152601f60248201527f5265656e7472616e637947756172643a207265656e7472616e742063616c6c006044820152606401610973565b6002600055600361205883610c47565b6005811115612069576120696129ee565b146120c65760405162461bcd60e51b815260206004820152602760248201527f476f7665726e616e63653a3a657865637574653a2063616e6e6f7420626520656044820152661e1958dd5d195960ca1b6064820152608401610973565b60008281526007602052604090206009810154600a82019060609060ff16156122725781546001600160401b0381111561210257612102612a91565b60405190808252806020026020018201604052801561213557816020015b60608152602001906001900390816121205790505b50905060005b825481101561226c5760008084600101838154811061215c5761215c61313a565b60009182526020909120600160049092020181015490860180546001600160a01b0390921691859081106121925761219261313a565b9060005260206000209060040201600201548660010185815481106121b9576121b961313a565b90600052602060002090600402016003016040516121d7919061327d565b60006040518083038185875af1925050503d8060008114612214576040519150601f19603f3d011682016040523d82523d6000602084013e612219565b606091505b50915091508161223b5760405162461bcd60e51b8152600401610973906132ef565b8084848151811061224e5761224e61313a565b602002602001018190525050508061226590613150565b905061213b565b5061242d565b60408051600180825281830190925290816020015b60608152602001906001900390816122875750506006840154909150600090815b600886015481101561231157818660080182815481106122ca576122ca61313a565b90600052602060002001541115612301578560080181815481106122f0576122f061313a565b906000526020600020015491508092505b61230a81613150565b90506122a8565b5060008085600101848154811061232a5761232a61313a565b60009182526020909120600160049092020181015490870180546001600160a01b0390921691869081106123605761236061313a565b9060005260206000209060040201600201548760010186815481106123875761238761313a565b90600052602060002090600402016003016040516123a5919061327d565b60006040518083038185875af1925050503d80600081146123e2576040519150601f19603f3d011682016040523d82523d6000602084013e6123e7565b606091505b5091509150816124095760405162461bcd60e51b8152600401610973906132ef565b808560008151811061241d5761241d61313a565b6020026020010181905250505050505b6003830180546001600160a01b031916339081179091556040805187815260208101929092527f9c85b616f29fca57a17eafe71cf9ff82ffef41766e2cf01ea7f8f7878dd3ec24910160405180910390a16001600055949350505050565b600180546001600160a01b038381166001600160a01b0319831681179093556040519116919082907f8be0079c531659141344cd1fd0a4f28419497f9722a3daafe3b4186f6b6457e090600090a35050565b604051806101600160405280606081526020016060815260200160006001600160a01b0316815260200160006001600160a01b031681526020016000815260200160008152602001600081526020016000815260200160608152602001600015158152602001612560604051806040016040528060008152602001606081525090565b905290565b8280546125719061309c565b90600052602060002090601f01602090048101928261259357600085556125d9565b82601f106125ac57805160ff19168380011785556125d9565b828001600101855582156125d9579182015b828111156125d95782518255916020019190600101906125be565b506125e5929150612623565b5090565b8280548282559060005260206000209081019282156125d957916020028201828111156125d95782518255916020019190600101906125be565b5b808211156125e55760008155600101612624565b60006020828403121561264a57600080fd5b5035919050565b6000815180845260005b818110156126775760208185018101518683018201520161265b565b81811115612689576000602083870101525b50601f01601f19169290920160200192915050565b60006040808401835185526020808501518382880152828151808552606094508489019150848160051b8a0101848401935060005b8281101561274057605f198b83030184528451608081518185526126f982860182612651565b838a01516001600160a01b0316868b01528b8401518c870152928a01518584038b87015292915061272c90508183612651565b9688019695880195935050506001016126d3565b509998505050505050505050565b60006101408083526127628184018e612651565b90508281036020840152612776818d612651565b6001600160a01b038c811660408601528b166060850152608084018a905260a0840189905260c0840188905260e0840187905285151561010085015283810361012085015290506127c7818561269e565b9d9c50505050505050505050505050565b60008083601f8401126127ea57600080fd5b5081356001600160401b0381111561280157600080fd5b60208301915083602082850101111561281957600080fd5b9250929050565b8035801515811461283057600080fd5b919050565b6000806000806000806080878903121561284e57600080fd5b86356001600160401b038082111561286557600080fd5b6128718a838b016127d8565b9098509650602089013591508082111561288a57600080fd5b5061289789828a016127d8565b909550935050604087013591506128b060608801612820565b90509295509295509295565b600081518084526020808501945080840160005b838110156128ec578151875295820195908201906001016128d0565b509495945050505050565b6020815260008251610160806020850152612916610180850183612651565b91506020850151601f19808685030160408701526129348483612651565b93506040870151915061295260608701836001600160a01b03169052565b60608701516001600160a01b03811660808801529150608087015160a087015260a087015160c087015260c087015160e087015260e087015191506101008281880152808801519250506101208187860301818801526129b285846128bc565b9450808801519250506101406129cb8188018415159052565b8701518685039091018387015290506129e4838261269e565b9695505050505050565b634e487b7160e01b600052602160045260246000fd5b6020810160068310612a2657634e487b7160e01b600052602160045260246000fd5b91905290565b80356001600160a01b038116811461283057600080fd5b60008060408385031215612a5657600080fd5b82359150612a6660208401612a2c565b90509250929050565b600060208284031215612a8157600080fd5b612a8a82612a2c565b9392505050565b634e487b7160e01b600052604160045260246000fd5b604080519081016001600160401b0381118282101715612ac957612ac9612a91565b60405290565b604051608081016001600160401b0381118282101715612ac957612ac9612a91565b60405161016081016001600160401b0381118282101715612ac957612ac9612a91565b604051601f8201601f191681016001600160401b0381118282101715612b3c57612b3c612a91565b604052919050565b60006001600160401b03831115612b5d57612b5d612a91565b612b70601f8401601f1916602001612b14565b9050828152838383011115612b8457600080fd5b828260208301376000602084830101529392505050565b600082601f830112612bac57600080fd5b612a8a83833560208501612b44565b60006001600160401b03821115612bd457612bd4612a91565b5060051b60200190565b600082601f830112612bef57600080fd5b81356020612c04612bff83612bbb565b612b14565b82815260059290921b84018101918181019086841115612c2357600080fd5b8286015b84811015612c3e5780358352918301918301612c27565b509695505050505050565b60006040808385031215612c5c57600080fd5b612c64612aa7565b9150823582526020808401356001600160401b0380821115612c8557600080fd5b818601915086601f830112612c9957600080fd5b8135612ca7612bff82612bbb565b81815260059190911b83018401908481019089831115612cc657600080fd5b8585015b83811015612d8b57803585811115612ce25760008081fd5b86016080818d03601f1901811315612cfa5760008081fd5b612d02612acf565b8983013588811115612d145760008081fd5b612d228f8c83870101612b9b565b825250612d308b8401612a2c565b818b01526060838101358c830152918301359188831115612d515760008081fd5b82840193508e603f850112612d6857600092508283fd5b612d788f8c8601358e8701612b44565b9082015285525050918601918601612cca565b5080868901525050505050505092915050565b60008060408385031215612db157600080fd5b82356001600160401b0380821115612dc857600080fd5b908401906101608287031215612ddd57600080fd5b612de5612af1565b823582811115612df457600080fd5b612e0088828601612b9b565b825250602083013582811115612e1557600080fd5b612e2188828601612b9b565b602083015250612e3360408401612a2c565b6040820152612e4460608401612a2c565b60608201526080830135608082015260a083013560a082015260c083013560c082015260e083013560e08201526101008084013583811115612e8557600080fd5b612e9189828701612bde565b828401525050610120612ea5818501612820565b908201526101408381013583811115612ebd57600080fd5b612ec989828701612c49565b828401525050809450506020850135915080821115612ee757600080fd5b50612ef485828601612c49565b9150509250929050565b60008083601f840112612f1057600080fd5b5081356001600160401b03811115612f2757600080fd5b6020830191508360208260051b850101111561281957600080fd5b6000806000806000806000806080898b031215612f5e57600080fd5b88356001600160401b0380821115612f7557600080fd5b612f818c838d01612efe565b909a50985060208b0135915080821115612f9a57600080fd5b612fa68c838d01612efe565b909850965060408b0135915080821115612fbf57600080fd5b612fcb8c838d01612efe565b909650945060608b0135915080821115612fe457600080fd5b50612ff18b828c01612efe565b999c989b5096995094979396929594505050565b602081526000612a8a602083018461269e565b6000806040838503121561302b57600080fd5b50508035926020909101359150565b6000602080830181845280855180835260408601915060408160051b870101925083870160005b8281101561308f57603f1988860301845261307d858351612651565b94509285019290850190600101613061565b5092979650505050505050565b600181811c908216806130b057607f821691505b602082108114156130d157634e487b7160e01b600052602260045260246000fd5b50919050565b6020808252818101527f4f776e61626c653a2063616c6c6572206973206e6f7420746865206f776e6572604082015260600190565b634e487b7160e01b600052601160045260246000fd5b600082198211156131355761313561310c565b500190565b634e487b7160e01b600052603260045260246000fd5b60006000198214156131645761316461310c565b5060010190565b60006020828403121561317d57600080fd5b5051919050565b8381526000602060018060a01b0385168184015260606040840152600084546131ac8161309c565b80606087015260806001808416600081146131ce57600181146131e257613210565b60ff1985168984015260a089019550613210565b896000528660002060005b858110156132085781548b82018601529083019088016131ed565b8a0184019650505b50939a9950505050505050505050565b6000808335601e1984360301811261323757600080fd5b8301803591506001600160401b0382111561325157600080fd5b60200191503681900382131561281957600080fd5b6000828210156132785761327861310c565b500390565b600080835461328b8161309c565b600182811680156132a357600181146132b4576132e3565b60ff198416875282870194506132e3565b8760005260208060002060005b858110156132da5781548a8201529084019082016132c1565b50505082870194505b50929695505050505050565b60208082526034908201527f476f7665726e616e63653a3a657865637574653a207472616e73616374696f6e6040820152731032bc32b1baba34b7b7103932bb32b93a32b21760611b60608201526080019056fea26469706673582212201722da1bfe77e4f712b635be47d587f19826646fd23a3da5d7e877cea7ee095264736f6c63430008090033",
  "devdoc": {
    "kind": "dev",
    "methods": {
      "constructor": {
        "details": "This token must not be tradeable",
        "params": {
          "_sAXIAL": "the address of the contract which determines each users voting power"
        }
      },
      "execute(uint256)": {
        "params": {
          "_proposalId": "the index of the proposal we wish to execute"
        },
        "returns": {
          "_0": "bytes array the executed function/s returned"
        }
      },
      "getReceipt(uint256,address)": {
        "params": {
          "_proposalId": "the index of the proposal we wish to view the receipt for",
          "_voter": "the user we wish to view the receipt for"
        },
        "returns": {
          "_0": "Receipt A copy of the voters selection for the provided proposal"
        }
      },
      "owner()": {
        "details": "Returns the address of the current owner."
      },
      "propose((string,string,address,address,uint256,uint256,uint256,uint256,uint256[],bool,(uint256,(string,address,uint256,bytes)[])),(uint256,(string,address,uint256,bytes)[]))": {
        "params": {
          "_executionContexts": "Execution struct generated via constructExecutionContexts",
          "_metaData": "Metadata struct generated via constructProposalMetadata"
        }
      },
      "renounceOwnership()": {
        "details": "Leaves the contract without owner. It will not be possible to call `onlyOwner` functions anymore. Can only be called by the current owner. NOTE: Renouncing ownership will leave the contract without an owner, thereby removing any functionality that is only available to the owner."
      },
      "state(uint256)": {
        "params": {
          "_proposalId": "the index of the proposal we wish to view the State of"
        },
        "returns": {
          "_0": "ProposalState enum representing the status of the selected proposal"
        }
      },
      "transferOwnership(address)": {
        "details": "Transfers ownership of the contract to a new account (`newOwner`). Can only be called by the current owner."
      },
      "vote(uint256,uint256)": {
        "details": "If the proposal is binary, 0 means No and 1 means Yes",
        "params": {
          "_proposalId": "the index of the proposal the user wishes to vote for or against",
          "_support": "index of the option the user wishes to cast their vote for"
        }
      }
    },
    "version": 1
  },
  "userdoc": {
    "kind": "user",
    "methods": {
      "EXPIRATION_PERIOD()": {
        "notice": "Seconds since the proposal could be executed until it is considered expired"
      },
      "constructor": {
        "notice": "Constructor"
      },
      "execute(uint256)": {
        "notice": "Allow any user to execute the proposal if it is in the execution stage"
      },
      "executionDelay()": {
        "notice": "Seconds since the end of the voting period before the proposal can be executed"
      },
      "minimumVotingPeriod()": {
        "notice": "Lower bound for the voting period"
      },
      "proposalCount()": {
        "notice": "The total number of proposals"
      },
      "proposalThreshold()": {
        "notice": "The minimum number of votes required for an account to create a proposal"
      },
      "proposals(uint256)": {
        "notice": "The record of all proposals ever proposed"
      },
      "propose((string,string,address,address,uint256,uint256,uint256,uint256,uint256[],bool,(uint256,(string,address,uint256,bytes)[])),(uint256,(string,address,uint256,bytes)[]))": {
        "notice": "Allows any user with sufficient priviledges to propose a new vote"
      },
      "quorumVotes()": {
        "notice": "The required minimum number of votes in support of a proposal for it to succeed"
      },
      "sAXIAL()": {
        "notice": "Non-tradeable sAXIAL used to represent votes"
      },
      "state(uint256)": {
        "notice": "View the current status of any proposal"
      },
      "vote(uint256,uint256)": {
        "notice": "Vote for selected option"
      }
    },
    "version": 1
  },
  "storageLayout": {
    "storage": [
      {
        "astId": 115,
        "contract": "contracts/Governance.sol:Governance",
        "label": "_status",
        "offset": 0,
        "slot": "0",
        "type": "t_uint256"
      },
      {
        "astId": 7,
        "contract": "contracts/Governance.sol:Governance",
        "label": "_owner",
        "offset": 0,
        "slot": "1",
        "type": "t_address"
      },
      {
        "astId": 4439,
        "contract": "contracts/Governance.sol:Governance",
        "label": "minimumVotingPeriod",
        "offset": 0,
        "slot": "2",
        "type": "t_uint256"
      },
      {
        "astId": 4449,
        "contract": "contracts/Governance.sol:Governance",
        "label": "executionDelay",
        "offset": 0,
        "slot": "3",
        "type": "t_uint256"
      },
      {
        "astId": 4463,
        "contract": "contracts/Governance.sol:Governance",
        "label": "quorumVotes",
        "offset": 0,
        "slot": "4",
        "type": "t_uint256"
      },
      {
        "astId": 4473,
        "contract": "contracts/Governance.sol:Governance",
        "label": "proposalThreshold",
        "offset": 0,
        "slot": "5",
        "type": "t_uint256"
      },
      {
        "astId": 4482,
        "contract": "contracts/Governance.sol:Governance",
        "label": "proposalCount",
        "offset": 0,
        "slot": "6",
        "type": "t_uint256"
      },
      {
        "astId": 4488,
        "contract": "contracts/Governance.sol:Governance",
        "label": "proposals",
        "offset": 0,
        "slot": "7",
        "type": "t_mapping(t_uint256,t_struct(Proposal)4528_storage)"
      },
      {
        "astId": 4495,
        "contract": "contracts/Governance.sol:Governance",
        "label": "receipts",
        "offset": 0,
        "slot": "8",
        "type": "t_mapping(t_uint256,t_mapping(t_address,t_struct(Receipt)4551_storage))"
      },
      {
        "astId": 4499,
        "contract": "contracts/Governance.sol:Governance",
        "label": "lastProposalByAddress",
        "offset": 0,
        "slot": "9",
        "type": "t_mapping(t_address,t_uint256)"
      },
      {
        "astId": 4503,
        "contract": "contracts/Governance.sol:Governance",
        "label": "sAXIAL",
        "offset": 0,
        "slot": "10",
        "type": "t_contract(IsAxial)4431"
      }
    ],
    "types": {
      "t_address": {
        "encoding": "inplace",
        "label": "address",
        "numberOfBytes": "20"
      },
      "t_array(t_struct(ProposalExecutionContext)4537_storage)dyn_storage": {
        "base": "t_struct(ProposalExecutionContext)4537_storage",
        "encoding": "dynamic_array",
        "label": "struct Governance.ProposalExecutionContext[]",
        "numberOfBytes": "32"
      },
      "t_array(t_uint256)dyn_storage": {
        "base": "t_uint256",
        "encoding": "dynamic_array",
        "label": "uint256[]",
        "numberOfBytes": "32"
      },
      "t_bool": {
        "encoding": "inplace",
        "label": "bool",
        "numberOfBytes": "1"
      },
      "t_bytes_storage": {
        "encoding": "bytes",
        "label": "bytes",
        "numberOfBytes": "32"
      },
      "t_contract(IsAxial)4431": {
        "encoding": "inplace",
        "label": "contract IsAxial",
        "numberOfBytes": "20"
      },
      "t_mapping(t_address,t_struct(Receipt)4551_storage)": {
        "encoding": "mapping",
        "key": "t_address",
        "label": "mapping(address => struct Governance.Receipt)",
        "numberOfBytes": "32",
        "value": "t_struct(Receipt)4551_storage"
      },
      "t_mapping(t_address,t_uint256)": {
        "encoding": "mapping",
        "key": "t_address",
        "label": "mapping(address => uint256)",
        "numberOfBytes": "32",
        "value": "t_uint256"
      },
      "t_mapping(t_uint256,t_mapping(t_address,t_struct(Receipt)4551_storage))": {
        "encoding": "mapping",
        "key": "t_uint256",
        "label": "mapping(uint256 => mapping(address => struct Governance.Receipt))",
        "numberOfBytes": "32",
        "value": "t_mapping(t_address,t_struct(Receipt)4551_storage)"
      },
      "t_mapping(t_uint256,t_struct(Proposal)4528_storage)": {
        "encoding": "mapping",
        "key": "t_uint256",
        "label": "mapping(uint256 => struct Governance.Proposal)",
        "numberOfBytes": "32",
        "value": "t_struct(Proposal)4528_storage"
      },
      "t_string_storage": {
        "encoding": "bytes",
        "label": "string",
        "numberOfBytes": "32"
      },
      "t_struct(Proposal)4528_storage": {
        "encoding": "inplace",
        "label": "struct Governance.Proposal",
        "members": [
          {
            "astId": 4505,
            "contract": "contracts/Governance.sol:Governance",
            "label": "title",
            "offset": 0,
            "slot": "0",
            "type": "t_string_storage"
          },
          {
            "astId": 4507,
            "contract": "contracts/Governance.sol:Governance",
            "label": "metadata",
            "offset": 0,
            "slot": "1",
            "type": "t_string_storage"
          },
          {
            "astId": 4509,
            "contract": "contracts/Governance.sol:Governance",
            "label": "proposer",
            "offset": 0,
            "slot": "2",
            "type": "t_address"
          },
          {
            "astId": 4511,
            "contract": "contracts/Governance.sol:Governance",
            "label": "executor",
            "offset": 0,
            "slot": "3",
            "type": "t_address"
          },
          {
            "astId": 4513,
            "contract": "contracts/Governance.sol:Governance",
            "label": "startTime",
            "offset": 0,
            "slot": "4",
            "type": "t_uint256"
          },
          {
            "astId": 4515,
            "contract": "contracts/Governance.sol:Governance",
            "label": "votingPeriod",
            "offset": 0,
            "slot": "5",
            "type": "t_uint256"
          },
          {
            "astId": 4517,
            "contract": "contracts/Governance.sol:Governance",
            "label": "quorumVotes",
            "offset": 0,
            "slot": "6",
            "type": "t_uint256"
          },
          {
            "astId": 4519,
            "contract": "contracts/Governance.sol:Governance",
            "label": "executionDelay",
            "offset": 0,
            "slot": "7",
            "type": "t_uint256"
          },
          {
            "astId": 4522,
            "contract": "contracts/Governance.sol:Governance",
            "label": "votes",
            "offset": 0,
            "slot": "8",
            "type": "t_array(t_uint256)dyn_storage"
          },
          {
            "astId": 4524,
            "contract": "contracts/Governance.sol:Governance",
            "label": "isBoolean",
            "offset": 0,
            "slot": "9",
            "type": "t_bool"
          },
          {
            "astId": 4527,
            "contract": "contracts/Governance.sol:Governance",
            "label": "executionContexts",
            "offset": 0,
            "slot": "10",
            "type": "t_struct(ProposalExecutionContextList)4544_storage"
          }
        ],
        "numberOfBytes": "384"
      },
      "t_struct(ProposalExecutionContext)4537_storage": {
        "encoding": "inplace",
        "label": "struct Governance.ProposalExecutionContext",
        "members": [
          {
            "astId": 4530,
            "contract": "contracts/Governance.sol:Governance",
            "label": "label",
            "offset": 0,
            "slot": "0",
            "type": "t_string_storage"
          },
          {
            "astId": 4532,
            "contract": "contracts/Governance.sol:Governance",
            "label": "target",
            "offset": 0,
            "slot": "1",
            "type": "t_address"
          },
          {
            "astId": 4534,
            "contract": "contracts/Governance.sol:Governance",
            "label": "value",
            "offset": 0,
            "slot": "2",
            "type": "t_uint256"
          },
          {
            "astId": 4536,
            "contract": "contracts/Governance.sol:Governance",
            "label": "data",
            "offset": 0,
            "slot": "3",
            "type": "t_bytes_storage"
          }
        ],
        "numberOfBytes": "128"
      },
      "t_struct(ProposalExecutionContextList)4544_storage": {
        "encoding": "inplace",
        "label": "struct Governance.ProposalExecutionContextList",
        "members": [
          {
            "astId": 4539,
            "contract": "contracts/Governance.sol:Governance",
            "label": "length",
            "offset": 0,
            "slot": "0",
            "type": "t_uint256"
          },
          {
            "astId": 4543,
            "contract": "contracts/Governance.sol:Governance",
            "label": "contexts",
            "offset": 0,
            "slot": "1",
            "type": "t_array(t_struct(ProposalExecutionContext)4537_storage)dyn_storage"
          }
        ],
        "numberOfBytes": "64"
      },
      "t_struct(Receipt)4551_storage": {
        "encoding": "inplace",
        "label": "struct Governance.Receipt",
        "members": [
          {
            "astId": 4546,
            "contract": "contracts/Governance.sol:Governance",
            "label": "hasVoted",
            "offset": 0,
            "slot": "0",
            "type": "t_bool"
          },
          {
            "astId": 4548,
            "contract": "contracts/Governance.sol:Governance",
            "label": "support",
            "offset": 0,
            "slot": "1",
            "type": "t_uint256"
          },
          {
            "astId": 4550,
            "contract": "contracts/Governance.sol:Governance",
            "label": "votes",
            "offset": 0,
            "slot": "2",
            "type": "t_uint256"
          }
        ],
        "numberOfBytes": "96"
      },
      "t_uint256": {
        "encoding": "inplace",
        "label": "uint256",
        "numberOfBytes": "32"
      }
    }
  }
}