{
  "address": "0xb7819A8714fCa85239E4b881291819A79Aa703E4",
  "abi": [
    {
      "inputs": [
        {
          "internalType": "address",
          "name": "_stakedToken",
          "type": "address"
        },
        {
          "internalType": "string",
          "name": "_name",
          "type": "string"
        },
        {
          "internalType": "string",
          "name": "_symbol",
          "type": "string"
        },
        {
          "internalType": "address",
          "name": "_governance",
          "type": "address"
        }
      ],
      "stateMutability": "nonpayable",
      "type": "constructor"
    },
    {
      "anonymous": false,
      "inputs": [
        {
          "indexed": true,
          "internalType": "address",
          "name": "previousOwner",
          "type": "address"
        },
        {
          "indexed": true,
          "internalType": "address",
          "name": "newOwner",
          "type": "address"
        }
      ],
      "name": "OwnershipTransferred",
      "type": "event"
    },
    {
      "anonymous": false,
      "inputs": [
        {
          "indexed": true,
          "internalType": "address",
          "name": "user",
          "type": "address"
        },
        {
          "indexed": false,
          "internalType": "uint256",
          "name": "amount",
          "type": "uint256"
        }
      ],
      "name": "userClaimed",
      "type": "event"
    },
    {
      "anonymous": false,
      "inputs": [
        {
          "indexed": true,
          "internalType": "address",
          "name": "user",
          "type": "address"
        },
        {
          "indexed": false,
          "internalType": "uint256",
          "name": "amount",
          "type": "uint256"
        },
        {
          "indexed": false,
          "internalType": "uint256",
          "name": "duration",
          "type": "uint256"
        }
      ],
      "name": "userExtended",
      "type": "event"
    },
    {
      "anonymous": false,
      "inputs": [
        {
          "indexed": true,
          "internalType": "address",
          "name": "user",
          "type": "address"
        },
        {
          "indexed": false,
          "internalType": "uint256",
          "name": "amount",
          "type": "uint256"
        },
        {
          "indexed": false,
          "internalType": "uint256",
          "name": "duration",
          "type": "uint256"
        }
      ],
      "name": "userStaked",
      "type": "event"
    },
    {
      "inputs": [
        {
          "internalType": "address",
          "name": "_account",
          "type": "address"
        }
      ],
      "name": "balanceOf",
      "outputs": [
        {
          "internalType": "uint256",
          "name": "",
          "type": "uint256"
        }
      ],
      "stateMutability": "view",
      "type": "function"
    },
    {
      "inputs": [],
      "name": "claimMyFunds",
      "outputs": [],
      "stateMutability": "nonpayable",
      "type": "function"
    },
    {
      "inputs": [],
      "name": "getAllUsers",
      "outputs": [
        {
          "internalType": "address[]",
          "name": "",
          "type": "address[]"
        }
      ],
      "stateMutability": "view",
      "type": "function"
    },
    {
      "inputs": [
        {
          "internalType": "address",
          "name": "_userAddr",
          "type": "address"
        }
      ],
      "name": "getBalance",
      "outputs": [
        {
          "internalType": "uint256",
          "name": "",
          "type": "uint256"
        }
      ],
      "stateMutability": "view",
      "type": "function"
    },
    {
      "inputs": [
        {
          "internalType": "address",
          "name": "_userAddr",
          "type": "address"
        }
      ],
      "name": "getLock",
      "outputs": [
        {
          "components": [
            {
              "internalType": "uint256",
              "name": "startBlockTime",
              "type": "uint256"
            },
            {
              "internalType": "uint256",
              "name": "endBlockTime",
              "type": "uint256"
            },
            {
              "internalType": "uint256",
              "name": "startingAmountLocked",
              "type": "uint256"
            },
            {
              "internalType": "bool",
              "name": "initialized",
              "type": "bool"
            }
          ],
          "internalType": "struct VestingStake.LockVe",
          "name": "",
          "type": "tuple"
        }
      ],
      "stateMutability": "view",
      "type": "function"
    },
    {
      "inputs": [
        {
          "internalType": "address",
          "name": "_userAddr",
          "type": "address"
        }
      ],
      "name": "getPower",
      "outputs": [
        {
          "internalType": "uint256",
          "name": "",
          "type": "uint256"
        }
      ],
      "stateMutability": "view",
      "type": "function"
    },
    {
      "inputs": [
        {
          "internalType": "address",
          "name": "_userAddr",
          "type": "address"
        }
      ],
      "name": "getUnclaimed",
      "outputs": [
        {
          "internalType": "uint256",
          "name": "",
          "type": "uint256"
        }
      ],
      "stateMutability": "view",
      "type": "function"
    },
    {
      "inputs": [
        {
          "internalType": "address",
          "name": "_userAddr",
          "type": "address"
        }
      ],
      "name": "isUserLocked",
      "outputs": [
        {
          "internalType": "bool",
          "name": "",
          "type": "bool"
        }
      ],
      "stateMutability": "view",
      "type": "function"
    },
    {
      "inputs": [],
      "name": "name",
      "outputs": [
        {
          "internalType": "string",
          "name": "",
          "type": "string"
        }
      ],
      "stateMutability": "view",
      "type": "function"
    },
    {
      "inputs": [],
      "name": "owner",
      "outputs": [
        {
          "internalType": "address",
          "name": "",
          "type": "address"
        }
      ],
      "stateMutability": "view",
      "type": "function"
    },
    {
      "inputs": [
        {
          "internalType": "address",
          "name": "_token",
          "type": "address"
        }
      ],
      "name": "ownerRemoveNonDepositToken",
      "outputs": [],
      "stateMutability": "nonpayable",
      "type": "function"
    },
    {
      "inputs": [],
      "name": "renounceOwnership",
      "outputs": [],
      "stateMutability": "nonpayable",
      "type": "function"
    },
    {
      "inputs": [
        {
          "internalType": "uint256",
          "name": "_duration",
          "type": "uint256"
        },
        {
          "internalType": "uint256",
          "name": "_amount",
          "type": "uint256"
        },
        {
          "internalType": "bool",
          "name": "_deferUnclaimed",
          "type": "bool"
        }
      ],
      "name": "stake",
      "outputs": [],
      "stateMutability": "nonpayable",
      "type": "function"
    },
    {
      "inputs": [],
      "name": "stakedToken",
      "outputs": [
        {
          "internalType": "address",
          "name": "",
          "type": "address"
        }
      ],
      "stateMutability": "view",
      "type": "function"
    },
    {
      "inputs": [],
      "name": "symbol",
      "outputs": [
        {
          "internalType": "string",
          "name": "",
          "type": "string"
        }
      ],
      "stateMutability": "view",
      "type": "function"
    },
    {
      "inputs": [
        {
          "internalType": "address",
          "name": "newOwner",
          "type": "address"
        }
      ],
      "name": "transferOwnership",
      "outputs": [],
      "stateMutability": "nonpayable",
      "type": "function"
    }
  ],
  "transactionHash": "0xe7c16ce30630cd4fd1151efd3160d6629af64f726350448fec3cfe49677a3791",
  "args": [
    "0x0708F10F657b16ABE18954361E96a641b217648B",
    "sAxial",
    "sAXIAL",
    "0x44A4b9E2A69d86BA382a511f845CbF2E31286770"
  ],
  "numDeployments": 4,
  "solcInputHash": "aac5fb64af3cecab76acb3752fef48c8",
  "bytecode": "0x6080604052670de0b6b3a76400006005553480156200001d57600080fd5b506040516200198e3803806200198e833981016040819052620000409162000363565b60016000556200005033620000ac565b6200005b81620000fe565b600280546001600160a01b0319166001600160a01b03861617905582516200008b906003906020860190620001d3565b508151620000a1906004906020850190620001d3565b505050505062000430565b600180546001600160a01b038381166001600160a01b0319831681179093556040519116919082907f8be0079c531659141344cd1fd0a4f28419497f9722a3daafe3b4186f6b6457e090600090a35050565b6001546001600160a01b031633146200015e5760405162461bcd60e51b815260206004820181905260248201527f4f776e61626c653a2063616c6c6572206973206e6f7420746865206f776e657260448201526064015b60405180910390fd5b6001600160a01b038116620001c55760405162461bcd60e51b815260206004820152602660248201527f4f776e61626c653a206e6577206f776e657220697320746865207a65726f206160448201526564647265737360d01b606482015260840162000155565b620001d081620000ac565b50565b828054620001e190620003f3565b90600052602060002090601f01602090048101928262000205576000855562000250565b82601f106200022057805160ff191683800117855562000250565b8280016001018555821562000250579182015b828111156200025057825182559160200191906001019062000233565b506200025e92915062000262565b5090565b5b808211156200025e576000815560010162000263565b80516001600160a01b03811681146200029157600080fd5b919050565b634e487b7160e01b600052604160045260246000fd5b600082601f830112620002be57600080fd5b81516001600160401b0380821115620002db57620002db62000296565b604051601f8301601f19908116603f0116810190828211818310171562000306576200030662000296565b816040528381526020925086838588010111156200032357600080fd5b600091505b8382101562000347578582018301518183018401529082019062000328565b83821115620003595760008385830101525b9695505050505050565b600080600080608085870312156200037a57600080fd5b620003858562000279565b60208601519094506001600160401b0380821115620003a357600080fd5b620003b188838901620002ac565b94506040870151915080821115620003c857600080fd5b50620003d787828801620002ac565b925050620003e86060860162000279565b905092959194509250565b600181811c908216806200040857607f821691505b602082108114156200042a57634e487b7160e01b600052602260045260246000fd5b50919050565b61154e80620004406000396000f3fe608060405234801561001057600080fd5b50600436106101005760003560e01c8063715018a611610097578063e2842d7911610066578063e2842d7914610295578063e313a113146102aa578063f2fde38b146102b2578063f8b2cb4f146102c557600080fd5b8063715018a61461024d5780638da5cb5b1461025557806395d89b411461027a578063cc7a262e1461028257600080fd5b8063561b2463116100d3578063561b2463146101cc5780635dd9147c146101df5780636b9db4e6146101f257806370a082311461023a57600080fd5b806306fdde0314610105578063204552b01461012357806330d00505146101385780633ab1ced1146101ab575b600080fd5b61010d6102d8565b60405161011a91906112a9565b60405180910390f35b6101366101313660046112dc565b610366565b005b61019b6101463660046112dc565b6001600160a01b031660009081526007602090815260409182902082516080810184528154815260018201549281019290925260028101549282019290925260039091015460ff161515606090910181905290565b604051901515815260200161011a565b6101be6101b93660046112dc565b6104f0565b60405190815260200161011a565b6101366101da366004611313565b610543565b6101be6101ed3660046112dc565b610ac5565b6102056102003660046112dc565b610bc1565b60405161011a919081518152602080830151908201526040808301519082015260609182015115159181019190915260800190565b6101be6102483660046112dc565b610c41565b610136610c52565b6001546001600160a01b03165b6040516001600160a01b03909116815260200161011a565b61010d610c88565b600254610262906001600160a01b031681565b61029d610c95565b60405161011a919061134c565b610136610cf7565b6101366102c03660046112dc565b610de0565b6101be6102d33660046112dc565b610e7b565b600380546102e590611399565b80601f016020809104026020016040519081016040528092919081815260200182805461031190611399565b801561035e5780601f106103335761010080835404028352916020019161035e565b820191906000526020600020905b81548152906001019060200180831161034157829003601f168201915b505050505081565b600260005414156103925760405162461bcd60e51b8152600401610389906113d4565b60405180910390fd5b60026000556001546001600160a01b031633146103c15760405162461bcd60e51b81526004016103899061140b565b6002546001600160a01b038281169116141561040a5760405162461bcd60e51b8152602060048201526008602482015267085a5b9d985b1a5960c21b6044820152606401610389565b6040516370a0823160e01b81523060048201526000906001600160a01b038316906370a082319060240160206040518083038186803b15801561044c57600080fd5b505afa158015610460573d6000803e3d6000fd5b505050506040513d601f19601f820116820180604052508101906104849190611440565b9050600081116104c15760405162461bcd60e51b81526020600482015260086024820152672162616c616e636560c01b6044820152606401610389565b6104e76104d66001546001600160a01b031690565b6001600160a01b0384169083610f40565b50506001600055565b6001600160a01b0381166000908152600960209081526040808320546008909252822054829161051f9161146f565b9050600061052c84610e7b565b9050600061053a8284611487565b95945050505050565b600260005414156105665760405162461bcd60e51b8152600401610389906113d4565b6002600055821515806105795750600082115b6105ae5760405162461bcd60e51b8152600401610389906020808252600490820152631b9d5b1b60e21b604082015260600190565b3360008181526007602090815260408083208151608081018352815481526001820154938101939093526002810154918301919091526003015460ff1615156060820181905290919061064b57600680546001810182556000919091527ff652222313e28459528d920b65115c16c04f3efc82aaedc97be59f3f377c0d3f0180546001600160a01b0319166001600160a01b03851617905561066a565b816020015142101561066a574282602001516106679190611487565b90505b6303bfc400610679878361146f565b11156106b25760405162461bcd60e51b81526020600482015260086024820152673e3220796561727360c01b6044820152606401610389565b6002546040516370a0823160e01b81526001600160a01b038581166004830152879216906370a082319060240160206040518083038186803b1580156106f757600080fd5b505afa15801561070b573d6000803e3d6000fd5b505050506040513d601f19601f8201168201806040525081019061072f9190611440565b10156107685760405162461bcd60e51b81526020600482015260086024820152672162616c616e636560c01b6044820152606401610389565b600254604051636eb1769f60e11b81526001600160a01b0385811660048301523060248301528792169063dd62ed3e9060440160206040518083038186803b1580156107b357600080fd5b505afa1580156107c7573d6000803e3d6000fd5b505050506040513d601f19601f820116820180604052508101906107eb9190611440565b10156108255760405162461bcd60e51b815260206004820152600960248201526808585c1c1c9bdd995960ba1b6044820152606401610389565b60025461083d906001600160a01b0316843088610fa8565b6001600160a01b0383166000908152600860205260408120549061086085610e7b565b9050600061086e8284611487565b90508661090c576001600160a01b038616600090815260096020526040902054610898908261146f565b6002549091506108b2906001600160a01b03168783610f40565b6001600160a01b03861660008181526009602052604080822091909155517ffcbf8b246b3ac6aa7e8002686cf3d119427dd6d829425af7accd635930643edb906108ff9084815260200190565b60405180910390a261093a565b6001600160a01b0386166000908152600960205260408120805483929061093490849061146f565b90915550505b6000610946898461146f565b6001600160a01b038816600090815260086020908152604080832084905580516080810182529182018390528101829052606081019190915242808252919250908690610994908d9061146f565b61099e919061146f565b602082810191825260408084018581526001606086018181526001600160a01b038e1660009081526007909552929093208551815593519284019290925590516002830155516003909101805460ff191691151591909117905585610a5a57876001600160a01b03167f1835b101ea7447f2acc185724289ae4febae3bfcd360c35fe5e92f998d158e648383600001518460200151610a3d9190611487565b6040805192835260208301919091520160405180910390a2610ab3565b876001600160a01b03167f1283a4a0284d28123a496b22cd97a140ab9f481d8b8b2088e4d2b95fd6a2412e8383600001518460200151610a9a9190611487565b6040805192835260208301919091520160405180910390a25b50506001600055505050505050505050565b6001600160a01b038116600090815260076020908152604080832081516080810183528154815260018201549381018490526002820154928101929092526003015460ff16151560608201529042908390821015610bb95760006303bfc400846040015185600001518660200151610b3d9190611487565b610b47919061149e565b610b5191906114bd565b9050600084600001518560200151610b699190611487565b600554858760200151610b7c9190611487565b610b86919061149e565b610b9091906114bd565b600554909150610ba0828461149e565b610baa91906114bd565b610bb4908461146f565b925050505b949350505050565b610bee60405180608001604052806000815260200160008152602001600081526020016000151581525090565b506001600160a01b031660009081526007602090815260409182902082516080810184528154815260018201549281019290925260028101549282019290925260039091015460ff161515606082015290565b6000610c4c82610ac5565b92915050565b6001546001600160a01b03163314610c7c5760405162461bcd60e51b81526004016103899061140b565b610c866000610fe6565b565b600480546102e590611399565b60606006805480602002602001604051908101604052809291908181526020018280548015610ced57602002820191906000526020600020905b81546001600160a01b03168152600190910190602001808311610ccf575b5050505050905090565b60026000541415610d1a5760405162461bcd60e51b8152600401610389906113d4565b6002600090815533808252600960209081526040808420546008909252832054919291610d47919061146f565b90506000610d5483610e7b565b90506000610d628284611487565b600254909150610d7c906001600160a01b03168583610f40565b6001600160a01b0384166000818152600860209081526040808320869055600982528083209290925590518381527ffcbf8b246b3ac6aa7e8002686cf3d119427dd6d829425af7accd635930643edb910160405180910390a2505060016000555050565b6001546001600160a01b03163314610e0a5760405162461bcd60e51b81526004016103899061140b565b6001600160a01b038116610e6f5760405162461bcd60e51b815260206004820152602660248201527f4f776e61626c653a206e6577206f776e657220697320746865207a65726f206160448201526564647265737360d01b6064820152608401610389565b610e7881610fe6565b50565b6001600160a01b038116600090815260076020908152604080832081516080810183528154815260018201549381018490526002820154928101929092526003015460ff16151560608201529042908390821015610bb95782516020840151600091610ee691611487565b600554848660200151610ef99190611487565b610f03919061149e565b610f0d91906114bd565b9050600554818560400151610f22919061149e565b610f2c91906114bd565b610f36908361146f565b9695505050505050565b6040516001600160a01b038316602482015260448101829052610fa390849063a9059cbb60e01b906064015b60408051601f198184030181529190526020810180516001600160e01b03166001600160e01b031990931692909217909152611038565b505050565b6040516001600160a01b0380851660248301528316604482015260648101829052610fe09085906323b872dd60e01b90608401610f6c565b50505050565b600180546001600160a01b038381166001600160a01b0319831681179093556040519116919082907f8be0079c531659141344cd1fd0a4f28419497f9722a3daafe3b4186f6b6457e090600090a35050565b600061108d826040518060400160405280602081526020017f5361666545524332303a206c6f772d6c6576656c2063616c6c206661696c6564815250856001600160a01b031661110a9092919063ffffffff16565b805190915015610fa357808060200190518101906110ab91906114df565b610fa35760405162461bcd60e51b815260206004820152602a60248201527f5361666545524332303a204552433230206f7065726174696f6e20646964206e6044820152691bdd081cdd58d8d9595960b21b6064820152608401610389565b60606111198484600085611123565b90505b9392505050565b6060824710156111845760405162461bcd60e51b815260206004820152602660248201527f416464726573733a20696e73756666696369656e742062616c616e636520666f6044820152651c8818d85b1b60d21b6064820152608401610389565b6001600160a01b0385163b6111db5760405162461bcd60e51b815260206004820152601d60248201527f416464726573733a2063616c6c20746f206e6f6e2d636f6e74726163740000006044820152606401610389565b600080866001600160a01b031685876040516111f791906114fc565b60006040518083038185875af1925050503d8060008114611234576040519150601f19603f3d011682016040523d82523d6000602084013e611239565b606091505b5091509150610bb48282866060831561125357508161111c565b8251156112635782518084602001fd5b8160405162461bcd60e51b815260040161038991906112a9565b60005b83811015611298578181015183820152602001611280565b83811115610fe05750506000910152565b60208152600082518060208401526112c881604085016020870161127d565b601f01601f19169190910160400192915050565b6000602082840312156112ee57600080fd5b81356001600160a01b038116811461111c57600080fd5b8015158114610e7857600080fd5b60008060006060848603121561132857600080fd5b8335925060208401359150604084013561134181611305565b809150509250925092565b6020808252825182820181905260009190848201906040850190845b8181101561138d5783516001600160a01b031683529284019291840191600101611368565b50909695505050505050565b600181811c908216806113ad57607f821691505b602082108114156113ce57634e487b7160e01b600052602260045260246000fd5b50919050565b6020808252601f908201527f5265656e7472616e637947756172643a207265656e7472616e742063616c6c00604082015260600190565b6020808252818101527f4f776e61626c653a2063616c6c6572206973206e6f7420746865206f776e6572604082015260600190565b60006020828403121561145257600080fd5b5051919050565b634e487b7160e01b600052601160045260246000fd5b6000821982111561148257611482611459565b500190565b60008282101561149957611499611459565b500390565b60008160001904831182151516156114b8576114b8611459565b500290565b6000826114da57634e487b7160e01b600052601260045260246000fd5b500490565b6000602082840312156114f157600080fd5b815161111c81611305565b6000825161150e81846020870161127d565b919091019291505056fea2646970667358221220eabb7f09d46693d1897982eff356d7d749ae09d424e68c9a093607d3e7351cba64736f6c63430008090033",
  "devdoc": {
    "events": {
      "userClaimed(address,uint256)": {
        "params": {
          "amount": "Quantity of tokens claimed",
          "user": "Address of the user who claimed"
        }
      },
      "userExtended(address,uint256,uint256)": {
        "params": {
          "amount": "New total quantity of tokens in stake",
          "duration": "New total length of stake",
          "user": "Address of the user who staked"
        }
      },
      "userStaked(address,uint256,uint256)": {
        "params": {
          "amount": "Quantity of tokens staked",
          "duration": "Length in seconds of stake",
          "user": "Address of the user who staked"
        }
      }
    },
    "kind": "dev",
    "methods": {
      "claimMyFunds()": {
        "details": "This will need to be called by the web application via a button or some other means"
      },
      "constructor": {
        "params": {
          "_governance": "Address of wallet which will be given adminstrative access to this contract",
          "_name": "Desired name of our governance token",
          "_stakedToken": "Address of the token our users will deposit and lock in exchange for governance tokens",
          "_symbol": "Desired symbol of our governance token"
        }
      },
      "getAllUsers()": {
        "returns": {
          "_0": "An array of addresses of all users who have ever staked"
        }
      },
      "getBalance(address)": {
        "params": {
          "_userAddr": "Address of any user to view the number of tokens they still have locked"
        },
        "returns": {
          "_0": "Quantity of tokens the user has locked"
        }
      },
      "getLock(address)": {
        "details": "This may be used by the web application for graphical illustration purposes",
        "params": {
          "_userAddr": "Address of any user to view all Locks they have ever created"
        },
        "returns": {
          "_0": "Users Lock in the format of the LockVe struct"
        }
      },
      "getPower(address)": {
        "params": {
          "_userAddr": "Address of any user to view the number of governance tokens currently awarded to them"
        },
        "returns": {
          "_0": "Quantity of governance tokens allocated to the user"
        }
      },
      "getUnclaimed(address)": {
        "params": {
          "_userAddr": "Address of any user to view the number of vested tokens they have not yet claimed"
        },
        "returns": {
          "_0": "Quantity of tokens which have vested but are unclaimed by the specified user"
        }
      },
      "isUserLocked(address)": {
        "details": "This may be used by the web application to determine if the UI says \"Create Lock\" or \"Add to Lock\"",
        "params": {
          "_userAddr": "Address of any user to check"
        },
        "returns": {
          "_0": "True if the user has ever created a lock"
        }
      },
      "owner()": {
        "details": "Returns the address of the current owner."
      },
      "ownerRemoveNonDepositToken(address)": {
        "details": "Always ensure the _token is legitimate before calling thisA bad token can mimic safetransfer or balanceof with a nocive function",
        "params": {
          "_token": "Address of the non-deposit token"
        }
      },
      "renounceOwnership()": {
        "details": "Leaves the contract without owner. It will not be possible to call `onlyOwner` functions anymore. Can only be called by the current owner. NOTE: Renouncing ownership will leave the contract without an owner, thereby removing any functionality that is only available to the owner."
      },
      "stake(uint256,uint256,bool)": {
        "params": {
          "_amount": "Number of additional tokens to deposit into the lock",
          "_deferUnclaimed": "If True, leaves any unclaimed vested balance in the staking contract",
          "_duration": "Number of seconds the invoking user will extend their lock for"
        }
      },
      "transferOwnership(address)": {
        "details": "Transfers ownership of the contract to a new account (`newOwner`). Can only be called by the current owner."
      }
    },
    "version": 1
  },
  "userdoc": {
    "events": {
      "userClaimed(address,uint256)": {
        "notice": "Emitted when a user claims outstanding vested balance"
      },
      "userExtended(address,uint256,uint256)": {
        "notice": "Emitted when a user extends and/or deposits into their existing stake"
      },
      "userStaked(address,uint256,uint256)": {
        "notice": "Emitted when a user stakes for the first time"
      }
    },
    "kind": "user",
    "methods": {
      "balanceOf(address)": {
        "notice": "This is an overload for getPower so that users can see the 'token' in their wallets"
      },
      "claimMyFunds()": {
        "notice": "Transfers vested tokens back to their original ownerIt is up to the user to invoke this manually"
      },
      "constructor": {
        "notice": "Constructor"
      },
      "getAllUsers()": {
        "notice": "Retrieve a list of all users who have ever staked"
      },
      "getBalance(address)": {
        "notice": "Calculate the number of tokens a user still has locked"
      },
      "getLock(address)": {
        "notice": "View a users Lock"
      },
      "getPower(address)": {
        "notice": "Calculate the number of governance tokens currently allocated to a user by this contract"
      },
      "getUnclaimed(address)": {
        "notice": "Calculate the number of vested tokens a user has not claimed"
      },
      "isUserLocked(address)": {
        "notice": "Check if a user has ever created a Lock in this contract"
      },
      "ownerRemoveNonDepositToken(address)": {
        "notice": "Allow owner to reclaim tokens not matching the deposit tokenSome users may have accidentally sent these to the contract"
      },
      "stake(uint256,uint256,bool)": {
        "notice": "Create/extend the duration of the invoking users lock and/or deposit additional tokens into it"
      }
    },
    "version": 1
  },
  "storageLayout": {
    "storage": [
      {
        "astId": 115,
        "contract": "contracts/VestingStake.sol:VestingStake",
        "label": "_status",
        "offset": 0,
        "slot": "0",
        "type": "t_uint256"
      },
      {
        "astId": 7,
        "contract": "contracts/VestingStake.sol:VestingStake",
        "label": "_owner",
        "offset": 0,
        "slot": "1",
        "type": "t_address"
      },
      {
        "astId": 5624,
        "contract": "contracts/VestingStake.sol:VestingStake",
        "label": "stakedToken",
        "offset": 0,
        "slot": "2",
        "type": "t_address"
      },
      {
        "astId": 5626,
        "contract": "contracts/VestingStake.sol:VestingStake",
        "label": "name",
        "offset": 0,
        "slot": "3",
        "type": "t_string_storage"
      },
      {
        "astId": 5628,
        "contract": "contracts/VestingStake.sol:VestingStake",
        "label": "symbol",
        "offset": 0,
        "slot": "4",
        "type": "t_string_storage"
      },
      {
        "astId": 5631,
        "contract": "contracts/VestingStake.sol:VestingStake",
        "label": "interpolationGranularity",
        "offset": 0,
        "slot": "5",
        "type": "t_uint256"
      },
      {
        "astId": 5634,
        "contract": "contracts/VestingStake.sol:VestingStake",
        "label": "users",
        "offset": 0,
        "slot": "6",
        "type": "t_array(t_address)dyn_storage"
      },
      {
        "astId": 5639,
        "contract": "contracts/VestingStake.sol:VestingStake",
        "label": "locks",
        "offset": 0,
        "slot": "7",
        "type": "t_mapping(t_address,t_struct(LockVe)5656_storage)"
      },
      {
        "astId": 5643,
        "contract": "contracts/VestingStake.sol:VestingStake",
        "label": "lockedFunds",
        "offset": 0,
        "slot": "8",
        "type": "t_mapping(t_address,t_uint256)"
      },
      {
        "astId": 5647,
        "contract": "contracts/VestingStake.sol:VestingStake",
        "label": "deferredFunds",
        "offset": 0,
        "slot": "9",
        "type": "t_mapping(t_address,t_uint256)"
      }
    ],
    "types": {
      "t_address": {
        "encoding": "inplace",
        "label": "address",
        "numberOfBytes": "20"
      },
      "t_array(t_address)dyn_storage": {
        "base": "t_address",
        "encoding": "dynamic_array",
        "label": "address[]",
        "numberOfBytes": "32"
      },
      "t_bool": {
        "encoding": "inplace",
        "label": "bool",
        "numberOfBytes": "1"
      },
      "t_mapping(t_address,t_struct(LockVe)5656_storage)": {
        "encoding": "mapping",
        "key": "t_address",
        "label": "mapping(address => struct VestingStake.LockVe)",
        "numberOfBytes": "32",
        "value": "t_struct(LockVe)5656_storage"
      },
      "t_mapping(t_address,t_uint256)": {
        "encoding": "mapping",
        "key": "t_address",
        "label": "mapping(address => uint256)",
        "numberOfBytes": "32",
        "value": "t_uint256"
      },
      "t_string_storage": {
        "encoding": "bytes",
        "label": "string",
        "numberOfBytes": "32"
      },
      "t_struct(LockVe)5656_storage": {
        "encoding": "inplace",
        "label": "struct VestingStake.LockVe",
        "members": [
          {
            "astId": 5649,
            "contract": "contracts/VestingStake.sol:VestingStake",
            "label": "startBlockTime",
            "offset": 0,
            "slot": "0",
            "type": "t_uint256"
          },
          {
            "astId": 5651,
            "contract": "contracts/VestingStake.sol:VestingStake",
            "label": "endBlockTime",
            "offset": 0,
            "slot": "1",
            "type": "t_uint256"
          },
          {
            "astId": 5653,
            "contract": "contracts/VestingStake.sol:VestingStake",
            "label": "startingAmountLocked",
            "offset": 0,
            "slot": "2",
            "type": "t_uint256"
          },
          {
            "astId": 5655,
            "contract": "contracts/VestingStake.sol:VestingStake",
            "label": "initialized",
            "offset": 0,
            "slot": "3",
            "type": "t_bool"
          }
        ],
        "numberOfBytes": "128"
      },
      "t_uint256": {
        "encoding": "inplace",
        "label": "uint256",
        "numberOfBytes": "32"
      }
    }
  }
}