{
  "address": "0xd5Fe6cC71D3D7e4858092125e4efd6c9Ef8E6032",
  "abi": [
    {
      "inputs": [
        {
          "internalType": "address",
          "name": "_stakedToken",
          "type": "address"
        },
        {
          "internalType": "string",
          "name": "_name",
          "type": "string"
        },
        {
          "internalType": "string",
          "name": "_symbol",
          "type": "string"
        },
        {
          "internalType": "address",
          "name": "_governance",
          "type": "address"
        }
      ],
      "stateMutability": "nonpayable",
      "type": "constructor"
    },
    {
      "anonymous": false,
      "inputs": [
        {
          "indexed": true,
          "internalType": "address",
          "name": "previousOwner",
          "type": "address"
        },
        {
          "indexed": true,
          "internalType": "address",
          "name": "newOwner",
          "type": "address"
        }
      ],
      "name": "OwnershipTransferred",
      "type": "event"
    },
    {
      "anonymous": false,
      "inputs": [
        {
          "indexed": true,
          "internalType": "address",
          "name": "user",
          "type": "address"
        },
        {
          "indexed": false,
          "internalType": "uint256",
          "name": "amount",
          "type": "uint256"
        }
      ],
      "name": "userRestaked",
      "type": "event"
    },
    {
      "anonymous": false,
      "inputs": [
        {
          "indexed": true,
          "internalType": "address",
          "name": "user",
          "type": "address"
        },
        {
          "indexed": false,
          "internalType": "uint256",
          "name": "amount",
          "type": "uint256"
        }
      ],
      "name": "userStaked",
      "type": "event"
    },
    {
      "anonymous": false,
      "inputs": [
        {
          "indexed": true,
          "internalType": "address",
          "name": "user",
          "type": "address"
        },
        {
          "indexed": false,
          "internalType": "uint256",
          "name": "amount",
          "type": "uint256"
        },
        {
          "indexed": false,
          "internalType": "uint256",
          "name": "accrued",
          "type": "uint256"
        }
      ],
      "name": "userWithdrew",
      "type": "event"
    },
    {
      "inputs": [
        {
          "internalType": "address",
          "name": "_userAddr",
          "type": "address"
        }
      ],
      "name": "getAccrued",
      "outputs": [
        {
          "internalType": "uint256",
          "name": "",
          "type": "uint256"
        }
      ],
      "stateMutability": "view",
      "type": "function"
    },
    {
      "inputs": [],
      "name": "getAllUsers",
      "outputs": [
        {
          "internalType": "address[]",
          "name": "",
          "type": "address[]"
        }
      ],
      "stateMutability": "view",
      "type": "function"
    },
    {
      "inputs": [
        {
          "internalType": "address",
          "name": "_userAddr",
          "type": "address"
        }
      ],
      "name": "getStaked",
      "outputs": [
        {
          "internalType": "uint256",
          "name": "",
          "type": "uint256"
        }
      ],
      "stateMutability": "view",
      "type": "function"
    },
    {
      "inputs": [],
      "name": "getTotalAccrued",
      "outputs": [
        {
          "internalType": "uint256",
          "name": "",
          "type": "uint256"
        }
      ],
      "stateMutability": "view",
      "type": "function"
    },
    {
      "inputs": [],
      "name": "name",
      "outputs": [
        {
          "internalType": "string",
          "name": "",
          "type": "string"
        }
      ],
      "stateMutability": "view",
      "type": "function"
    },
    {
      "inputs": [],
      "name": "owner",
      "outputs": [
        {
          "internalType": "address",
          "name": "",
          "type": "address"
        }
      ],
      "stateMutability": "view",
      "type": "function"
    },
    {
      "inputs": [
        {
          "internalType": "address",
          "name": "_token",
          "type": "address"
        }
      ],
      "name": "ownerRemoveNonDepositToken",
      "outputs": [],
      "stateMutability": "nonpayable",
      "type": "function"
    },
    {
      "inputs": [],
      "name": "renounceOwnership",
      "outputs": [],
      "stateMutability": "nonpayable",
      "type": "function"
    },
    {
      "inputs": [
        {
          "internalType": "uint256",
          "name": "_amount",
          "type": "uint256"
        }
      ],
      "name": "stake",
      "outputs": [],
      "stateMutability": "nonpayable",
      "type": "function"
    },
    {
      "inputs": [],
      "name": "stakedToken",
      "outputs": [
        {
          "internalType": "address",
          "name": "",
          "type": "address"
        }
      ],
      "stateMutability": "view",
      "type": "function"
    },
    {
      "inputs": [],
      "name": "symbol",
      "outputs": [
        {
          "internalType": "string",
          "name": "",
          "type": "string"
        }
      ],
      "stateMutability": "view",
      "type": "function"
    },
    {
      "inputs": [
        {
          "internalType": "address",
          "name": "newOwner",
          "type": "address"
        }
      ],
      "name": "transferOwnership",
      "outputs": [],
      "stateMutability": "nonpayable",
      "type": "function"
    },
    {
      "inputs": [],
      "name": "withdrawMyFunds",
      "outputs": [],
      "stateMutability": "nonpayable",
      "type": "function"
    }
  ],
  "transactionHash": "0x0c287b94679fb4411698003187b24093f691e5aa6630496496575a7577ed8751",
  "args": [
    "0x57b8a194230ef402584130B1eD31d2C4682d7a71",
    "veAxial",
    "veAXIAL",
    "0x44A4b9E2A69d86BA382a511f845CbF2E31286770"
  ],
  "numDeployments": 1,
  "solcInputHash": "b789b1f498f002e312f5cab981b445a7",
  "bytecode": "0x60806040523480156200001157600080fd5b50604051620016c1380380620016c1833981016040819052620000349162000357565b60016000556200004433620000a0565b6200004f81620000f2565b600280546001600160a01b0319166001600160a01b03861617905582516200007f906003906020860190620001c7565b50815162000095906004906020850190620001c7565b505050505062000424565b600180546001600160a01b038381166001600160a01b0319831681179093556040519116919082907f8be0079c531659141344cd1fd0a4f28419497f9722a3daafe3b4186f6b6457e090600090a35050565b6001546001600160a01b03163314620001525760405162461bcd60e51b815260206004820181905260248201527f4f776e61626c653a2063616c6c6572206973206e6f7420746865206f776e657260448201526064015b60405180910390fd5b6001600160a01b038116620001b95760405162461bcd60e51b815260206004820152602660248201527f4f776e61626c653a206e6577206f776e657220697320746865207a65726f206160448201526564647265737360d01b606482015260840162000149565b620001c481620000a0565b50565b828054620001d590620003e7565b90600052602060002090601f016020900481019282620001f9576000855562000244565b82601f106200021457805160ff191683800117855562000244565b8280016001018555821562000244579182015b828111156200024457825182559160200191906001019062000227565b506200025292915062000256565b5090565b5b8082111562000252576000815560010162000257565b80516001600160a01b03811681146200028557600080fd5b919050565b634e487b7160e01b600052604160045260246000fd5b600082601f830112620002b257600080fd5b81516001600160401b0380821115620002cf57620002cf6200028a565b604051601f8301601f19908116603f01168101908282118183101715620002fa57620002fa6200028a565b816040528381526020925086838588010111156200031757600080fd5b600091505b838210156200033b57858201830151818301840152908201906200031c565b838211156200034d5760008385830101525b9695505050505050565b600080600080608085870312156200036e57600080fd5b62000379856200026d565b60208601519094506001600160401b03808211156200039757600080fd5b620003a588838901620002a0565b94506040870151915080821115620003bc57600080fd5b50620003cb87828801620002a0565b925050620003dc606086016200026d565b905092959194509250565b600181811c90821680620003fc57607f821691505b602082108114156200041e57634e487b7160e01b600052602260045260246000fd5b50919050565b61128d80620004346000396000f3fe608060405234801561001057600080fd5b50600436106100cf5760003560e01c806395d89b411161008c578063cc7a262e11610066578063cc7a262e146101a4578063e2842d79146101b7578063e7812b7f146101cc578063f2fde38b146101d457600080fd5b806395d89b41146101765780639869e1371461017e578063a694fc3a1461019157600080fd5b806306fdde03146100d4578063204552b0146100f2578063399080ec146101075780634935e74014610141578063715018a6146101495780638da5cb5b14610151575b600080fd5b6100dc6101e7565b6040516100e99190611007565b60405180910390f35b61010561010036600461103a565b610275565b005b61013361011536600461103a565b6001600160a01b03166000908152600a602052604090206001015490565b6040519081526020016100e9565b6101056103ff565b610105610677565b6001546001600160a01b03165b6040516001600160a01b0390911681526020016100e9565b6100dc6106ad565b61013361018c36600461103a565b6106ba565b61010561019f366004611063565b61072f565b60025461015e906001600160a01b031681565b6101bf610abd565b6040516100e9919061107c565b610133610b1f565b6101056101e236600461103a565b610b4e565b600380546101f4906110c9565b80601f0160208091040260200160405190810160405280929190818152602001828054610220906110c9565b801561026d5780601f106102425761010080835404028352916020019161026d565b820191906000526020600020905b81548152906001019060200180831161025057829003601f168201915b505050505081565b600260005414156102a15760405162461bcd60e51b815260040161029890611104565b60405180910390fd5b60026000556001546001600160a01b031633146102d05760405162461bcd60e51b81526004016102989061113b565b6002546001600160a01b03828116911614156103195760405162461bcd60e51b8152602060048201526008602482015267085a5b9d985b1a5960c21b6044820152606401610298565b6040516370a0823160e01b81523060048201526000906001600160a01b038316906370a082319060240160206040518083038186803b15801561035b57600080fd5b505afa15801561036f573d6000803e3d6000fd5b505050506040513d601f19601f820116820180604052508101906103939190611170565b9050600081116103d05760405162461bcd60e51b81526020600482015260086024820152672162616c616e636560c01b6044820152606401610298565b6103f66103e56001546001600160a01b031690565b6001600160a01b0384169083610be9565b50506001600055565b600260005414156104225760405162461bcd60e51b815260040161029890611104565b6002600090815533808252600a602052604090912060010154806104715760405162461bcd60e51b81526020600482015260066024820152652166756e647360d01b6044820152606401610298565b600254610488906001600160a01b03168383610be9565b610490610c51565b80600560008282546104a2919061119f565b90915550506001600160a01b0382166000908152600a602052604081205460068054919290916104d390849061119f565b90915550506001600160a01b0382166000818152600a6020908152604091829020548251858152918201527f864bae816c352dd0f39c724fcc304bc99b54106f6c99497e90ce84dc770831d6910160405180910390a26001600160a01b0382166000908152600a6020526040812060018082018390558282556004909101805460ff19169055600954610566919061119f565b6001600160a01b0384166000908152600a6020819052604082206003015460098054949550909384939190869081106105a1576105a16111b6565b60009182526020808320909101546001600160a01b0316835282019290925260400190206003015560098054839081106105dd576105dd6111b6565b600091825260209091200154600980546001600160a01b039092169183908110610609576106096111b6565b9060005260206000200160006101000a8154816001600160a01b0302191690836001600160a01b031602179055506009805480610648576106486111cc565b600082815260208120820160001990810180546001600160a01b03191690559091019091556001905550505050565b6001546001600160a01b031633146106a15760405162461bcd60e51b81526004016102989061113b565b6106ab6000610c8f565b565b600480546101f4906110c9565b6001600160a01b0381166000908152600a60205260408120600201546106e0904261119f565b6001600160a01b0383166000908152600a602052604090206001015461070691906111e2565b6001600160a01b0383166000908152600a60205260409020546107299190611201565b92915050565b600260005414156107525760405162461bcd60e51b815260040161029890611104565b60026000558061078e5760405162461bcd60e51b815260206004820152600760248201526608585b5bdd5b9d60ca1b6044820152606401610298565b6002546040516370a0823160e01b815233600482018190529183916001600160a01b03909116906370a082319060240160206040518083038186803b1580156107d657600080fd5b505afa1580156107ea573d6000803e3d6000fd5b505050506040513d601f19601f8201168201806040525081019061080e9190611170565b10156108475760405162461bcd60e51b81526020600482015260086024820152672162616c616e636560c01b6044820152606401610298565b600254604051636eb1769f60e11b81526001600160a01b0383811660048301523060248301528492169063dd62ed3e9060440160206040518083038186803b15801561089257600080fd5b505afa1580156108a6573d6000803e3d6000fd5b505050506040513d601f19601f820116820180604052508101906108ca9190611170565b10156109045760405162461bcd60e51b815260206004820152600960248201526808585c1c1c9bdd995960ba1b6044820152606401610298565b60025461091c906001600160a01b0316823085610ce1565b610924610c51565b81600560008282546109369190611201565b90915550506001600160a01b0381166000908152600a602052604090206004015460ff16610a375760098054600180820183557f6e1540171b6c0c960b71a7020d9f60077f6af931a8bbf590da0223dacf75c7af90910180546001600160a01b0319166001600160a01b0385169081179091556000908152600a6020526040902060048101805460ff1916831790554260029091015590546109d8919061119f565b6001600160a01b0382166000818152600a6020526040908190206003019290925590517fa39b21532db16adc6c236cfb236c5f7e1af396da67b382e207d4bb9199b1401290610a2a9085815260200190565b60405180910390a2610a84565b610a4081610d1f565b806001600160a01b03167f8d26cd0b1b971201238d682ee1b737ce8953268f8b60a3986ddbf8dba3d47b4583604051610a7b91815260200190565b60405180910390a25b6001600160a01b0381166000908152600a602052604081206001018054849290610aaf908490611201565b909155505060016000555050565b60606009805480602002602001604051908101604052809291908181526020018280548015610b1557602002820191906000526020600020905b81546001600160a01b03168152600190910190602001808311610af7575b5050505050905090565b600060085442610b2f919061119f565b600554610b3c91906111e2565b600654610b499190611201565b905090565b6001546001600160a01b03163314610b785760405162461bcd60e51b81526004016102989061113b565b6001600160a01b038116610bdd5760405162461bcd60e51b815260206004820152602660248201527f4f776e61626c653a206e6577206f776e657220697320746865207a65726f206160448201526564647265737360d01b6064820152608401610298565b610be681610c8f565b50565b6040516001600160a01b038316602482015260448101829052610c4c90849063a9059cbb60e01b906064015b60408051601f198184030181529190526020810180516001600160e01b03166001600160e01b031990931692909217909152610d86565b505050565b6008544290600090610c63908361119f565b905080600554610c7391906111e2565b60066000828254610c849190611201565b909155505050600855565b600180546001600160a01b038381166001600160a01b0319831681179093556040519116919082907f8be0079c531659141344cd1fd0a4f28419497f9722a3daafe3b4186f6b6457e090600090a35050565b6040516001600160a01b0380851660248301528316604482015260648101829052610d199085906323b872dd60e01b90608401610c15565b50505050565b6001600160a01b0381166000908152600a602052604081206001810154600282015491924292909190610d52908461119f565b610d5c91906111e2565b905081836002018190555080836000016000828254610d7b9190611201565b909155505050505050565b6000610ddb826040518060400160405280602081526020017f5361666545524332303a206c6f772d6c6576656c2063616c6c206661696c6564815250856001600160a01b0316610e589092919063ffffffff16565b805190915015610c4c5780806020019051810190610df99190611219565b610c4c5760405162461bcd60e51b815260206004820152602a60248201527f5361666545524332303a204552433230206f7065726174696f6e20646964206e6044820152691bdd081cdd58d8d9595960b21b6064820152608401610298565b6060610e678484600085610e71565b90505b9392505050565b606082471015610ed25760405162461bcd60e51b815260206004820152602660248201527f416464726573733a20696e73756666696369656e742062616c616e636520666f6044820152651c8818d85b1b60d21b6064820152608401610298565b6001600160a01b0385163b610f295760405162461bcd60e51b815260206004820152601d60248201527f416464726573733a2063616c6c20746f206e6f6e2d636f6e74726163740000006044820152606401610298565b600080866001600160a01b03168587604051610f45919061123b565b60006040518083038185875af1925050503d8060008114610f82576040519150601f19603f3d011682016040523d82523d6000602084013e610f87565b606091505b5091509150610f97828286610fa2565b979650505050505050565b60608315610fb1575081610e6a565b825115610fc15782518084602001fd5b8160405162461bcd60e51b81526004016102989190611007565b60005b83811015610ff6578181015183820152602001610fde565b83811115610d195750506000910152565b6020815260008251806020840152611026816040850160208701610fdb565b601f01601f19169190910160400192915050565b60006020828403121561104c57600080fd5b81356001600160a01b0381168114610e6a57600080fd5b60006020828403121561107557600080fd5b5035919050565b6020808252825182820181905260009190848201906040850190845b818110156110bd5783516001600160a01b031683529284019291840191600101611098565b50909695505050505050565b600181811c908216806110dd57607f821691505b602082108114156110fe57634e487b7160e01b600052602260045260246000fd5b50919050565b6020808252601f908201527f5265656e7472616e637947756172643a207265656e7472616e742063616c6c00604082015260600190565b6020808252818101527f4f776e61626c653a2063616c6c6572206973206e6f7420746865206f776e6572604082015260600190565b60006020828403121561118257600080fd5b5051919050565b634e487b7160e01b600052601160045260246000fd5b6000828210156111b1576111b1611189565b500390565b634e487b7160e01b600052603260045260246000fd5b634e487b7160e01b600052603160045260246000fd5b60008160001904831182151516156111fc576111fc611189565b500290565b6000821982111561121457611214611189565b500190565b60006020828403121561122b57600080fd5b81518015158114610e6a57600080fd5b6000825161124d818460208701610fdb565b919091019291505056fea2646970667358221220a16536ec2e6deccc1704a7a66b025c55ac441aad20824aac52c8944bd4f2507064736f6c63430008090033",
  "devdoc": {
    "events": {
      "userRestaked(address,uint256)": {
        "params": {
          "amount": "Quantity of tokens deposited",
          "user": "Address of the user who staked"
        }
      },
      "userStaked(address,uint256)": {
        "params": {
          "amount": "Quantity of tokens deposited",
          "user": "Address of the user who staked"
        }
      },
      "userWithdrew(address,uint256,uint256)": {
        "params": {
          "accrued": "Quantity of accrued tokens lost",
          "amount": "Quantity of tokens withdrawn",
          "user": "Address of the user who withdrew"
        }
      }
    },
    "kind": "dev",
    "methods": {
      "constructor": {
        "params": {
          "_governance": "Address of wallet which will be given adminstrative access to this contract",
          "_name": "Desired name of our governance token",
          "_stakedToken": "Address of the token our users will deposit and lock in exchange for governance tokens",
          "_symbol": "Desired symbol of our governance token"
        }
      },
      "getAccrued(address)": {
        "details": "Use this function to get the numerator for a users share of the rewards pool",
        "params": {
          "_userAddr": "Address of any user to view the number of vested tokens they have not yet claimed"
        },
        "returns": {
          "_0": "Quantity of tokens which a user has accrued over time"
        }
      },
      "getAllUsers()": {
        "returns": {
          "_0": "An array of addresses of all users who have ever staked"
        }
      },
      "getStaked(address)": {
        "params": {
          "_userAddr": "Address of any user to view the number of vested tokens they have not yet claimed"
        },
        "returns": {
          "_0": "Quantity of tokens which a user currently has staked"
        }
      },
      "getTotalAccrued()": {
        "details": "Use this function to get the denominator for a users share of the rewards pool",
        "returns": {
          "_0": "Quantity of all tokens awarded by this contract"
        }
      },
      "owner()": {
        "details": "Returns the address of the current owner."
      },
      "ownerRemoveNonDepositToken(address)": {
        "details": "Always ensure the _token is legitimate before calling thisA bad token can mimic safetransfer or balanceof with a nocive function",
        "params": {
          "_token": "Address of the non-deposit token"
        }
      },
      "renounceOwnership()": {
        "details": "Leaves the contract without owner. It will not be possible to call `onlyOwner` functions anymore. Can only be called by the current owner. NOTE: Renouncing ownership will leave the contract without an owner, thereby removing any functionality that is only available to the owner."
      },
      "stake(uint256)": {
        "params": {
          "_amount": "Number of tokens to deposit"
        }
      },
      "transferOwnership(address)": {
        "details": "Transfers ownership of the contract to a new account (`newOwner`). Can only be called by the current owner."
      },
      "withdrawMyFunds()": {
        "details": "This could be called by the web application via a button or some other means"
      }
    },
    "version": 1
  },
  "userdoc": {
    "events": {
      "userRestaked(address,uint256)": {
        "notice": "Emitted when a user adds to their stake"
      },
      "userStaked(address,uint256)": {
        "notice": "Emitted when a user creates a new stake"
      },
      "userWithdrew(address,uint256,uint256)": {
        "notice": "Emitted when a user withdraws their funds"
      }
    },
    "kind": "user",
    "methods": {
      "constructor": {
        "notice": "Constructor"
      },
      "getAccrued(address)": {
        "notice": "Get the total number of tokens a user has accrued"
      },
      "getAllUsers()": {
        "notice": "Retrieve a list of all users who have ever staked"
      },
      "getStaked(address)": {
        "notice": "Get the number of tokens a user currently has staked"
      },
      "getTotalAccrued()": {
        "notice": "Get the total number of tokens accrued via this contract"
      },
      "ownerRemoveNonDepositToken(address)": {
        "notice": "Allow owner to reclaim tokens not matching the deposit tokenSome users may have accidentally sent these to the contract"
      },
      "stake(uint256)": {
        "notice": "Deposit tokens into the contract, adjusting accrual rate"
      },
      "withdrawMyFunds()": {
        "notice": "Transfers deposited tokens back to their original ownerThis will reset the users accrual!"
      }
    },
    "version": 1
  },
  "storageLayout": {
    "storage": [
      {
        "astId": 115,
        "contract": "contracts/AccruingStake.sol:AccruingStake",
        "label": "_status",
        "offset": 0,
        "slot": "0",
        "type": "t_uint256"
      },
      {
        "astId": 7,
        "contract": "contracts/AccruingStake.sol:AccruingStake",
        "label": "_owner",
        "offset": 0,
        "slot": "1",
        "type": "t_address"
      },
      {
        "astId": 1792,
        "contract": "contracts/AccruingStake.sol:AccruingStake",
        "label": "stakedToken",
        "offset": 0,
        "slot": "2",
        "type": "t_address"
      },
      {
        "astId": 1794,
        "contract": "contracts/AccruingStake.sol:AccruingStake",
        "label": "name",
        "offset": 0,
        "slot": "3",
        "type": "t_string_storage"
      },
      {
        "astId": 1796,
        "contract": "contracts/AccruingStake.sol:AccruingStake",
        "label": "symbol",
        "offset": 0,
        "slot": "4",
        "type": "t_string_storage"
      },
      {
        "astId": 1798,
        "contract": "contracts/AccruingStake.sol:AccruingStake",
        "label": "totalTokensLocked",
        "offset": 0,
        "slot": "5",
        "type": "t_uint256"
      },
      {
        "astId": 1800,
        "contract": "contracts/AccruingStake.sol:AccruingStake",
        "label": "totalTokensAccrued",
        "offset": 0,
        "slot": "6",
        "type": "t_uint256"
      },
      {
        "astId": 1802,
        "contract": "contracts/AccruingStake.sol:AccruingStake",
        "label": "lastUserIndexUpdated",
        "offset": 0,
        "slot": "7",
        "type": "t_uint256"
      },
      {
        "astId": 1804,
        "contract": "contracts/AccruingStake.sol:AccruingStake",
        "label": "timeStamp",
        "offset": 0,
        "slot": "8",
        "type": "t_uint256"
      },
      {
        "astId": 1807,
        "contract": "contracts/AccruingStake.sol:AccruingStake",
        "label": "users",
        "offset": 0,
        "slot": "9",
        "type": "t_array(t_address)dyn_storage"
      },
      {
        "astId": 1812,
        "contract": "contracts/AccruingStake.sol:AccruingStake",
        "label": "locks",
        "offset": 0,
        "slot": "10",
        "type": "t_mapping(t_address,t_struct(AccrueVe)1823_storage)"
      }
    ],
    "types": {
      "t_address": {
        "encoding": "inplace",
        "label": "address",
        "numberOfBytes": "20"
      },
      "t_array(t_address)dyn_storage": {
        "base": "t_address",
        "encoding": "dynamic_array",
        "label": "address[]",
        "numberOfBytes": "32"
      },
      "t_bool": {
        "encoding": "inplace",
        "label": "bool",
        "numberOfBytes": "1"
      },
      "t_mapping(t_address,t_struct(AccrueVe)1823_storage)": {
        "encoding": "mapping",
        "key": "t_address",
        "label": "mapping(address => struct AccruingStake.AccrueVe)",
        "numberOfBytes": "32",
        "value": "t_struct(AccrueVe)1823_storage"
      },
      "t_string_storage": {
        "encoding": "bytes",
        "label": "string",
        "numberOfBytes": "32"
      },
      "t_struct(AccrueVe)1823_storage": {
        "encoding": "inplace",
        "label": "struct AccruingStake.AccrueVe",
        "members": [
          {
            "astId": 1814,
            "contract": "contracts/AccruingStake.sol:AccruingStake",
            "label": "accruedTokens",
            "offset": 0,
            "slot": "0",
            "type": "t_uint256"
          },
          {
            "astId": 1816,
            "contract": "contracts/AccruingStake.sol:AccruingStake",
            "label": "stakedTokens",
            "offset": 0,
            "slot": "1",
            "type": "t_uint256"
          },
          {
            "astId": 1818,
            "contract": "contracts/AccruingStake.sol:AccruingStake",
            "label": "timeStamp",
            "offset": 0,
            "slot": "2",
            "type": "t_uint256"
          },
          {
            "astId": 1820,
            "contract": "contracts/AccruingStake.sol:AccruingStake",
            "label": "userIndex",
            "offset": 0,
            "slot": "3",
            "type": "t_uint256"
          },
          {
            "astId": 1822,
            "contract": "contracts/AccruingStake.sol:AccruingStake",
            "label": "initialized",
            "offset": 0,
            "slot": "4",
            "type": "t_bool"
          }
        ],
        "numberOfBytes": "160"
      },
      "t_uint256": {
        "encoding": "inplace",
        "label": "uint256",
        "numberOfBytes": "32"
      }
    }
  }
}